{
  "contractName": "DocumentVerification",
  "abi": [
    {
      "inputs": [],
      "stateMutability": "nonpayable",
      "type": "constructor"
    },
    {
      "inputs": [
        {
          "internalType": "string",
          "name": "ipfsHash",
          "type": "string"
        }
      ],
      "name": "DocumentAlreadyExists",
      "type": "error"
    },
    {
      "inputs": [
        {
          "internalType": "uint256",
          "name": "documentId",
          "type": "uint256"
        }
      ],
      "name": "DocumentAlreadyVerified",
      "type": "error"
    },
    {
      "inputs": [
        {
          "internalType": "uint256",
          "name": "documentId",
          "type": "uint256"
        }
      ],
      "name": "DocumentNotFound",
      "type": "error"
    },
    {
      "inputs": [
        {
          "internalType": "string",
          "name": "documentType",
          "type": "string"
        }
      ],
      "name": "InvalidDocumentType",
      "type": "error"
    },
    {
      "inputs": [
        {
          "internalType": "string",
          "name": "ipfsHash",
          "type": "string"
        }
      ],
      "name": "InvalidIPFSHash",
      "type": "error"
    },
    {
      "inputs": [
        {
          "internalType": "address",
          "name": "caller",
          "type": "address"
        },
        {
          "internalType": "uint256",
          "name": "documentId",
          "type": "uint256"
        }
      ],
      "name": "UnauthorizedDocumentAccess",
      "type": "error"
    },
    {
      "anonymous": false,
      "inputs": [
        {
          "indexed": true,
          "internalType": "uint256",
          "name": "documentId",
          "type": "uint256"
        },
        {
          "indexed": false,
          "internalType": "uint256",
          "name": "expiredAt",
          "type": "uint256"
        }
      ],
      "name": "DocumentExpired",
      "type": "event"
    },
    {
      "anonymous": false,
      "inputs": [
        {
          "indexed": true,
          "internalType": "uint256",
          "name": "documentId",
          "type": "uint256"
        },
        {
          "indexed": true,
          "internalType": "address",
          "name": "owner",
          "type": "address"
        }
      ],
      "name": "DocumentMadePublic",
      "type": "event"
    },
    {
      "anonymous": false,
      "inputs": [
        {
          "indexed": true,
          "internalType": "uint256",
          "name": "documentId",
          "type": "uint256"
        },
        {
          "indexed": true,
          "internalType": "address",
          "name": "revoker",
          "type": "address"
        },
        {
          "indexed": false,
          "internalType": "string",
          "name": "reason",
          "type": "string"
        }
      ],
      "name": "DocumentRevoked",
      "type": "event"
    },
    {
      "anonymous": false,
      "inputs": [
        {
          "indexed": true,
          "internalType": "uint256",
          "name": "documentId",
          "type": "uint256"
        },
        {
          "indexed": false,
          "internalType": "string",
          "name": "newIpfsHash",
          "type": "string"
        }
      ],
      "name": "DocumentUpdated",
      "type": "event"
    },
    {
      "anonymous": false,
      "inputs": [
        {
          "indexed": true,
          "internalType": "uint256",
          "name": "documentId",
          "type": "uint256"
        },
        {
          "indexed": true,
          "internalType": "string",
          "name": "ipfsHash",
          "type": "string"
        },
        {
          "indexed": true,
          "internalType": "address",
          "name": "owner",
          "type": "address"
        },
        {
          "indexed": false,
          "internalType": "enum DocumentVerification.DocumentType",
          "name": "docType",
          "type": "uint8"
        }
      ],
      "name": "DocumentUploaded",
      "type": "event"
    },
    {
      "anonymous": false,
      "inputs": [
        {
          "indexed": true,
          "internalType": "uint256",
          "name": "documentId",
          "type": "uint256"
        },
        {
          "indexed": true,
          "internalType": "address",
          "name": "verifier",
          "type": "address"
        },
        {
          "indexed": false,
          "internalType": "enum DocumentVerification.VerificationStatus",
          "name": "status",
          "type": "uint8"
        }
      ],
      "name": "DocumentVerified",
      "type": "event"
    },
    {
      "anonymous": false,
      "inputs": [
        {
          "indexed": false,
          "internalType": "address",
          "name": "account",
          "type": "address"
        }
      ],
      "name": "Paused",
      "type": "event"
    },
    {
      "anonymous": false,
      "inputs": [
        {
          "indexed": true,
          "internalType": "bytes32",
          "name": "role",
          "type": "bytes32"
        },
        {
          "indexed": true,
          "internalType": "bytes32",
          "name": "previousAdminRole",
          "type": "bytes32"
        },
        {
          "indexed": true,
          "internalType": "bytes32",
          "name": "newAdminRole",
          "type": "bytes32"
        }
      ],
      "name": "RoleAdminChanged",
      "type": "event"
    },
    {
      "anonymous": false,
      "inputs": [
        {
          "indexed": true,
          "internalType": "bytes32",
          "name": "role",
          "type": "bytes32"
        },
        {
          "indexed": true,
          "internalType": "address",
          "name": "account",
          "type": "address"
        },
        {
          "indexed": true,
          "internalType": "address",
          "name": "sender",
          "type": "address"
        }
      ],
      "name": "RoleGranted",
      "type": "event"
    },
    {
      "anonymous": false,
      "inputs": [
        {
          "indexed": true,
          "internalType": "bytes32",
          "name": "role",
          "type": "bytes32"
        },
        {
          "indexed": true,
          "internalType": "address",
          "name": "account",
          "type": "address"
        },
        {
          "indexed": true,
          "internalType": "address",
          "name": "sender",
          "type": "address"
        }
      ],
      "name": "RoleRevoked",
      "type": "event"
    },
    {
      "anonymous": false,
      "inputs": [
        {
          "indexed": false,
          "internalType": "address",
          "name": "account",
          "type": "address"
        }
      ],
      "name": "Unpaused",
      "type": "event"
    },
    {
      "anonymous": false,
      "inputs": [
        {
          "indexed": true,
          "internalType": "uint256",
          "name": "documentId",
          "type": "uint256"
        },
        {
          "indexed": true,
          "internalType": "address",
          "name": "requester",
          "type": "address"
        }
      ],
      "name": "VerificationRequested",
      "type": "event"
    },
    {
      "inputs": [],
      "name": "DEFAULT_ADMIN_ROLE",
      "outputs": [
        {
          "internalType": "bytes32",
          "name": "",
          "type": "bytes32"
        }
      ],
      "stateMutability": "view",
      "type": "function"
    },
    {
      "inputs": [],
      "name": "DOCUMENT_MANAGER_ROLE",
      "outputs": [
        {
          "internalType": "bytes32",
          "name": "",
          "type": "bytes32"
        }
      ],
      "stateMutability": "view",
      "type": "function"
    },
    {
      "inputs": [],
      "name": "DOCUMENT_VALIDITY_PERIOD",
      "outputs": [
        {
          "internalType": "uint256",
          "name": "",
          "type": "uint256"
        }
      ],
      "stateMutability": "view",
      "type": "function"
    },
    {
      "inputs": [],
      "name": "MAX_VERIFICATION_ATTEMPTS",
      "outputs": [
        {
          "internalType": "uint256",
          "name": "",
          "type": "uint256"
        }
      ],
      "stateMutability": "view",
      "type": "function"
    },
    {
      "inputs": [],
      "name": "VERIFIER_ROLE",
      "outputs": [
        {
          "internalType": "bytes32",
          "name": "",
          "type": "bytes32"
        }
      ],
      "stateMutability": "view",
      "type": "function"
    },
    {
      "inputs": [
        {
          "internalType": "uint256",
          "name": "",
          "type": "uint256"
        }
      ],
      "name": "allDocuments",
      "outputs": [
        {
          "internalType": "uint256",
          "name": "",
          "type": "uint256"
        }
      ],
      "stateMutability": "view",
      "type": "function"
    },
    {
      "inputs": [
        {
          "internalType": "bytes32",
          "name": "",
          "type": "bytes32"
        }
      ],
      "name": "contentHashExists",
      "outputs": [
        {
          "internalType": "bool",
          "name": "",
          "type": "bool"
        }
      ],
      "stateMutability": "view",
      "type": "function"
    },
    {
      "inputs": [
        {
          "internalType": "uint256",
          "name": "",
          "type": "uint256"
        }
      ],
      "name": "documents",
      "outputs": [
        {
          "internalType": "uint256",
          "name": "id",
          "type": "uint256"
        },
        {
          "internalType": "string",
          "name": "ipfsHash",
          "type": "string"
        },
        {
          "internalType": "string",
          "name": "fileName",
          "type": "string"
        },
        {
          "internalType": "enum DocumentVerification.DocumentType",
          "name": "docType",
          "type": "uint8"
        },
        {
          "internalType": "address",
          "name": "owner",
          "type": "address"
        },
        {
          "internalType": "address",
          "name": "uploader",
          "type": "address"
        },
        {
          "internalType": "enum DocumentVerification.VerificationStatus",
          "name": "status",
          "type": "uint8"
        },
        {
          "internalType": "uint256",
          "name": "uploadedAt",
          "type": "uint256"
        },
        {
          "internalType": "uint256",
          "name": "verifiedAt",
          "type": "uint256"
        },
        {
          "internalType": "address",
          "name": "verifiedBy",
          "type": "address"
        },
        {
          "internalType": "uint256",
          "name": "expiresAt",
          "type": "uint256"
        },
        {
          "internalType": "string",
          "name": "metadata",
          "type": "string"
        },
        {
          "internalType": "bytes32",
          "name": "contentHash",
          "type": "bytes32"
        },
        {
          "internalType": "bool",
          "name": "isPublic",
          "type": "bool"
        }
      ],
      "stateMutability": "view",
      "type": "function"
    },
    {
      "inputs": [
        {
          "internalType": "bytes32",
          "name": "role",
          "type": "bytes32"
        }
      ],
      "name": "getRoleAdmin",
      "outputs": [
        {
          "internalType": "bytes32",
          "name": "",
          "type": "bytes32"
        }
      ],
      "stateMutability": "view",
      "type": "function"
    },
    {
      "inputs": [
        {
          "internalType": "bytes32",
          "name": "role",
          "type": "bytes32"
        },
        {
          "internalType": "address",
          "name": "account",
          "type": "address"
        }
      ],
      "name": "grantRole",
      "outputs": [],
      "stateMutability": "nonpayable",
      "type": "function"
    },
    {
      "inputs": [
        {
          "internalType": "bytes32",
          "name": "role",
          "type": "bytes32"
        },
        {
          "internalType": "address",
          "name": "account",
          "type": "address"
        }
      ],
      "name": "hasRole",
      "outputs": [
        {
          "internalType": "bool",
          "name": "",
          "type": "bool"
        }
      ],
      "stateMutability": "view",
      "type": "function"
    },
    {
      "inputs": [
        {
          "internalType": "string",
          "name": "",
          "type": "string"
        }
      ],
      "name": "ipfsHashToDocumentId",
      "outputs": [
        {
          "internalType": "uint256",
          "name": "",
          "type": "uint256"
        }
      ],
      "stateMutability": "view",
      "type": "function"
    },
    {
      "inputs": [],
      "name": "paused",
      "outputs": [
        {
          "internalType": "bool",
          "name": "",
          "type": "bool"
        }
      ],
      "stateMutability": "view",
      "type": "function"
    },
    {
      "inputs": [
        {
          "internalType": "uint256",
          "name": "",
          "type": "uint256"
        }
      ],
      "name": "pendingVerifications",
      "outputs": [
        {
          "internalType": "uint256",
          "name": "",
          "type": "uint256"
        }
      ],
      "stateMutability": "view",
      "type": "function"
    },
    {
      "inputs": [
        {
          "internalType": "bytes32",
          "name": "role",
          "type": "bytes32"
        },
        {
          "internalType": "address",
          "name": "account",
          "type": "address"
        }
      ],
      "name": "renounceRole",
      "outputs": [],
      "stateMutability": "nonpayable",
      "type": "function"
    },
    {
      "inputs": [
        {
          "internalType": "bytes32",
          "name": "role",
          "type": "bytes32"
        },
        {
          "internalType": "address",
          "name": "account",
          "type": "address"
        }
      ],
      "name": "revokeRole",
      "outputs": [],
      "stateMutability": "nonpayable",
      "type": "function"
    },
    {
      "inputs": [
        {
          "internalType": "bytes4",
          "name": "interfaceId",
          "type": "bytes4"
        }
      ],
      "name": "supportsInterface",
      "outputs": [
        {
          "internalType": "bool",
          "name": "",
          "type": "bool"
        }
      ],
      "stateMutability": "view",
      "type": "function"
    },
    {
      "inputs": [
        {
          "internalType": "address",
          "name": "",
          "type": "address"
        },
        {
          "internalType": "uint256",
          "name": "",
          "type": "uint256"
        }
      ],
      "name": "userDocuments",
      "outputs": [
        {
          "internalType": "uint256",
          "name": "",
          "type": "uint256"
        }
      ],
      "stateMutability": "view",
      "type": "function"
    },
    {
      "inputs": [
        {
          "internalType": "address",
          "name": "",
          "type": "address"
        },
        {
          "internalType": "enum DocumentVerification.DocumentType",
          "name": "",
          "type": "uint8"
        },
        {
          "internalType": "uint256",
          "name": "",
          "type": "uint256"
        }
      ],
      "name": "userDocumentsByType",
      "outputs": [
        {
          "internalType": "uint256",
          "name": "",
          "type": "uint256"
        }
      ],
      "stateMutability": "view",
      "type": "function"
    },
    {
      "inputs": [
        {
          "internalType": "uint256",
          "name": "",
          "type": "uint256"
        },
        {
          "internalType": "uint256",
          "name": "",
          "type": "uint256"
        }
      ],
      "name": "verificationHistory",
      "outputs": [
        {
          "internalType": "uint256",
          "name": "documentId",
          "type": "uint256"
        },
        {
          "internalType": "address",
          "name": "verifier",
          "type": "address"
        },
        {
          "internalType": "enum DocumentVerification.VerificationStatus",
          "name": "status",
          "type": "uint8"
        },
        {
          "internalType": "string",
          "name": "comments",
          "type": "string"
        },
        {
          "internalType": "uint256",
          "name": "timestamp",
          "type": "uint256"
        },
        {
          "internalType": "string",
          "name": "verificationMethod",
          "type": "string"
        }
      ],
      "stateMutability": "view",
      "type": "function"
    },
    {
      "inputs": [
        {
          "internalType": "string",
          "name": "_ipfsHash",
          "type": "string"
        },
        {
          "internalType": "string",
          "name": "_fileName",
          "type": "string"
        },
        {
          "internalType": "enum DocumentVerification.DocumentType",
          "name": "_docType",
          "type": "uint8"
        },
        {
          "internalType": "string",
          "name": "_metadata",
          "type": "string"
        },
        {
          "internalType": "bytes32",
          "name": "_contentHash",
          "type": "bytes32"
        },
        {
          "internalType": "bool",
          "name": "_isPublic",
          "type": "bool"
        }
      ],
      "name": "uploadDocument",
      "outputs": [
        {
          "internalType": "uint256",
          "name": "",
          "type": "uint256"
        }
      ],
      "stateMutability": "nonpayable",
      "type": "function"
    },
    {
      "inputs": [
        {
          "internalType": "uint256",
          "name": "_documentId",
          "type": "uint256"
        },
        {
          "internalType": "enum DocumentVerification.VerificationStatus",
          "name": "_status",
          "type": "uint8"
        },
        {
          "internalType": "string",
          "name": "_comments",
          "type": "string"
        },
        {
          "internalType": "string",
          "name": "_verificationMethod",
          "type": "string"
        }
      ],
      "name": "verifyDocument",
      "outputs": [],
      "stateMutability": "nonpayable",
      "type": "function"
    },
    {
      "inputs": [
        {
          "internalType": "uint256[]",
          "name": "documentIds",
          "type": "uint256[]"
        },
        {
          "internalType": "enum DocumentVerification.VerificationStatus[]",
          "name": "_statuses",
          "type": "uint8[]"
        },
        {
          "internalType": "string[]",
          "name": "_comments",
          "type": "string[]"
        }
      ],
      "name": "batchVerifyDocuments",
      "outputs": [],
      "stateMutability": "nonpayable",
      "type": "function"
    },
    {
      "inputs": [
        {
          "internalType": "uint256",
          "name": "_documentId",
          "type": "uint256"
        },
        {
          "internalType": "string",
          "name": "_newIpfsHash",
          "type": "string"
        },
        {
          "internalType": "bytes32",
          "name": "_newContentHash",
          "type": "bytes32"
        }
      ],
      "name": "updateDocument",
      "outputs": [],
      "stateMutability": "nonpayable",
      "type": "function"
    },
    {
      "inputs": [
        {
          "internalType": "uint256",
          "name": "_documentId",
          "type": "uint256"
        }
      ],
      "name": "requestVerification",
      "outputs": [],
      "stateMutability": "nonpayable",
      "type": "function"
    },
    {
      "inputs": [
        {
          "internalType": "uint256",
          "name": "_documentId",
          "type": "uint256"
        }
      ],
      "name": "makeDocumentPublic",
      "outputs": [],
      "stateMutability": "nonpayable",
      "type": "function"
    },
    {
      "inputs": [
        {
          "internalType": "uint256",
          "name": "_documentId",
          "type": "uint256"
        },
        {
          "internalType": "string",
          "name": "_reason",
          "type": "string"
        }
      ],
      "name": "revokeDocument",
      "outputs": [],
      "stateMutability": "nonpayable",
      "type": "function"
    },
    {
      "inputs": [
        {
          "internalType": "uint256[]",
          "name": "documentIds",
          "type": "uint256[]"
        }
      ],
      "name": "handleExpiredDocuments",
      "outputs": [],
      "stateMutability": "nonpayable",
      "type": "function"
    },
    {
      "inputs": [
        {
          "internalType": "string",
          "name": "_ipfsHash",
          "type": "string"
        },
        {
          "internalType": "bytes32",
          "name": "_contentHash",
          "type": "bytes32"
        }
      ],
      "name": "verifyDocumentAuthenticity",
      "outputs": [
        {
          "internalType": "bool",
          "name": "isAuthentic",
          "type": "bool"
        },
        {
          "internalType": "uint256",
          "name": "documentId",
          "type": "uint256"
        },
        {
          "internalType": "enum DocumentVerification.VerificationStatus",
          "name": "status",
          "type": "uint8"
        }
      ],
      "stateMutability": "view",
      "type": "function"
    },
    {
      "inputs": [
        {
          "internalType": "string",
          "name": "_ipfsHash",
          "type": "string"
        }
      ],
      "name": "getDocumentByIPFS",
      "outputs": [
        {
          "components": [
            {
              "internalType": "uint256",
              "name": "id",
              "type": "uint256"
            },
            {
              "internalType": "string",
              "name": "ipfsHash",
              "type": "string"
            },
            {
              "internalType": "string",
              "name": "fileName",
              "type": "string"
            },
            {
              "internalType": "enum DocumentVerification.DocumentType",
              "name": "docType",
              "type": "uint8"
            },
            {
              "internalType": "address",
              "name": "owner",
              "type": "address"
            },
            {
              "internalType": "address",
              "name": "uploader",
              "type": "address"
            },
            {
              "internalType": "enum DocumentVerification.VerificationStatus",
              "name": "status",
              "type": "uint8"
            },
            {
              "internalType": "uint256",
              "name": "uploadedAt",
              "type": "uint256"
            },
            {
              "internalType": "uint256",
              "name": "verifiedAt",
              "type": "uint256"
            },
            {
              "internalType": "address",
              "name": "verifiedBy",
              "type": "address"
            },
            {
              "internalType": "uint256",
              "name": "expiresAt",
              "type": "uint256"
            },
            {
              "internalType": "string",
              "name": "metadata",
              "type": "string"
            },
            {
              "internalType": "bytes32",
              "name": "contentHash",
              "type": "bytes32"
            },
            {
              "internalType": "bool",
              "name": "isPublic",
              "type": "bool"
            }
          ],
          "internalType": "struct DocumentVerification.Document",
          "name": "",
          "type": "tuple"
        }
      ],
      "stateMutability": "view",
      "type": "function"
    },
    {
      "inputs": [
        {
          "internalType": "address",
          "name": "_user",
          "type": "address"
        },
        {
          "internalType": "enum DocumentVerification.DocumentType",
          "name": "_docType",
          "type": "uint8"
        }
      ],
      "name": "getUserDocumentsByType",
      "outputs": [
        {
          "internalType": "uint256[]",
          "name": "",
          "type": "uint256[]"
        }
      ],
      "stateMutability": "view",
      "type": "function"
    },
    {
      "inputs": [
        {
          "internalType": "uint256",
          "name": "_documentId",
          "type": "uint256"
        }
      ],
      "name": "getVerificationHistory",
      "outputs": [
        {
          "components": [
            {
              "internalType": "uint256",
              "name": "documentId",
              "type": "uint256"
            },
            {
              "internalType": "address",
              "name": "verifier",
              "type": "address"
            },
            {
              "internalType": "enum DocumentVerification.VerificationStatus",
              "name": "status",
              "type": "uint8"
            },
            {
              "internalType": "string",
              "name": "comments",
              "type": "string"
            },
            {
              "internalType": "uint256",
              "name": "timestamp",
              "type": "uint256"
            },
            {
              "internalType": "string",
              "name": "verificationMethod",
              "type": "string"
            }
          ],
          "internalType": "struct DocumentVerification.VerificationRecord[]",
          "name": "",
          "type": "tuple[]"
        }
      ],
      "stateMutability": "view",
      "type": "function"
    },
    {
      "inputs": [],
      "name": "getPendingVerifications",
      "outputs": [
        {
          "internalType": "uint256[]",
          "name": "",
          "type": "uint256[]"
        }
      ],
      "stateMutability": "view",
      "type": "function"
    },
    {
      "inputs": [
        {
          "internalType": "address",
          "name": "_user",
          "type": "address"
        }
      ],
      "name": "getUserDocuments",
      "outputs": [
        {
          "internalType": "uint256[]",
          "name": "",
          "type": "uint256[]"
        }
      ],
      "stateMutability": "view",
      "type": "function"
    },
    {
      "inputs": [],
      "name": "getPublicDocuments",
      "outputs": [
        {
          "internalType": "uint256[]",
          "name": "",
          "type": "uint256[]"
        }
      ],
      "stateMutability": "view",
      "type": "function"
    },
    {
      "inputs": [
        {
          "internalType": "uint256",
          "name": "_documentId",
          "type": "uint256"
        }
      ],
      "name": "isDocumentExpired",
      "outputs": [
        {
          "internalType": "bool",
          "name": "",
          "type": "bool"
        }
      ],
      "stateMutability": "view",
      "type": "function"
    },
    {
      "inputs": [
        {
          "internalType": "uint256",
          "name": "_documentId",
          "type": "uint256"
        }
      ],
      "name": "getDocumentStatus",
      "outputs": [
        {
          "internalType": "enum DocumentVerification.VerificationStatus",
          "name": "",
          "type": "uint8"
        }
      ],
      "stateMutability": "view",
      "type": "function"
    },
    {
      "inputs": [],
      "name": "getTotalDocuments",
      "outputs": [
        {
          "internalType": "uint256",
          "name": "",
          "type": "uint256"
        }
      ],
      "stateMutability": "view",
      "type": "function"
    },
    {
      "inputs": [],
      "name": "pause",
      "outputs": [],
      "stateMutability": "nonpayable",
      "type": "function"
    },
    {
      "inputs": [],
      "name": "unpause",
      "outputs": [],
      "stateMutability": "nonpayable",
      "type": "function"
    },
    {
      "inputs": [
        {
          "internalType": "string[]",
          "name": "ipfsHashes",
          "type": "string[]"
        },
        {
          "internalType": "string[]",
          "name": "fileNames",
          "type": "string[]"
        },
        {
          "internalType": "enum DocumentVerification.DocumentType[]",
          "name": "docTypes",
          "type": "uint8[]"
        },
        {
          "internalType": "string[]",
          "name": "metadatas",
          "type": "string[]"
        },
        {
          "internalType": "bytes32[]",
          "name": "contentHashes",
          "type": "bytes32[]"
        },
        {
          "internalType": "bool[]",
          "name": "isPublics",
          "type": "bool[]"
        }
      ],
      "name": "bulkUploadDocuments",
      "outputs": [
        {
          "internalType": "uint256[]",
          "name": "",
          "type": "uint256[]"
        }
      ],
      "stateMutability": "nonpayable",
      "type": "function"
    }
  ],
  "bytecode": "0x60806040818152346200016a5760ff1980600154166001556000908180526020828152838320338452815260ff84842054161562000134575b7f0ce23c3e399818cfee81a7ab0880f714e53d7672b08df0fa62f2843416e1ea09808452838252848420338552825260ff858520541615620000fc575b507f5520d115ceffb88f02315d646cd7618d18024f657afe794865243ed5b75fb04f93848452838252808420338552825260ff818520541615620000c1575b6139358681620001708239f35b6001918585528481528185209033865252832091825416179055339160008051602062003aa5833981519152339280a43880808080620000b4565b80845283825284842033855282528484206001848254161790553390339060008051602062003aa58339815191528680a43862000075565b828052828152838320338452815283832060018382541617905533338460008051602062003aa58339815191528180a462000038565b600080fdfe6080604052600436101561001257600080fd5b60003560e01c8061533214612bf857806301ffc9a714612ba2578063039554c91461284357806303ab6cbf146120de5780630c020f0814611fe4578063248a9ca314611fb5578063298ff78b14611f595780632db580e214611e985780632f2ff15d14611de5578063314a486114611dc657806336568abe14611d345780633e64f39b14611cb15780633f4ba83a14611c1d5780634052347514611a895780634d5f9d751461188a57806355e9537614611861578063577a1b92146118175780635c975abb146117f45780635f7668ce146117c357806366563fc11461142d578063700651b1146113dd57806377fa79c41461113e5780638456cb59146110e55780638666c7a214610b7657806390a4b16214610b3c5780639145a8d11461088257806391d1485414610835578063a217fddf14610819578063a682637d146107be578063c2ed2b051461068d578063cdee934e14610664578063cffafec214610629578063d0e2a019146104e7578063d3245db7146104cb578063d547741f1461048a578063e00b6e5114610420578063e7641c5c146103c3578063e7705db614610388578063e90e7ad41461036a578063ea35af81146102b95763f466da70146101dd57600080fd5b346102b45760003660031901126102b4576009546101fa816138cd565b9060009060005b818110610254575050610213816138cd565b9160005b828110610230576040518061022c8682612dc1565b0390f35b8061023e61024f928461373e565b51610249828761373e565b5261372f565b610217565b61025d81612f05565b9054600391821b1c6000528060205260ff600b604060002001541661028c575b506102879061372f565b610201565b81936102ad9161029e61028794612f05565b9054911b1c610249828861373e565b929061027d565b600080fd5b346102b45760403660031901126102b457602435600435600052600660205260406000209081548110156102b4576102f091613059565b50805461022c60018301549261030860028201612f9b565b61035761031c600460038501549401612f9b565b91610346604051978897885260018060a01b038116602089015260ff604089019160a01c16612d1d565b60c0606087015260c0860190612e4b565b91608085015283820360a0850152612e4b565b346102b45760003660031901126102b4576020600254604051908152f35b346102b45760003660031901126102b45760206040517f0ce23c3e399818cfee81a7ab0880f714e53d7672b08df0fa62f2843416e1ea098152f35b346102b45760203660031901126102b4576004358060005260036020526040600020541561040857600052600360205260206008604060002001544211604051908152f35b60249060405190635111463960e01b82526004820152fd5b346102b45760603660031901126102b457610439612e35565b60243560078110156102b457610467906044359260018060a01b031660005260086020526040600020613041565b80548210156102b45760209161047c91612f3c565b90546040519160031b1c8152f35b346102b45760403660031901126102b4576104c96004356104a9612e1f565b908060005260006020526104c4600160406000200154613387565b613491565b005b346102b45760003660031901126102b457602060405160038152f35b346102b45760403660031901126102b4576004356024356001600160401b0381116102b45761051a903690600401612cc7565b90806000526020916003835260406000205415610610576105396136a6565b600082815260038085526040909120015460081c6001600160a01b0316331415806105ed575b6105ca5760008281526003845260409081902060048101805460ff60a01b1916600360a01b179055426008909101555183815233937f829301422b95cace95070352502ccf070715a62bd89f757f329f8d638c5f24cc9282916105c59190830190612e4b565b0390a3005b6040516337f6549360e01b815233600482015260248101839052604490fd5b0390fd5b506000805260008352604060002033600052835260ff604060002054161561055f565b604051635111463960e01b815260048101839052602490fd5b346102b45760003660031901126102b45760206040517f5520d115ceffb88f02315d646cd7618d18024f657afe794865243ed5b75fb04f8152f35b346102b45760203660031901126102b4576004356009548110156102b45761047c602091612f05565b346102b45760203660031901126102b457600435600052600360205260406000208054600182016106bd90612f9b565b916106ca60028201612f9b565b600382015460048301549060058401546006850154600160a01b60019003600787015416906008870154926009880161070290612f9b565b95600a89015498600b015460ff16976040519b8c9b8c528b6101c06020819201528c0161072e91612e4b565b8b810360408d015261073f91612e4b565b9561075060608c0160ff8316612f54565b60081c6001600160a01b0390811660808c0152811660a08b8101919091526107829160c08c019160ff91901c16612d1d565b60e08901526101008801526101208701526101408601528481036101608601526107ab91612e4b565b9161018084015215156101a08301520390f35b346102b45760403660031901126102b4576107d7612e35565b60243560078110156102b45761080861080d9161022c9360018060a01b031660005260086020526040600020613041565b61387e565b60405191829182612dc1565b346102b45760003660031901126102b457602060405160008152f35b346102b45760403660031901126102b45761084e612e1f565b600435600052600060205260406000209060018060a01b0316600052602052602060ff604060002054166040519015158152f35b346102b45760203660031901126102b4576004356001600160401b0381116102b45760206108b761092f923690600401612cc7565b60006101a06040516108c881612c54565b828152606085820152606060408201528260608201528260808201528260a08201528260c08201528260e082015282610100820152826101208201528261014082015260606101608201528261018082015201528160405193828580945193849201612dfc565b81016004815203019020548015610b23576000526003602052604060002060ff600b6040519261095e84612c54565b8054845261096e60018201612f9b565b602085015261097f60028201612f9b565b6040850152600381015461099884821660608701613624565b60081c6001600160a01b039081166080860152600482015490811660a0868101919091526109cd91901c841660c08601613630565b600581015460e0850152600681015461010085015260078101546001600160a01b03166101208501526008810154610140850152610a0d60098201612f9b565b610160850152600a81015461018085015201541615156101a0820152604051809160208252805160208301526101a0610b0a610a73610a5d60208501516101c060408801526101e0870190612e4b565b6040850151868203601f19016060880152612e4b565b610a8560608501516080870190612f54565b60018060a01b0360808501511660a086015260018060a01b0360a08501511660c0860152610abb60c085015160e0870190612d1d565b60e084015161010086015261010084015161012086015260018060a01b0361012085015116610140860152610140840151610160860152610160840151601f1986830301610180870152612e4b565b9161018081015182850152015115156101c08301520390f35b604051635111463960e01b815260006004820152602490fd5b346102b45760203660031901126102b4576001600160a01b03610b5d612e35565b16600052600560205261022c61080d604060002061387e565b346102b45760803660031901126102b457600460243510156102b4576044356001600160401b0381116102b457610bb1903690600401612cc7565b6064356001600160401b0381116102b457610bd0903690600401612cc7565b6004356000526003602052604060002054156110cc57610bee613075565b610bf66136a6565b60043560005260036020526040600020600481019060ff825460a01c166004811015611087576001146110b357610c326007926024359061363c565b42600682015501336001600160601b0360a01b825416179055600435600052600660205260406000209060405192610c6984612c70565b6004358452336020850152610c8360243560408601613630565b606084015242608084015260a08301528054600160401b811015610fac57610cb091600182018155613059565b91909161109d57805182556001820160018060a01b036020830151166001600160601b0360a01b8254161781556040820151600481101561108757610cf49161363c565b60608101518051906001600160401b038211610fac57610d176002850154612f61565b601f8111611040575b50602090601f8311600114610fcd5760a093929160009183610fc2575b50508160011b916000199060031b1c19161760028401555b6080810151600384015501518051906001600160401b038211610fac57610d7f6004840154612f61565b601f8111610f61575b50602090601f8311600114610ef3576004929160009183610ee8575b50508160011b916000199060031b1c1916179101555b6001602435148015610edc575b610e07575b604051610ddb81602435612d1d565b33907f4f86ed14bf987960daf8e054538e33bb0cecbf9d9664c56ef028ec8e24f4a9cf602060043592a3005b60005b600a805480831015610ed457610e1f83612ece565b60043591549060031b1c14610e3e575050610e399061372f565b610e0a565b60001992818401918211610ebe57610e68610e5b610e8193612ece565b90549060031b1c91612ece565b90919082549060031b91821b91600019901b1916179055565b80548015610ea857820191610e9583612ece565b909182549160031b1b1916905555610dcc565b634e487b7160e01b600052603160045260246000fd5b634e487b7160e01b600052601160045260246000fd5b505050610dcc565b50600260243514610dc7565b015190508480610da4565b90601f198316916004850160005260206000209260005b818110610f4957509160019391856004969410610f30575b505050811b01910155610dba565b015160001960f88460031b161c19169055848080610f22565b92936020600181928786015181550195019301610f0a565b600484016000526020600020601f840160051c81019160208510610fa2575b601f0160051c01905b818110610f965750610d88565b60008155600101610f89565b9091508190610f80565b634e487b7160e01b600052604160045260246000fd5b015190508580610d3d565b906002850160005260206000209160005b601f1985168110611028575091839160019360a09695601f1981161061100f575b505050811b016002840155610d55565b015160001960f88460031b161c19169055858080610fff565b91926020600181928685015181550194019201610fde565b600285016000526020600020601f840160051c810160208510611080575b601f830160051c82018110611074575050610d20565b6000815560010161105e565b508061105e565b634e487b7160e01b600052602160045260246000fd5b634e487b7160e01b600052600060045260246000fd5b602460405163199499b160e31b81526004356004820152fd5b6024604051635111463960e01b81526004356004820152fd5b346102b45760003660031901126102b4576110fe613263565b6111066136a6565b600160ff19815416176001557f62e78cea01bee320cd4e420270b5ea74000d11b0c9f74754ebdbfc544b05a2586020604051338152a1005b346102b4576020806003193601126102b4576004356001600160401b0381116102b45761116f903690600401612e70565b907f5520d115ceffb88f02315d646cd7618d18024f657afe794865243ed5b75fb04f8060005260008252604060002033600052825260ff604060002054161561125157506111bb6136a6565b60005b82518110156104c957806111d56111f9928561373e565b51806000526003845260406000208054151580611244575b6111fe575b505061372f565b6111be565b600401805460ff60a01b1916600360a01b1790556040514281527f047080ec3791f499cf48b67d5becb33d57185addb7bf5ff009b676b9c50f1099908590a284806111f2565b50600881015442116111ed565b9061125b33613516565b9160405161126881612c8b565b604281528281019160603684378151156113c7576030835381516001908110156113c757607860218401536041905b808211611383575050611340576113109361131f9260489260405196879376020b1b1b2b9b9a1b7b73a3937b61d1030b1b1b7bab73a1604d1b888601526112e7815180928a603789019101612dfc565b8401917001034b99036b4b9b9b4b733903937b6329607d1b603784015251809386840190612dfc565b01036028810185520183612ca6565b6105e960405192839262461bcd60e51b845260048401526024830190612e4b565b6064836040519062461bcd60e51b825280600483015260248201527f537472696e67733a20686578206c656e67746820696e73756666696369656e746044820152fd5b9091600f811660108110156113c7576f181899199a1a9b1b9c1cb0b131b232b360811b901a6113b28486613505565b5360041c918015610ebe576000190190611297565b634e487b7160e01b600052603260045260246000fd5b346102b45760203660031901126102b45760043580600052600360205260406000205415610408576000526003602052602060ff60046040600020015460a01c1661142b6040518092612d1d565bf35b346102b45760603660031901126102b4576001600160401b036024358181116102b45761145e903690600401612cc7565b60043590816000526003602090808252604060002054156117aa578360005280825260018060a01b03816040600020015460081c1633141580611787575b611768578251801590811561175d575b5061173a576114b96136a6565b8360005280825260406000209460405190600091600192838901918683546114e081612f61565b9087811690811561172557506001146116ec575b5081836004600095520301902055600a88019182546000526007865260406000209460ff19958681541690558751918211610fac576115338354612f61565b601f81116116a3575b5086601f8311600114611619579180600794927f20297096221fa45cf89de8bdcc534356afd5568db828d81dc1612863edcc115d9b9c9460009261160e575b5082881b92600019911b1c19161790555b6044358093556004810160ff60a01b19815416905560006006820155016001600160601b0360a01b815416905586604051858188516115ce8183858d01612dfc565b8101600481520301902055600052600783526040600020918254161790556115f584613660565b611609604051928284938452830190612e4b565b0390a2005b8b015191508d61157b565b908360005287600020916000601f198516905b81811061168e575092879285927f20297096221fa45cf89de8bdcc534356afd5568db828d81dc1612863edcc115d9d9e966007989610611674575b505050811b01905561158c565b8c01519060f884600019921b161c191690558c8080611667565b8b830151855593880193918a01918a0161162c565b8360005287600020601f840160051c8101918985106116e2575b601f0160051c019086905b8281106116d657505061153c565b600081550186906116c8565b90915081906116bd565b909192508360005281600020866000915b8383106117115750505082019190816114f4565b8054838701528a94909201918891016116fd565b60ff19168452508015150282019250816114f4565b506105e96040519283926304fd6bab60e01b845260048401526024830190612e4b565b6064915011866114ac565b6040516337f6549360e01b815233600482015260248101859052604490fd5b506000805260008252604060002033600052825260ff604060002054161561149c565b604051635111463960e01b815260048101859052602490fd5b346102b45760203660031901126102b4576004356000526007602052602060ff604060002054166040519015158152f35b346102b45760003660031901126102b457602060ff600154166040519015158152f35b346102b45760403660031901126102b457611830612e35565b6001600160a01b03166000908152600560205260409020805460243591908210156102b45760209161047c91612f3c565b346102b45760203660031901126102b457600435600a548110156102b45761047c602091612ece565b346102b4576003196060368201126102b4576001600160401b03906004358281116102b4576118bd903690600401612e70565b906024928335918183116102b457366023840112156102b4578260040135926118e584612d2a565b906118f36040519283612ca6565b848252602094878684019160051b830101913683116102b4578801905b828210611a715750505060449182358481116102b457611934903690600401612d41565b9061193d613075565b6119456136a6565b61195c875184518091149081611a66575b506136ea565b60005b87518110156104c957611972818961373e565b519061197e818661373e565b516004811015611a5157611992828661373e565b5192303b156102b45760406119d48d956119c4600095845198899663433363d160e11b88526004880152860190612d1d565b60808b8501526084840190612e4b565b712130ba31b4103b32b934b334b1b0ba34b7b760711b8c848303928984016064870152601281520152018183305af18015611a4557611a1d575b611a18915061372f565b61195f565b868211611a3057611a1891604052611a0e565b89634e487b7160e01b60005260416004526000fd5b6040513d6000823e3d90fd5b8a634e487b7160e01b60005260216004526000fd5b90508351148a611956565b813560048110156102b4578152908601908601611910565b346102b4576020806003193601126102b45760043580600052600390818352604060002054156104085782906000526006815260406000208054611acc81612d2a565b93611ada6040519586612ca6565b81855260009283528383208486019391845b848410611ba557604080518881528951818a01819052600092600582901b83018101918a918c9085015b828710611b235785850386f35b909192938280611b95600193603f198a8203018652885180518252858060a01b03848201511684830152611b5f60408201516040840190612d1d565b611b786060808301519060c08091860152840190612e4b565b916080808301519082015260a08092015191818403910152612e4b565b9601920196019592919092611b16565b60058760019260409a999a51611bba81612c70565b8654815284870154858060a01b03811684830152611be260ff60a092831c1660408401613630565b611bee60028901612f9b565b6060830152868801546080830152611c0860048901612f9b565b90820152815201930193019291969596611aec565b346102b45760003660031901126102b457611c36613263565b60015460ff811615611c755760ff19166001557f5db9ee0a495bf2e6ff9c91a7834c1ba4fdd244a5e8aa4e537bd38aeae4b073aa6020604051338152a1005b60405162461bcd60e51b815260206004820152601460248201527314185d5cd8589b194e881b9bdd081c185d5cd95960621b6044820152606490fd5b346102b45760003660031901126102b457611cca613075565b60405180600a5491828152602080910192600a6000527fc65a7bb8d6351c1cf70c95a316cc6a92839c986682d98bc35f958f4883f9d2a8916000905b828210611d1d5761022c8561080d81890382612ca6565b835486529485019460019384019390910190611d06565b346102b45760403660031901126102b457611d4d612e1f565b336001600160a01b03821603611d69576104c990600435613491565b60405162461bcd60e51b815260206004820152602f60248201527f416363657373436f6e74726f6c3a2063616e206f6e6c792072656e6f756e636560448201526e103937b632b9903337b91039b2b63360891b6064820152608490fd5b346102b45760003660031901126102b45760206040516301e133808152f35b346102b45760403660031901126102b457600435611e01612e1f565b816000526000602052611e1b600160406000200154613387565b81600052600060205260406000209060018060a01b0316908160005260205260ff6040600020541615611e4a57005b8160005260006020526040600020816000526020526040600020600160ff1982541617905533917f2f8788117e7eff1d82e926ec794901d17c78024a50270940304540a733656f0d600080a4005b346102b4576020806003193601126102b4576004359081600052600381526040600020541561061057816000526003815260018060a01b0360036040600020015460081c1633141580611f36575b6105ca57600390611ef56136a6565b8260005252600b604060002001600160ff1982541617905533907fa0c98bba4aa0997385d1dd18822ff969ae8b43e7a4b187e31812cf54691e6acd600080a3005b506000805260008152604060002033600052815260ff6040600020541615611ee6565b346102b45760203660031901126102b4576004356001600160401b0381116102b457611fa26020611f8f81933690600401612cc7565b8160405193828580945193849201612dfc565b8101600481520301902054604051908152f35b346102b45760203660031901126102b45760043560005260006020526020600160406000200154604051908152f35b346102b4576020806003193601126102b4576004359081600052600381526040600020541561061057816000526003815260018060a01b0360036040600020015460081c16331415806120bb575b6105ca576003906120416136a6565b82600052526004604060002001805460ff8160a01c166004811015611087576001146120a25760ff60a01b1916905561207981613660565b33907fa3cac7c72dca9bd0861f2c164c8f3b00e8a9db7c0539ea939c9db9bbda01afc6600080a3005b60405163199499b160e31b815260048101849052602490fd5b506000805260008152604060002033600052815260ff6040600020541615612032565b346102b45760c03660031901126102b4576004356001600160401b0381116102b45761210e903690600401612cc7565b6024356001600160401b0381116102b45761212d903690600401612cc7565b600760443510156102b4576064356001600160401b0381116102b457612157903690600401612cc7565b9060a43580151581036102b45783518015908115612838575b506128165761217d6136a6565b60405160208186516121928183858b01612dfc565b81016004815203019020546127f457608435600052600760205260ff604060002054166127ae5760016002540192836002556301e1338042014211610ebe57604051926121de84612c54565b84845285602085015260408401526121fb60443560608501613624565b3360808401523360a0840152600060c08401524260e0840152600061010084015260006101208401526301e13380420161014084015261016083015260843561018083015215156101a082015281600052600360205260406000208151815560208201518051906001600160401b038211610fac57819061227f6001850154612f61565b601f811161275b575b50602090601f83116001146126e9576000926126de575b50508160011b916000199060031b1c19161760018201555b60408201518051906001600160401b038211610fac5781906122dc6002850154612f61565b601f811161268b575b50602090601f83116001146126195760009261260e575b50508160011b916000199060031b1c19161760028201555b60608201516007811015611087576003820180546080850151610100600160a81b0360089190911b1660ff939093166001600160a81b03199091161791909117905560a0820151600480830180546001600160a01b039384166001600160a01b031991821617825560c08601519092811015611087576123939161363c565b60e0840151600584015561010084015160068401556007830191610120850151169082541617905561014082015160088201556101608201518051906001600160401b038211610fac576123ea6009840154612f61565b601f81116125c7575b50602090601f83116001146125535791806101a09492600b94600092612548575b50508160011b916000199060031b1c19161760098201555b610180840151600a8201550191015115159060ff199160ff8383541691161790558160405160208186516124638183858b01612dfc565b8101600481520301902055336000526005602052612485826040600020613683565b3360005260086020526124a7826124a26044356040600020613041565b613683565b60843560005260076020526001604060002091825416179055600954600160401b811015610fac576020926124e983610e688460016125059601600955612f05565b6124f283613660565b8360405192828480945193849201612dfc565b81010390206040519061251a82604435612f54565b827f5295d24893803eec81cae7aa1ec32ec5bb5eb5cbdfdfe107773a1bedc1277154853394a4604051908152f35b015190508880612414565b90601f198316916009850160005260206000209260005b8181106125af5750926001928592600b966101a0989610612596575b505050811b01600982015561242c565b015160001960f88460031b161c19169055888080612586565b9293602060018192878601518155019501930161256a565b600984016000526020600020601f840160051c810160208510612607575b601f830160051c820181106125fb5750506123f3565b600081556001016125e5565b50806125e5565b0151905086806122fc565b9250600284016000526020600020906000935b601f1984168510612670576001945083601f19811610612657575b505050811b016002820155612314565b015160001960f88460031b161c19169055868080612647565b8181015183556020948501946001909301929091019061262c565b909150600284016000526020600020601f840160051c8101602085106126d7575b90849392915b601f830160051c820181106126c85750506122e5565b600081558594506001016126b2565b50806126ac565b01519050868061229f565b9250600184016000526020600020906000935b601f1984168510612740576001945083601f19811610612727575b505050811b0160018201556122b7565b015160001960f88460031b161c19169055868080612717565b818101518355602094850194600190930192909101906126fc565b909150600184016000526020600020601f840160051c8101602085106127a7575b90849392915b601f830160051c82018110612798575050612288565b60008155859450600101612782565b508061277c565b604051630526ac3160e31b815260206004820152601b60248201527f436f6e74656e74206861736820616c72656164792065786973747300000000006044820152606490fd5b604051630526ac3160e31b815260206004820152806105e96024820187612e4b565b6040516304fd6bab60e01b815260206004820152806105e96024820187612e4b565b606491501185612170565b346102b45760c03660031901126102b4576001600160401b036004358181116102b457612874903690600401612d41565b6024358281116102b45761288c903690600401612d41565b604435928084116102b457366023850112156102b45783600401356128b081612d2a565b946128be6040519687612ca6565b8186526024602087019260051b820101903682116102b457602401915b818310612b89575050506064358181116102b4576128fd903690600401612d41565b90608435908082116102b457366023830112156102b45781600401359161292383612d2a565b926129316040519485612ca6565b8084526024602085019160051b830101913683116102b457602401905b828210612b795750505060a435116102b45736602360a4350112156102b45760a435600401359261297e84612d2a565b9361298c6040519586612ca6565b80855260208501903660248260051b60a4350101116102b457602460a43501915b60248260051b60a43501018310612b5e575050506129c96136a6565b845181518091149081612b53575b5080612b48575b80612b3d575b80612b32575b6129f3906136ea565b6129fd85516138cd565b9360005b8651811015612b2457612a14818861373e565b5190612a20818561373e565b5191612a2c828b61373e565b51600781101561108757602091612a8e91612a47858b61373e565b51612abc612a55878c61373e565b5192612a61888b61373e565b51151592612aab612aa06040519b8c998a996303ab6cbf60e01b8b5260c060048c015260c48b0190612e4b565b8981036003190160248b015290612e4b565b926044880190612f54565b858203600319016064870152612e4b565b91608484015260a483015203816000305af18015611a4557600090612af0575b612aeb9250610249828961373e565b612a01565b506020823d602011612b1c575b81612b0a60209383612ca6565b810103126102b457612aeb9151612adc565b3d9150612afd565b6040518061022c8882612dc1565b5081518451146129ea565b5082518251146129e4565b5085518351146129de565b9050865114876129d7565b823515158335036102b45782358152602092830192016129ad565b813581526020918201910161294e565b823560078110156102b4578152602092830192016128db565b346102b45760203660031901126102b45760043563ffffffff60e01b81168091036102b457602090637965db0b60e01b8114908115612be7575b506040519015158152f35b6301ffc9a760e01b14905082612bdc565b346102b45760403660031901126102b4576004356001600160401b0381116102b45761142b612c39612c306060933690600401612cc7565b60243590613752565b90604093929351931515845260208401526040830190612d1d565b6101c081019081106001600160401b03821117610fac57604052565b60c081019081106001600160401b03821117610fac57604052565b608081019081106001600160401b03821117610fac57604052565b90601f801991011681019081106001600160401b03821117610fac57604052565b81601f820112156102b4578035906001600160401b038211610fac5760405192612cfb601f8401601f191660200185612ca6565b828452602083830101116102b457816000926020809301838601378301015290565b9060048210156110875752565b6001600160401b038111610fac5760051b60200190565b9080601f830112156102b457813590612d5982612d2a565b92612d676040519485612ca6565b828452602092838086019160051b830101928084116102b457848301915b848310612d955750505050505090565b82356001600160401b0381116102b4578691612db684848094890101612cc7565b815201920191612d85565b6020908160408183019282815285518094520193019160005b828110612de8575050505090565b835185529381019392810192600101612dda565b60005b838110612e0f5750506000910152565b8181015183820152602001612dff565b602435906001600160a01b03821682036102b457565b600435906001600160a01b03821682036102b457565b90602091612e6481518092818552858086019101612dfc565b601f01601f1916010190565b81601f820112156102b457803591612e8783612d2a565b92612e956040519485612ca6565b808452602092838086019260051b8201019283116102b4578301905b828210612ebf575050505090565b81358152908301908301612eb1565b600a548110156113c757600a6000527fc65a7bb8d6351c1cf70c95a316cc6a92839c986682d98bc35f958f4883f9d2a80190600090565b6009548110156113c75760096000527f6e1540171b6c0c960b71a7020d9f60077f6af931a8bbf590da0223dacf75c7af0190600090565b80548210156113c75760005260206000200190600090565b9060078210156110875752565b90600182811c92168015612f91575b6020831014612f7b57565b634e487b7160e01b600052602260045260246000fd5b91607f1691612f70565b9060405191826000825492612faf84612f61565b90818452600194858116908160001461301e5750600114612fdb575b5050612fd992500383612ca6565b565b9093915060005260209081600020936000915b818310613006575050612fd993508201013880612fcb565b85548884018501529485019487945091830191612fee565b915050612fd994506020925060ff191682840152151560051b8201013880612fcb565b90600781101561108757600052602052604060002090565b80548210156113c7576000526005602060002091020190600090565b3360009081527f1da0b5176dfe03406af5a6eed66ca01dda9b45ac4da671c3fa379cb93717ef81602090815260408083205490927f0ce23c3e399818cfee81a7ab0880f714e53d7672b08df0fa62f2843416e1ea099160ff16156130d95750505050565b6130e233613516565b918451906130ef82612c8b565b6042825284820192606036853782511561324f576030845382519060019182101561324f5790607860218501536041915b8183116131e15750505061319f5760486105e993869361318393613174985198899376020b1b1b2b9b9a1b7b73a3937b61d1030b1b1b7bab73a1604d1b8a8601526112e7815180928c603789019101612dfc565b01036028810187520185612ca6565b5192839262461bcd60e51b845260048401526024830190612e4b565b60648486519062461bcd60e51b825280600483015260248201527f537472696e67733a20686578206c656e67746820696e73756666696369656e746044820152fd5b909192600f8116601081101561323b576f181899199a1a9b1b9c1cb0b131b232b360811b901a6132118587613505565b5360041c92801561322757600019019190613120565b634e487b7160e01b82526011600452602482fd5b634e487b7160e01b83526032600452602483fd5b634e487b7160e01b81526032600452602490fd5b3360009081527fad3228b676f7d3cd4284a5443f17f1962b36e491b30a40b2405849e597ba5fb5602090815260408083205490929060ff16156132a557505050565b6132ae33613516565b90808451906132bc82612c8b565b6042825284820192606036853782511561324f576030845382519060019182101561324f5790607860218501536041915b8183116133415750505061319f5760486105e993869361318393613174985198899376020b1b1b2b9b9a1b7b73a3937b61d1030b1b1b7bab73a1604d1b8a8601526112e7815180928c603789019101612dfc565b909192600f8116601081101561323b576f181899199a1a9b1b9c1cb0b131b232b360811b901a6133718587613505565b5360041c928015613227576000190191906132ed565b600090808252602090828252604092838120338252835260ff8482205416156133b05750505050565b6133b933613516565b918451906133c682612c8b565b6042825284820192606036853782511561324f576030845382519060019182101561324f5790607860218501536041915b81831161344b5750505061319f5760486105e993869361318393613174985198899376020b1b1b2b9b9a1b7b73a3937b61d1030b1b1b7bab73a1604d1b8a8601526112e7815180928c603789019101612dfc565b909192600f8116601081101561323b576f181899199a1a9b1b9c1cb0b131b232b360811b901a61347b8587613505565b5360041c928015613227576000190191906133f7565b9060009180835282602052604083209160018060a01b03169182845260205260ff6040842054166134c157505050565b80835282602052604083208284526020526040832060ff1981541690557ff6391f5c32d9c69d2a47ea670b442974b53935d1edc7fd64eb21e047a839171b339380a4565b9081518110156113c7570160200190565b60405190606082018281106001600160401b03821117610fac57604052602a82526020820160403682378251156113c7576030905381516001908110156113c757607860218401536029905b8082116135b65750506135725790565b606460405162461bcd60e51b815260206004820152602060248201527f537472696e67733a20686578206c656e67746820696e73756666696369656e746044820152fd5b9091600f8116601081101561360f576f181899199a1a9b1b9c1cb0b131b232b360811b901a6135e58486613505565b5360041c9180156135fa576000190190613562565b60246000634e487b7160e01b81526011600452fd5b60246000634e487b7160e01b81526032600452fd5b60078210156110875752565b60048210156110875752565b90600481101561108757815460ff60a01b191660a09190911b60ff60a01b16179055565b600a5490600160401b821015610fac57610e68826001612fd99401600a55612ece565b90815491600160401b831015610fac5782610e68916001612fd995018155612f3c565b60ff600154166136b257565b60405162461bcd60e51b815260206004820152601060248201526f14185d5cd8589b194e881c185d5cd95960821b6044820152606490fd5b156136f157565b60405162461bcd60e51b8152602060048201526016602482015275082e4e4c2f240d8cadccee8d0e640dad2e6dac2e8c6d60531b6044820152606490fd5b6000198114610ebe5760010190565b80518210156113c75760209160051b010190565b602061376b918160405193828580945193849201612dfc565b81016004815203019020549182156138735782600052600360205260406000209160405161379881612c54565b835481526137a860018501612f9b565b60208201526137b960028501612f9b565b60408201526003840154906137d460ff831660608301613624565b60018060a01b03809260081c16608082015260048501549180831660a083015261380860ff60c084019460a01c1684613630565b600586015460e08301526006860154610100830152600786015416610120820152600885015461014082015261384060098601612f9b565b6101608201526101a060ff600b600a88015497886101808601520154161515910152519260048410156110875714929190565b600092508291508190565b9060405191828154918282526020928383019160005283600020936000905b8282106138b357505050612fd992500383612ca6565b85548452600195860195889550938101939091019061389d565b906138d782612d2a565b6138e46040519182612ca6565b82815280926138f5601f1991612d2a565b019060203691013756fea26469706673582212209617d43a05d3577d8cf9e2e4c1f3440c88113fa3e8024b2a74a63093769bbaf464736f6c634300081300332f8788117e7eff1d82e926ec794901d17c78024a50270940304540a733656f0d",
  "immutableReferences": {},
  "source": "// SPDX-License-Identifier: MIT\r\npragma solidity ^0.8.19;\r\n\r\nimport \"@openzeppelin/contracts/access/AccessControl.sol\";\r\nimport \"@openzeppelin/contracts/security/Pausable.sol\";\r\nimport \"@openzeppelin/contracts/utils/Counters.sol\";\r\n\r\n/**\r\n * @title DocumentVerification\r\n * @dev Advanced document verification system using IPFS hashes\r\n * @notice Manages document authenticity and tamper-proof storage\r\n */\r\ncontract DocumentVerification is AccessControl, Pausable {\r\n    using Counters for Counters.Counter;\r\n\r\n    bytes32 public constant VERIFIER_ROLE = keccak256(\"VERIFIER_ROLE\");\r\n    bytes32 public constant DOCUMENT_MANAGER_ROLE =\r\n        keccak256(\"DOCUMENT_MANAGER_ROLE\");\r\n\r\n    Counters.Counter private _documentIds;\r\n\r\n    // Custom errors\r\n    error DocumentNotFound(uint256 documentId);\r\n    error InvalidIPFSHash(string ipfsHash);\r\n    error DocumentAlreadyExists(string ipfsHash);\r\n    error UnauthorizedDocumentAccess(address caller, uint256 documentId);\r\n    error DocumentAlreadyVerified(uint256 documentId);\r\n    error InvalidDocumentType(string documentType);\r\n\r\n    enum DocumentType {\r\n        PropertyDeed,\r\n        IdentityProof,\r\n        AddressProof,\r\n        TaxReceipt,\r\n        SurveyDocument,\r\n        LegalClearance,\r\n        Other\r\n    }\r\n\r\n    enum VerificationStatus {\r\n        Pending,\r\n        Verified,\r\n        Rejected,\r\n        Expired\r\n    }\r\n\r\n    struct Document {\r\n        uint256 id;\r\n        string ipfsHash;\r\n        string fileName;\r\n        DocumentType docType;\r\n        address owner;\r\n        address uploader;\r\n        VerificationStatus status;\r\n        uint256 uploadedAt;\r\n        uint256 verifiedAt;\r\n        address verifiedBy;\r\n        uint256 expiresAt;\r\n        string metadata;\r\n        bytes32 contentHash;\r\n        bool isPublic;\r\n    }\r\n\r\n    struct VerificationRecord {\r\n        uint256 documentId;\r\n        address verifier;\r\n        VerificationStatus status;\r\n        string comments;\r\n        uint256 timestamp;\r\n        string verificationMethod;\r\n    }\r\n\r\n    // Mappings\r\n    mapping(uint256 => Document) public documents;\r\n    mapping(string => uint256) public ipfsHashToDocumentId;\r\n    mapping(address => uint256[]) public userDocuments;\r\n    mapping(uint256 => VerificationRecord[]) public verificationHistory;\r\n    mapping(bytes32 => bool) public contentHashExists;\r\n    mapping(address => mapping(DocumentType => uint256[]))\r\n        public userDocumentsByType;\r\n\r\n    // Arrays for enumeration\r\n    uint256[] public allDocuments;\r\n    uint256[] public pendingVerifications;\r\n\r\n    // Constants\r\n    uint256 public constant DOCUMENT_VALIDITY_PERIOD = 365 days;\r\n    uint256 public constant MAX_VERIFICATION_ATTEMPTS = 3;\r\n\r\n    // Events\r\n    event DocumentUploaded(\r\n        uint256 indexed documentId,\r\n        string indexed ipfsHash,\r\n        address indexed owner,\r\n        DocumentType docType\r\n    );\r\n    event DocumentVerified(\r\n        uint256 indexed documentId,\r\n        address indexed verifier,\r\n        VerificationStatus status\r\n    );\r\n    event DocumentExpired(uint256 indexed documentId, uint256 expiredAt);\r\n    event DocumentUpdated(uint256 indexed documentId, string newIpfsHash);\r\n    event VerificationRequested(\r\n        uint256 indexed documentId,\r\n        address indexed requester\r\n    );\r\n    event DocumentMadePublic(uint256 indexed documentId, address indexed owner);\r\n    event DocumentRevoked(\r\n        uint256 indexed documentId,\r\n        address indexed revoker,\r\n        string reason\r\n    );\r\n\r\n    constructor() {\r\n        _grantRole(DEFAULT_ADMIN_ROLE, msg.sender);\r\n        _grantRole(VERIFIER_ROLE, msg.sender);\r\n        _grantRole(DOCUMENT_MANAGER_ROLE, msg.sender);\r\n    }\r\n\r\n    modifier documentExists(uint256 documentId) {\r\n        if (documents[documentId].id == 0) {\r\n            revert DocumentNotFound(documentId);\r\n        }\r\n        _;\r\n    }\r\n\r\n    modifier onlyDocumentOwner(uint256 documentId) {\r\n        if (\r\n            documents[documentId].owner != msg.sender &&\r\n            !hasRole(DEFAULT_ADMIN_ROLE, msg.sender)\r\n        ) {\r\n            revert UnauthorizedDocumentAccess(msg.sender, documentId);\r\n        }\r\n        _;\r\n    }\r\n\r\n    modifier validIPFSHash(string memory ipfsHash) {\r\n        if (bytes(ipfsHash).length == 0 || bytes(ipfsHash).length > 100) {\r\n            revert InvalidIPFSHash(ipfsHash);\r\n        }\r\n        _;\r\n    }\r\n\r\n    /**\r\n     * @dev Upload a new document to the system\r\n     */\r\n    function uploadDocument(\r\n        string memory _ipfsHash,\r\n        string memory _fileName,\r\n        DocumentType _docType,\r\n        string memory _metadata,\r\n        bytes32 _contentHash,\r\n        bool _isPublic\r\n    ) external validIPFSHash(_ipfsHash) whenNotPaused returns (uint256) {\r\n        // Check if document already exists\r\n        if (ipfsHashToDocumentId[_ipfsHash] != 0) {\r\n            revert DocumentAlreadyExists(_ipfsHash);\r\n        }\r\n        if (contentHashExists[_contentHash]) {\r\n            revert DocumentAlreadyExists(\"Content hash already exists\");\r\n        }\r\n\r\n        _documentIds.increment();\r\n        uint256 newDocumentId = _documentIds.current();\r\n\r\n        documents[newDocumentId] = Document({\r\n            id: newDocumentId,\r\n            ipfsHash: _ipfsHash,\r\n            fileName: _fileName,\r\n            docType: _docType,\r\n            owner: msg.sender,\r\n            uploader: msg.sender,\r\n            status: VerificationStatus.Pending,\r\n            uploadedAt: block.timestamp,\r\n            verifiedAt: 0,\r\n            verifiedBy: address(0),\r\n            expiresAt: block.timestamp + DOCUMENT_VALIDITY_PERIOD,\r\n            metadata: _metadata,\r\n            contentHash: _contentHash,\r\n            isPublic: _isPublic\r\n        });\r\n\r\n        // Update mappings\r\n        ipfsHashToDocumentId[_ipfsHash] = newDocumentId;\r\n        userDocuments[msg.sender].push(newDocumentId);\r\n        userDocumentsByType[msg.sender][_docType].push(newDocumentId);\r\n        contentHashExists[_contentHash] = true;\r\n        allDocuments.push(newDocumentId);\r\n        pendingVerifications.push(newDocumentId);\r\n\r\n        emit DocumentUploaded(newDocumentId, _ipfsHash, msg.sender, _docType);\r\n        return newDocumentId;\r\n    }\r\n\r\n    /**\r\n     * @dev Verify a document\r\n     */\r\n    function verifyDocument(\r\n        uint256 _documentId,\r\n        VerificationStatus _status,\r\n        string memory _comments,\r\n        string memory _verificationMethod\r\n    )\r\n        external\r\n        documentExists(_documentId)\r\n        onlyRole(VERIFIER_ROLE)\r\n        whenNotPaused\r\n    {\r\n        Document storage doc = documents[_documentId];\r\n\r\n        if (doc.status == VerificationStatus.Verified) {\r\n            revert DocumentAlreadyVerified(_documentId);\r\n        }\r\n\r\n        // Update document status\r\n        doc.status = _status;\r\n        doc.verifiedAt = block.timestamp;\r\n        doc.verifiedBy = msg.sender;\r\n\r\n        // Add to verification history\r\n        verificationHistory[_documentId].push(\r\n            VerificationRecord({\r\n                documentId: _documentId,\r\n                verifier: msg.sender,\r\n                status: _status,\r\n                comments: _comments,\r\n                timestamp: block.timestamp,\r\n                verificationMethod: _verificationMethod\r\n            })\r\n        );\r\n\r\n        // Remove from pending if verified or rejected\r\n        if (\r\n            _status == VerificationStatus.Verified ||\r\n            _status == VerificationStatus.Rejected\r\n        ) {\r\n            _removePendingVerification(_documentId);\r\n        }\r\n\r\n        emit DocumentVerified(_documentId, msg.sender, _status);\r\n    }\r\n\r\n    /**\r\n     * @dev Batch verify multiple documents\r\n     */\r\n    function batchVerifyDocuments(\r\n        uint256[] memory documentIds,\r\n        VerificationStatus[] memory _statuses,\r\n        string[] memory _comments\r\n    ) external onlyRole(VERIFIER_ROLE) whenNotPaused {\r\n        require(\r\n            documentIds.length == _statuses.length &&\r\n                _statuses.length == _comments.length,\r\n            \"Array lengths mismatch\"\r\n        );\r\n\r\n        for (uint256 i = 0; i < documentIds.length; i++) {\r\n            this.verifyDocument(\r\n                documentIds[i],\r\n                _statuses[i],\r\n                _comments[i],\r\n                \"Batch verification\"\r\n            );\r\n        }\r\n    }\r\n\r\n    /**\r\n     * @dev Update document IPFS hash (for document revisions)\r\n     */\r\n    function updateDocument(\r\n        uint256 _documentId,\r\n        string memory _newIpfsHash,\r\n        bytes32 _newContentHash\r\n    )\r\n        external\r\n        documentExists(_documentId)\r\n        onlyDocumentOwner(_documentId)\r\n        validIPFSHash(_newIpfsHash)\r\n        whenNotPaused\r\n    {\r\n        Document storage doc = documents[_documentId];\r\n\r\n        // Remove old hash mapping\r\n        delete ipfsHashToDocumentId[doc.ipfsHash];\r\n        delete contentHashExists[doc.contentHash];\r\n\r\n        // Update with new hash\r\n        doc.ipfsHash = _newIpfsHash;\r\n        doc.contentHash = _newContentHash;\r\n        doc.status = VerificationStatus.Pending; // Reset verification status\r\n        doc.verifiedAt = 0;\r\n        doc.verifiedBy = address(0);\r\n\r\n        // Update mappings\r\n        ipfsHashToDocumentId[_newIpfsHash] = _documentId;\r\n        contentHashExists[_newContentHash] = true;\r\n        pendingVerifications.push(_documentId);\r\n\r\n        emit DocumentUpdated(_documentId, _newIpfsHash);\r\n    }\r\n\r\n    /**\r\n     * @dev Request verification for a document\r\n     */\r\n    function requestVerification(\r\n        uint256 _documentId\r\n    )\r\n        external\r\n        documentExists(_documentId)\r\n        onlyDocumentOwner(_documentId)\r\n        whenNotPaused\r\n    {\r\n        Document storage doc = documents[_documentId];\r\n\r\n        if (doc.status == VerificationStatus.Verified) {\r\n            revert DocumentAlreadyVerified(_documentId);\r\n        }\r\n\r\n        doc.status = VerificationStatus.Pending;\r\n        pendingVerifications.push(_documentId);\r\n\r\n        emit VerificationRequested(_documentId, msg.sender);\r\n    }\r\n\r\n    /**\r\n     * @dev Make document public for transparency\r\n     */\r\n    function makeDocumentPublic(\r\n        uint256 _documentId\r\n    )\r\n        external\r\n        documentExists(_documentId)\r\n        onlyDocumentOwner(_documentId)\r\n        whenNotPaused\r\n    {\r\n        documents[_documentId].isPublic = true;\r\n        emit DocumentMadePublic(_documentId, msg.sender);\r\n    }\r\n\r\n    /**\r\n     * @dev Revoke a document\r\n     */\r\n    function revokeDocument(\r\n        uint256 _documentId,\r\n        string memory _reason\r\n    ) external documentExists(_documentId) whenNotPaused {\r\n        // Only owner or admin can revoke\r\n        if (\r\n            documents[_documentId].owner != msg.sender &&\r\n            !hasRole(DEFAULT_ADMIN_ROLE, msg.sender)\r\n        ) {\r\n            revert UnauthorizedDocumentAccess(msg.sender, _documentId);\r\n        }\r\n\r\n        documents[_documentId].status = VerificationStatus.Expired;\r\n        documents[_documentId].expiresAt = block.timestamp;\r\n\r\n        emit DocumentRevoked(_documentId, msg.sender, _reason);\r\n    }\r\n\r\n    /**\r\n     * @dev Handle expired documents\r\n     */\r\n    function handleExpiredDocuments(\r\n        uint256[] memory documentIds\r\n    ) external onlyRole(DOCUMENT_MANAGER_ROLE) whenNotPaused {\r\n        for (uint256 i = 0; i < documentIds.length; i++) {\r\n            uint256 docId = documentIds[i];\r\n            if (\r\n                documents[docId].id != 0 &&\r\n                block.timestamp > documents[docId].expiresAt\r\n            ) {\r\n                documents[docId].status = VerificationStatus.Expired;\r\n                emit DocumentExpired(docId, block.timestamp);\r\n            }\r\n        }\r\n    }\r\n\r\n    /**\r\n     * @dev Verify document authenticity using IPFS hash\r\n     */\r\n    function verifyDocumentAuthenticity(\r\n        string memory _ipfsHash,\r\n        bytes32 _contentHash\r\n    )\r\n        external\r\n        view\r\n        returns (\r\n            bool isAuthentic,\r\n            uint256 documentId,\r\n            VerificationStatus status\r\n        )\r\n    {\r\n        documentId = ipfsHashToDocumentId[_ipfsHash];\r\n        if (documentId == 0) {\r\n            return (false, 0, VerificationStatus.Pending);\r\n        }\r\n\r\n        Document memory doc = documents[documentId];\r\n        isAuthentic = (doc.contentHash == _contentHash);\r\n        status = doc.status;\r\n\r\n        return (isAuthentic, documentId, status);\r\n    }\r\n\r\n    /**\r\n     * @dev Get document by IPFS hash\r\n     */\r\n    function getDocumentByIPFS(\r\n        string memory _ipfsHash\r\n    ) external view returns (Document memory) {\r\n        uint256 docId = ipfsHashToDocumentId[_ipfsHash];\r\n        if (docId == 0) {\r\n            revert DocumentNotFound(0);\r\n        }\r\n        return documents[docId];\r\n    }\r\n\r\n    /**\r\n     * @dev Get user's documents by type\r\n     */\r\n    function getUserDocumentsByType(\r\n        address _user,\r\n        DocumentType _docType\r\n    ) external view returns (uint256[] memory) {\r\n        return userDocumentsByType[_user][_docType];\r\n    }\r\n\r\n    /**\r\n     * @dev Get verification history for a document\r\n     */\r\n    function getVerificationHistory(\r\n        uint256 _documentId\r\n    )\r\n        external\r\n        view\r\n        documentExists(_documentId)\r\n        returns (VerificationRecord[] memory)\r\n    {\r\n        return verificationHistory[_documentId];\r\n    }\r\n\r\n    /**\r\n     * @dev Get pending verifications\r\n     */\r\n    function getPendingVerifications()\r\n        external\r\n        view\r\n        onlyRole(VERIFIER_ROLE)\r\n        returns (uint256[] memory)\r\n    {\r\n        return pendingVerifications;\r\n    }\r\n\r\n    /**\r\n     * @dev Get user's documents\r\n     */\r\n    function getUserDocuments(\r\n        address _user\r\n    ) external view returns (uint256[] memory) {\r\n        return userDocuments[_user];\r\n    }\r\n\r\n    /**\r\n     * @dev Get all public documents\r\n     */\r\n    function getPublicDocuments() external view returns (uint256[] memory) {\r\n        uint256[] memory publicDocs = new uint256[](allDocuments.length);\r\n        uint256 count = 0;\r\n\r\n        for (uint256 i = 0; i < allDocuments.length; i++) {\r\n            if (documents[allDocuments[i]].isPublic) {\r\n                publicDocs[count] = allDocuments[i];\r\n                count++;\r\n            }\r\n        }\r\n\r\n        // Resize array\r\n        uint256[] memory result = new uint256[](count);\r\n        for (uint256 i = 0; i < count; i++) {\r\n            result[i] = publicDocs[i];\r\n        }\r\n\r\n        return result;\r\n    }\r\n\r\n    /**\r\n     * @dev Check if document is expired\r\n     */\r\n    function isDocumentExpired(\r\n        uint256 _documentId\r\n    ) external view documentExists(_documentId) returns (bool) {\r\n        return block.timestamp > documents[_documentId].expiresAt;\r\n    }\r\n\r\n    /**\r\n     * @dev Get document verification status\r\n     */\r\n    function getDocumentStatus(\r\n        uint256 _documentId\r\n    ) external view documentExists(_documentId) returns (VerificationStatus) {\r\n        return documents[_documentId].status;\r\n    }\r\n\r\n    /**\r\n     * @dev Get total documents count\r\n     */\r\n    function getTotalDocuments() external view returns (uint256) {\r\n        return _documentIds.current();\r\n    }\r\n\r\n    /**\r\n     * @dev Internal function to remove from pending verifications\r\n     */\r\n    function _removePendingVerification(uint256 _documentId) internal {\r\n        for (uint256 i = 0; i < pendingVerifications.length; i++) {\r\n            if (pendingVerifications[i] == _documentId) {\r\n                pendingVerifications[i] = pendingVerifications[\r\n                    pendingVerifications.length - 1\r\n                ];\r\n                pendingVerifications.pop();\r\n                break;\r\n            }\r\n        }\r\n    }\r\n\r\n    /**\r\n     * @dev Emergency functions\r\n     */\r\n    function pause() external onlyRole(DEFAULT_ADMIN_ROLE) {\r\n        _pause();\r\n    }\r\n\r\n    function unpause() external onlyRole(DEFAULT_ADMIN_ROLE) {\r\n        _unpause();\r\n    }\r\n\r\n    /**\r\n     * @dev Bulk document operations for efficiency\r\n     */\r\n    function bulkUploadDocuments(\r\n        string[] memory ipfsHashes,\r\n        string[] memory fileNames,\r\n        DocumentType[] memory docTypes,\r\n        string[] memory metadatas,\r\n        bytes32[] memory contentHashes,\r\n        bool[] memory isPublics\r\n    ) external whenNotPaused returns (uint256[] memory) {\r\n        require(\r\n            ipfsHashes.length == fileNames.length &&\r\n                fileNames.length == docTypes.length &&\r\n                docTypes.length == metadatas.length &&\r\n                metadatas.length == contentHashes.length &&\r\n                contentHashes.length == isPublics.length,\r\n            \"Array lengths mismatch\"\r\n        );\r\n\r\n        uint256[] memory documentIds = new uint256[](ipfsHashes.length);\r\n\r\n        for (uint256 i = 0; i < ipfsHashes.length; i++) {\r\n            documentIds[i] = this.uploadDocument(\r\n                ipfsHashes[i],\r\n                fileNames[i],\r\n                docTypes[i],\r\n                metadatas[i],\r\n                contentHashes[i],\r\n                isPublics[i]\r\n            );\r\n        }\r\n\r\n        return documentIds;\r\n    }\r\n}\r\n",
  "sourcePath": "C:\\Users\\jayan\\Desktop\\LandLedger\\LandLedger\\contracts\\DocumentVerification.sol",
  "compiler": {
    "name": "solc",
    "version": "0.8.19+commit.7dd6d404.Emscripten.clang"
  },
  "schemaVersion": "3.4.16",
  "updatedAt": "2025-08-22T03:53:40.247Z",
  "devdoc": {
    "details": "Advanced document verification system using IPFS hashes",
    "events": {
      "Paused(address)": {
        "details": "Emitted when the pause is triggered by `account`."
      },
      "RoleAdminChanged(bytes32,bytes32,bytes32)": {
        "details": "Emitted when `newAdminRole` is set as ``role``'s admin role, replacing `previousAdminRole` `DEFAULT_ADMIN_ROLE` is the starting admin for all roles, despite {RoleAdminChanged} not being emitted signaling this. _Available since v3.1._"
      },
      "RoleGranted(bytes32,address,address)": {
        "details": "Emitted when `account` is granted `role`. `sender` is the account that originated the contract call, an admin role bearer except when using {AccessControl-_setupRole}."
      },
      "RoleRevoked(bytes32,address,address)": {
        "details": "Emitted when `account` is revoked `role`. `sender` is the account that originated the contract call:   - if using `revokeRole`, it is the admin role bearer   - if using `renounceRole`, it is the role bearer (i.e. `account`)"
      },
      "Unpaused(address)": {
        "details": "Emitted when the pause is lifted by `account`."
      }
    },
    "kind": "dev",
    "methods": {
      "batchVerifyDocuments(uint256[],uint8[],string[])": {
        "details": "Batch verify multiple documents"
      },
      "bulkUploadDocuments(string[],string[],uint8[],string[],bytes32[],bool[])": {
        "details": "Bulk document operations for efficiency"
      },
      "getDocumentByIPFS(string)": {
        "details": "Get document by IPFS hash"
      },
      "getDocumentStatus(uint256)": {
        "details": "Get document verification status"
      },
      "getPendingVerifications()": {
        "details": "Get pending verifications"
      },
      "getPublicDocuments()": {
        "details": "Get all public documents"
      },
      "getRoleAdmin(bytes32)": {
        "details": "Returns the admin role that controls `role`. See {grantRole} and {revokeRole}. To change a role's admin, use {_setRoleAdmin}."
      },
      "getTotalDocuments()": {
        "details": "Get total documents count"
      },
      "getUserDocuments(address)": {
        "details": "Get user's documents"
      },
      "getUserDocumentsByType(address,uint8)": {
        "details": "Get user's documents by type"
      },
      "getVerificationHistory(uint256)": {
        "details": "Get verification history for a document"
      },
      "grantRole(bytes32,address)": {
        "details": "Grants `role` to `account`. If `account` had not been already granted `role`, emits a {RoleGranted} event. Requirements: - the caller must have ``role``'s admin role. May emit a {RoleGranted} event."
      },
      "handleExpiredDocuments(uint256[])": {
        "details": "Handle expired documents"
      },
      "hasRole(bytes32,address)": {
        "details": "Returns `true` if `account` has been granted `role`."
      },
      "isDocumentExpired(uint256)": {
        "details": "Check if document is expired"
      },
      "makeDocumentPublic(uint256)": {
        "details": "Make document public for transparency"
      },
      "pause()": {
        "details": "Emergency functions"
      },
      "paused()": {
        "details": "Returns true if the contract is paused, and false otherwise."
      },
      "renounceRole(bytes32,address)": {
        "details": "Revokes `role` from the calling account. Roles are often managed via {grantRole} and {revokeRole}: this function's purpose is to provide a mechanism for accounts to lose their privileges if they are compromised (such as when a trusted device is misplaced). If the calling account had been revoked `role`, emits a {RoleRevoked} event. Requirements: - the caller must be `account`. May emit a {RoleRevoked} event."
      },
      "requestVerification(uint256)": {
        "details": "Request verification for a document"
      },
      "revokeDocument(uint256,string)": {
        "details": "Revoke a document"
      },
      "revokeRole(bytes32,address)": {
        "details": "Revokes `role` from `account`. If `account` had been granted `role`, emits a {RoleRevoked} event. Requirements: - the caller must have ``role``'s admin role. May emit a {RoleRevoked} event."
      },
      "supportsInterface(bytes4)": {
        "details": "See {IERC165-supportsInterface}."
      },
      "updateDocument(uint256,string,bytes32)": {
        "details": "Update document IPFS hash (for document revisions)"
      },
      "uploadDocument(string,string,uint8,string,bytes32,bool)": {
        "details": "Upload a new document to the system"
      },
      "verifyDocument(uint256,uint8,string,string)": {
        "details": "Verify a document"
      },
      "verifyDocumentAuthenticity(string,bytes32)": {
        "details": "Verify document authenticity using IPFS hash"
      }
    },
    "title": "DocumentVerification",
    "version": 1
  },
  "userdoc": {
    "kind": "user",
    "methods": {},
    "notice": "Manages document authenticity and tamper-proof storage",
    "version": 1
  }
}