{
  "contractName": "EscrowManager",
  "abi": [
    {
      "inputs": [],
      "stateMutability": "nonpayable",
      "type": "constructor"
    },
    {
      "inputs": [
        {
          "internalType": "uint256",
          "name": "escrowId",
          "type": "uint256"
        }
      ],
      "name": "EscrowAlreadyResolved",
      "type": "error"
    },
    {
      "inputs": [
        {
          "internalType": "uint256",
          "name": "escrowId",
          "type": "uint256"
        },
        {
          "internalType": "uint256",
          "name": "expiredAt",
          "type": "uint256"
        }
      ],
      "name": "EscrowExpired",
      "type": "error"
    },
    {
      "inputs": [
        {
          "internalType": "uint256",
          "name": "escrowId",
          "type": "uint256"
        }
      ],
      "name": "EscrowNotFound",
      "type": "error"
    },
    {
      "inputs": [
        {
          "internalType": "uint256",
          "name": "escrowId",
          "type": "uint256"
        },
        {
          "internalType": "uint256",
          "name": "required",
          "type": "uint256"
        },
        {
          "internalType": "uint256",
          "name": "available",
          "type": "uint256"
        }
      ],
      "name": "InsufficientEscrowAmount",
      "type": "error"
    },
    {
      "inputs": [
        {
          "internalType": "uint256",
          "name": "escrowId",
          "type": "uint256"
        },
        {
          "internalType": "string",
          "name": "currentStatus",
          "type": "string"
        }
      ],
      "name": "InvalidEscrowStatus",
      "type": "error"
    },
    {
      "inputs": [
        {
          "internalType": "address",
          "name": "participant",
          "type": "address"
        }
      ],
      "name": "InvalidParticipant",
      "type": "error"
    },
    {
      "inputs": [
        {
          "internalType": "address",
          "name": "caller",
          "type": "address"
        },
        {
          "internalType": "uint256",
          "name": "escrowId",
          "type": "uint256"
        }
      ],
      "name": "UnauthorizedEscrowAccess",
      "type": "error"
    },
    {
      "anonymous": false,
      "inputs": [
        {
          "indexed": true,
          "internalType": "uint256",
          "name": "escrowId",
          "type": "uint256"
        },
        {
          "indexed": true,
          "internalType": "address",
          "name": "initiator",
          "type": "address"
        },
        {
          "indexed": false,
          "internalType": "string",
          "name": "reason",
          "type": "string"
        }
      ],
      "name": "DisputeRaised",
      "type": "event"
    },
    {
      "anonymous": false,
      "inputs": [
        {
          "indexed": true,
          "internalType": "uint256",
          "name": "escrowId",
          "type": "uint256"
        },
        {
          "indexed": true,
          "internalType": "address",
          "name": "resolver",
          "type": "address"
        },
        {
          "indexed": false,
          "internalType": "string",
          "name": "resolution",
          "type": "string"
        }
      ],
      "name": "DisputeResolved",
      "type": "event"
    },
    {
      "anonymous": false,
      "inputs": [
        {
          "indexed": true,
          "internalType": "uint256",
          "name": "escrowId",
          "type": "uint256"
        },
        {
          "indexed": true,
          "internalType": "uint256",
          "name": "propertyId",
          "type": "uint256"
        },
        {
          "indexed": true,
          "internalType": "address",
          "name": "buyer",
          "type": "address"
        },
        {
          "indexed": false,
          "internalType": "address",
          "name": "seller",
          "type": "address"
        },
        {
          "indexed": false,
          "internalType": "uint256",
          "name": "amount",
          "type": "uint256"
        }
      ],
      "name": "EscrowCreated",
      "type": "event"
    },
    {
      "anonymous": false,
      "inputs": [
        {
          "indexed": true,
          "internalType": "uint256",
          "name": "escrowId",
          "type": "uint256"
        },
        {
          "indexed": false,
          "internalType": "uint256",
          "name": "expiredAt",
          "type": "uint256"
        }
      ],
      "name": "EscrowExpiredEvent",
      "type": "event"
    },
    {
      "anonymous": false,
      "inputs": [
        {
          "indexed": true,
          "internalType": "uint256",
          "name": "escrowId",
          "type": "uint256"
        },
        {
          "indexed": true,
          "internalType": "address",
          "name": "buyer",
          "type": "address"
        },
        {
          "indexed": false,
          "internalType": "uint256",
          "name": "amount",
          "type": "uint256"
        }
      ],
      "name": "EscrowFunded",
      "type": "event"
    },
    {
      "anonymous": false,
      "inputs": [
        {
          "indexed": true,
          "internalType": "uint256",
          "name": "escrowId",
          "type": "uint256"
        },
        {
          "indexed": true,
          "internalType": "address",
          "name": "buyer",
          "type": "address"
        },
        {
          "indexed": false,
          "internalType": "uint256",
          "name": "amount",
          "type": "uint256"
        }
      ],
      "name": "EscrowRefunded",
      "type": "event"
    },
    {
      "anonymous": false,
      "inputs": [
        {
          "indexed": true,
          "internalType": "uint256",
          "name": "escrowId",
          "type": "uint256"
        },
        {
          "indexed": true,
          "internalType": "address",
          "name": "releasedBy",
          "type": "address"
        },
        {
          "indexed": false,
          "internalType": "uint256",
          "name": "amount",
          "type": "uint256"
        }
      ],
      "name": "EscrowReleased",
      "type": "event"
    },
    {
      "anonymous": false,
      "inputs": [
        {
          "indexed": true,
          "internalType": "uint256",
          "name": "escrowId",
          "type": "uint256"
        },
        {
          "indexed": true,
          "internalType": "address",
          "name": "inspector",
          "type": "address"
        }
      ],
      "name": "InspectorApprovalGiven",
      "type": "event"
    },
    {
      "anonymous": false,
      "inputs": [
        {
          "indexed": false,
          "internalType": "address",
          "name": "account",
          "type": "address"
        }
      ],
      "name": "Paused",
      "type": "event"
    },
    {
      "anonymous": false,
      "inputs": [
        {
          "indexed": true,
          "internalType": "bytes32",
          "name": "role",
          "type": "bytes32"
        },
        {
          "indexed": true,
          "internalType": "bytes32",
          "name": "previousAdminRole",
          "type": "bytes32"
        },
        {
          "indexed": true,
          "internalType": "bytes32",
          "name": "newAdminRole",
          "type": "bytes32"
        }
      ],
      "name": "RoleAdminChanged",
      "type": "event"
    },
    {
      "anonymous": false,
      "inputs": [
        {
          "indexed": true,
          "internalType": "bytes32",
          "name": "role",
          "type": "bytes32"
        },
        {
          "indexed": true,
          "internalType": "address",
          "name": "account",
          "type": "address"
        },
        {
          "indexed": true,
          "internalType": "address",
          "name": "sender",
          "type": "address"
        }
      ],
      "name": "RoleGranted",
      "type": "event"
    },
    {
      "anonymous": false,
      "inputs": [
        {
          "indexed": true,
          "internalType": "bytes32",
          "name": "role",
          "type": "bytes32"
        },
        {
          "indexed": true,
          "internalType": "address",
          "name": "account",
          "type": "address"
        },
        {
          "indexed": true,
          "internalType": "address",
          "name": "sender",
          "type": "address"
        }
      ],
      "name": "RoleRevoked",
      "type": "event"
    },
    {
      "anonymous": false,
      "inputs": [
        {
          "indexed": true,
          "internalType": "uint256",
          "name": "escrowId",
          "type": "uint256"
        },
        {
          "indexed": true,
          "internalType": "address",
          "name": "seller",
          "type": "address"
        }
      ],
      "name": "SellerApprovalGiven",
      "type": "event"
    },
    {
      "anonymous": false,
      "inputs": [
        {
          "indexed": false,
          "internalType": "address",
          "name": "account",
          "type": "address"
        }
      ],
      "name": "Unpaused",
      "type": "event"
    },
    {
      "inputs": [],
      "name": "DEFAULT_ADMIN_ROLE",
      "outputs": [
        {
          "internalType": "bytes32",
          "name": "",
          "type": "bytes32"
        }
      ],
      "stateMutability": "view",
      "type": "function"
    },
    {
      "inputs": [],
      "name": "DISPUTE_TIMEOUT",
      "outputs": [
        {
          "internalType": "uint256",
          "name": "",
          "type": "uint256"
        }
      ],
      "stateMutability": "view",
      "type": "function"
    },
    {
      "inputs": [],
      "name": "ESCROW_AGENT_ROLE",
      "outputs": [
        {
          "internalType": "bytes32",
          "name": "",
          "type": "bytes32"
        }
      ],
      "stateMutability": "view",
      "type": "function"
    },
    {
      "inputs": [],
      "name": "ESCROW_TIMEOUT",
      "outputs": [
        {
          "internalType": "uint256",
          "name": "",
          "type": "uint256"
        }
      ],
      "stateMutability": "view",
      "type": "function"
    },
    {
      "inputs": [],
      "name": "LAND_INSPECTOR_ROLE",
      "outputs": [
        {
          "internalType": "bytes32",
          "name": "",
          "type": "bytes32"
        }
      ],
      "stateMutability": "view",
      "type": "function"
    },
    {
      "inputs": [
        {
          "internalType": "uint256",
          "name": "",
          "type": "uint256"
        }
      ],
      "name": "disputes",
      "outputs": [
        {
          "internalType": "uint256",
          "name": "escrowId",
          "type": "uint256"
        },
        {
          "internalType": "address",
          "name": "initiator",
          "type": "address"
        },
        {
          "internalType": "string",
          "name": "reason",
          "type": "string"
        },
        {
          "internalType": "uint256",
          "name": "createdAt",
          "type": "uint256"
        },
        {
          "internalType": "bool",
          "name": "resolved",
          "type": "bool"
        },
        {
          "internalType": "address",
          "name": "resolver",
          "type": "address"
        },
        {
          "internalType": "uint256",
          "name": "resolvedAt",
          "type": "uint256"
        },
        {
          "internalType": "string",
          "name": "resolution",
          "type": "string"
        }
      ],
      "stateMutability": "view",
      "type": "function"
    },
    {
      "inputs": [
        {
          "internalType": "uint256",
          "name": "",
          "type": "uint256"
        }
      ],
      "name": "escrows",
      "outputs": [
        {
          "internalType": "uint256",
          "name": "id",
          "type": "uint256"
        },
        {
          "internalType": "uint256",
          "name": "propertyId",
          "type": "uint256"
        },
        {
          "internalType": "address",
          "name": "buyer",
          "type": "address"
        },
        {
          "internalType": "address",
          "name": "seller",
          "type": "address"
        },
        {
          "internalType": "address",
          "name": "inspector",
          "type": "address"
        },
        {
          "internalType": "uint256",
          "name": "amount",
          "type": "uint256"
        },
        {
          "internalType": "uint256",
          "name": "createdAt",
          "type": "uint256"
        },
        {
          "internalType": "uint256",
          "name": "expiresAt",
          "type": "uint256"
        },
        {
          "internalType": "enum EscrowManager.EscrowStatus",
          "name": "status",
          "type": "uint8"
        },
        {
          "internalType": "bool",
          "name": "sellerApproval",
          "type": "bool"
        },
        {
          "internalType": "bool",
          "name": "inspectorApproval",
          "type": "bool"
        },
        {
          "internalType": "bool",
          "name": "buyerConfirmation",
          "type": "bool"
        },
        {
          "internalType": "string",
          "name": "terms",
          "type": "string"
        },
        {
          "internalType": "uint256",
          "name": "releasedAt",
          "type": "uint256"
        },
        {
          "internalType": "address",
          "name": "releasedBy",
          "type": "address"
        }
      ],
      "stateMutability": "view",
      "type": "function"
    },
    {
      "inputs": [
        {
          "internalType": "bytes32",
          "name": "role",
          "type": "bytes32"
        }
      ],
      "name": "getRoleAdmin",
      "outputs": [
        {
          "internalType": "bytes32",
          "name": "",
          "type": "bytes32"
        }
      ],
      "stateMutability": "view",
      "type": "function"
    },
    {
      "inputs": [
        {
          "internalType": "bytes32",
          "name": "role",
          "type": "bytes32"
        },
        {
          "internalType": "address",
          "name": "account",
          "type": "address"
        }
      ],
      "name": "grantRole",
      "outputs": [],
      "stateMutability": "nonpayable",
      "type": "function"
    },
    {
      "inputs": [
        {
          "internalType": "uint256",
          "name": "",
          "type": "uint256"
        }
      ],
      "name": "hasDispute",
      "outputs": [
        {
          "internalType": "bool",
          "name": "",
          "type": "bool"
        }
      ],
      "stateMutability": "view",
      "type": "function"
    },
    {
      "inputs": [
        {
          "internalType": "bytes32",
          "name": "role",
          "type": "bytes32"
        },
        {
          "internalType": "address",
          "name": "account",
          "type": "address"
        }
      ],
      "name": "hasRole",
      "outputs": [
        {
          "internalType": "bool",
          "name": "",
          "type": "bool"
        }
      ],
      "stateMutability": "view",
      "type": "function"
    },
    {
      "inputs": [],
      "name": "paused",
      "outputs": [
        {
          "internalType": "bool",
          "name": "",
          "type": "bool"
        }
      ],
      "stateMutability": "view",
      "type": "function"
    },
    {
      "inputs": [
        {
          "internalType": "bytes32",
          "name": "role",
          "type": "bytes32"
        },
        {
          "internalType": "address",
          "name": "account",
          "type": "address"
        }
      ],
      "name": "renounceRole",
      "outputs": [],
      "stateMutability": "nonpayable",
      "type": "function"
    },
    {
      "inputs": [
        {
          "internalType": "bytes32",
          "name": "role",
          "type": "bytes32"
        },
        {
          "internalType": "address",
          "name": "account",
          "type": "address"
        }
      ],
      "name": "revokeRole",
      "outputs": [],
      "stateMutability": "nonpayable",
      "type": "function"
    },
    {
      "inputs": [
        {
          "internalType": "bytes4",
          "name": "interfaceId",
          "type": "bytes4"
        }
      ],
      "name": "supportsInterface",
      "outputs": [
        {
          "internalType": "bool",
          "name": "",
          "type": "bool"
        }
      ],
      "stateMutability": "view",
      "type": "function"
    },
    {
      "inputs": [
        {
          "internalType": "address",
          "name": "",
          "type": "address"
        },
        {
          "internalType": "uint256",
          "name": "",
          "type": "uint256"
        }
      ],
      "name": "userEscrows",
      "outputs": [
        {
          "internalType": "uint256",
          "name": "",
          "type": "uint256"
        }
      ],
      "stateMutability": "view",
      "type": "function"
    },
    {
      "inputs": [
        {
          "internalType": "uint256",
          "name": "_propertyId",
          "type": "uint256"
        },
        {
          "internalType": "address",
          "name": "_buyer",
          "type": "address"
        },
        {
          "internalType": "address",
          "name": "_seller",
          "type": "address"
        },
        {
          "internalType": "address",
          "name": "_inspector",
          "type": "address"
        },
        {
          "internalType": "string",
          "name": "_terms",
          "type": "string"
        }
      ],
      "name": "createEscrow",
      "outputs": [
        {
          "internalType": "uint256",
          "name": "",
          "type": "uint256"
        }
      ],
      "stateMutability": "nonpayable",
      "type": "function"
    },
    {
      "inputs": [
        {
          "internalType": "uint256",
          "name": "escrowId",
          "type": "uint256"
        }
      ],
      "name": "fundEscrow",
      "outputs": [],
      "stateMutability": "payable",
      "type": "function"
    },
    {
      "inputs": [
        {
          "internalType": "uint256",
          "name": "escrowId",
          "type": "uint256"
        }
      ],
      "name": "approveAsSeller",
      "outputs": [],
      "stateMutability": "nonpayable",
      "type": "function"
    },
    {
      "inputs": [
        {
          "internalType": "uint256",
          "name": "escrowId",
          "type": "uint256"
        }
      ],
      "name": "approveAsInspector",
      "outputs": [],
      "stateMutability": "nonpayable",
      "type": "function"
    },
    {
      "inputs": [
        {
          "internalType": "uint256",
          "name": "escrowId",
          "type": "uint256"
        }
      ],
      "name": "manualRelease",
      "outputs": [],
      "stateMutability": "nonpayable",
      "type": "function"
    },
    {
      "inputs": [
        {
          "internalType": "uint256",
          "name": "escrowId",
          "type": "uint256"
        },
        {
          "internalType": "string",
          "name": "reason",
          "type": "string"
        }
      ],
      "name": "refundEscrow",
      "outputs": [],
      "stateMutability": "nonpayable",
      "type": "function"
    },
    {
      "inputs": [
        {
          "internalType": "uint256",
          "name": "escrowId",
          "type": "uint256"
        },
        {
          "internalType": "string",
          "name": "reason",
          "type": "string"
        }
      ],
      "name": "raiseDispute",
      "outputs": [],
      "stateMutability": "nonpayable",
      "type": "function"
    },
    {
      "inputs": [
        {
          "internalType": "uint256",
          "name": "escrowId",
          "type": "uint256"
        },
        {
          "internalType": "bool",
          "name": "releaseToSeller",
          "type": "bool"
        },
        {
          "internalType": "string",
          "name": "resolution",
          "type": "string"
        }
      ],
      "name": "resolveDispute",
      "outputs": [],
      "stateMutability": "nonpayable",
      "type": "function"
    },
    {
      "inputs": [
        {
          "internalType": "uint256",
          "name": "escrowId",
          "type": "uint256"
        }
      ],
      "name": "handleExpiredEscrow",
      "outputs": [],
      "stateMutability": "nonpayable",
      "type": "function"
    },
    {
      "inputs": [
        {
          "internalType": "uint256",
          "name": "escrowId",
          "type": "uint256"
        }
      ],
      "name": "getEscrow",
      "outputs": [
        {
          "components": [
            {
              "internalType": "uint256",
              "name": "id",
              "type": "uint256"
            },
            {
              "internalType": "uint256",
              "name": "propertyId",
              "type": "uint256"
            },
            {
              "internalType": "address",
              "name": "buyer",
              "type": "address"
            },
            {
              "internalType": "address",
              "name": "seller",
              "type": "address"
            },
            {
              "internalType": "address",
              "name": "inspector",
              "type": "address"
            },
            {
              "internalType": "uint256",
              "name": "amount",
              "type": "uint256"
            },
            {
              "internalType": "uint256",
              "name": "createdAt",
              "type": "uint256"
            },
            {
              "internalType": "uint256",
              "name": "expiresAt",
              "type": "uint256"
            },
            {
              "internalType": "enum EscrowManager.EscrowStatus",
              "name": "status",
              "type": "uint8"
            },
            {
              "internalType": "bool",
              "name": "sellerApproval",
              "type": "bool"
            },
            {
              "internalType": "bool",
              "name": "inspectorApproval",
              "type": "bool"
            },
            {
              "internalType": "bool",
              "name": "buyerConfirmation",
              "type": "bool"
            },
            {
              "internalType": "string",
              "name": "terms",
              "type": "string"
            },
            {
              "internalType": "uint256",
              "name": "releasedAt",
              "type": "uint256"
            },
            {
              "internalType": "address",
              "name": "releasedBy",
              "type": "address"
            }
          ],
          "internalType": "struct EscrowManager.Escrow",
          "name": "",
          "type": "tuple"
        }
      ],
      "stateMutability": "view",
      "type": "function"
    },
    {
      "inputs": [
        {
          "internalType": "uint256",
          "name": "escrowId",
          "type": "uint256"
        }
      ],
      "name": "getDispute",
      "outputs": [
        {
          "components": [
            {
              "internalType": "uint256",
              "name": "escrowId",
              "type": "uint256"
            },
            {
              "internalType": "address",
              "name": "initiator",
              "type": "address"
            },
            {
              "internalType": "string",
              "name": "reason",
              "type": "string"
            },
            {
              "internalType": "uint256",
              "name": "createdAt",
              "type": "uint256"
            },
            {
              "internalType": "bool",
              "name": "resolved",
              "type": "bool"
            },
            {
              "internalType": "address",
              "name": "resolver",
              "type": "address"
            },
            {
              "internalType": "uint256",
              "name": "resolvedAt",
              "type": "uint256"
            },
            {
              "internalType": "string",
              "name": "resolution",
              "type": "string"
            }
          ],
          "internalType": "struct EscrowManager.DisputeInfo",
          "name": "",
          "type": "tuple"
        }
      ],
      "stateMutability": "view",
      "type": "function"
    },
    {
      "inputs": [
        {
          "internalType": "address",
          "name": "user",
          "type": "address"
        }
      ],
      "name": "getUserEscrows",
      "outputs": [
        {
          "internalType": "uint256[]",
          "name": "",
          "type": "uint256[]"
        }
      ],
      "stateMutability": "view",
      "type": "function"
    },
    {
      "inputs": [
        {
          "internalType": "uint256",
          "name": "escrowId",
          "type": "uint256"
        }
      ],
      "name": "getEscrowStatus",
      "outputs": [
        {
          "internalType": "enum EscrowManager.EscrowStatus",
          "name": "",
          "type": "uint8"
        }
      ],
      "stateMutability": "view",
      "type": "function"
    },
    {
      "inputs": [],
      "name": "getTotalEscrows",
      "outputs": [
        {
          "internalType": "uint256",
          "name": "",
          "type": "uint256"
        }
      ],
      "stateMutability": "view",
      "type": "function"
    },
    {
      "inputs": [
        {
          "internalType": "uint256",
          "name": "escrowId",
          "type": "uint256"
        }
      ],
      "name": "isEscrowExpired",
      "outputs": [
        {
          "internalType": "bool",
          "name": "",
          "type": "bool"
        }
      ],
      "stateMutability": "view",
      "type": "function"
    },
    {
      "inputs": [
        {
          "internalType": "uint256",
          "name": "escrowId",
          "type": "uint256"
        }
      ],
      "name": "getEscrowBalance",
      "outputs": [
        {
          "internalType": "uint256",
          "name": "",
          "type": "uint256"
        }
      ],
      "stateMutability": "view",
      "type": "function"
    },
    {
      "inputs": [],
      "name": "pause",
      "outputs": [],
      "stateMutability": "nonpayable",
      "type": "function"
    },
    {
      "inputs": [],
      "name": "unpause",
      "outputs": [],
      "stateMutability": "nonpayable",
      "type": "function"
    },
    {
      "inputs": [
        {
          "internalType": "uint256",
          "name": "escrowId",
          "type": "uint256"
        }
      ],
      "name": "emergencyWithdraw",
      "outputs": [],
      "stateMutability": "nonpayable",
      "type": "function"
    }
  ],
  "bytecode": "0x60806040818152346200016e576001805560ff1980600254166002556000908180526020828152838320338452815260ff84842054161562000138575b7fe4547c2a6ce65edbaa7a9ca02c49e60b200048a9eaa0e0bb40308c4bdef41e6f808452838252848420338552825260ff85852054161562000100575b507fe1b23bc24a44d8782bc5d47eb614ee4dcfc802ecc25a23f2f3b6eadcc66d63ad93848452838252808420338552825260ff818520541615620000c5575b61303a8681620001748239f35b60019185855284815281852090338652528320918254161790553391600080516020620031ae833981519152339280a43880808080620000b8565b808452838252848420338552825284842060018482541617905533903390600080516020620031ae8339815191528680a43862000079565b8280528281528383203384528152838320600183825416179055333384600080516020620031ae8339815191528180a46200003c565b600080fdfe6080604052600436101561001257600080fd5b6000803560e01c8063012f52ee1461264457806301ffc9a7146125ed578063248a9ca3146125c15780632840662d1461226b5780632d43b71514611c435780632f2ff15d14611b9357806330815eee14611b75578063345460cd14611b2b57806336568abe14611a985780633f4ba83a14611a035780633f4dbda2146119e557806342e9fdbc1461183c578063486265c61461181e578063518fe806146114f15780635312ea8e146113b6578063564a565d146113075780635aef573c14610d405780635c975abb14610d1d5780635ccea85e14610c6b57806377a83a7114610b615780637d19e596146108e55780637ea62c87146108b65780637f944dd0146108605780638070c401146108115780638456cb59146107b657806391d148541461076b5780639bb4ea1a146107295780639bef543a146106ee5780639f8c6cc714610565578063a217fddf14610549578063b2b073f21461050e578063c9c31af51461037c578063d547741f1461033c578063e3a96cbd146101f85763fce609031461019e57600080fd5b346101f55760203660031901126101f55760043580825260046020526040822054156101dd576040826005926020945260048452200154604051908152f35b602490604051906305b3479760e11b82526004820152fd5b80fd5b50346101f557602090816003193601126101f557604090606060e0835161021e8161279a565b8381528386820152828582015283838201528360808201528360a08201528360c08201520152600435815260058352206103386040519161025e8361279a565b8054835260018101546001600160a01b03908116858501908152909190610287600283016127f2565b9160408601928352600381015493606087019485526004820154608088019460ff8216151586528260a08a019260081c168252826102d3600660058701549660c08d01978852016127f2565b9560e08b019687526040519b8c9b818d5251908c0152511660408a0152519461030a610100968760608c01526101208b01906128de565b965160808a015251151560a0890152511660c08701525160e08601525190601f1985840301908501526128de565b0390f35b50346101f55760403660031901126101f55761037960043561035c612959565b90808452836020526103746001604086200154612b88565b612c92565b80f35b5060203660031901126101f55760043580825260046020526040822054156101dd576103a6612e6b565b808252600460205260076040832001548042116104f057506103c6612e27565b80825260046020526040822060028101546001600160a01b031633036104cd57600881019081549060ff821660088110156104b957610475573415610450579063010000019160053491015563ff0000ff1916179055604051903482527f4a2cd88ec7a748d5b20b3512d7249c67745777b219009075c745923684e9653d60203393a36001805580f35b606484866040519163015643f760e01b83526004830152600160248301526044820152fd5b6084846040519063a82512e760e01b825260048201526040602482015260156044820152744e6f7420696e20437265617465642073746174757360581b6064820152fd5b634e487b7160e01b86526021600452602486fd5b60405163ed68897560e01b815233600482015260248101839052604490fd5b0390fd5b6044925060405191636a3492c360e01b835260048301526024820152fd5b50346101f557806003193601126101f55760206040517fe4547c2a6ce65edbaa7a9ca02c49e60b200048a9eaa0e0bb40308c4bdef41e6f8152f35b50346101f557806003193601126101f557602090604051908152f35b50346101f55760203660031901126101f55760043580825260046020526040822054156101dd57610594612e27565b80825260046020526040822060078101544211156106b05760088101805460ff811660088110156104b957600481149081156106a5575b5061068c5760ff1916600717905560058101805490918115908590821561061b575b50847e9ca3559ecc2e0e72d63092dbcee1f702908253f9d6d4bfcbd702fe214755d36020604051428152a280f35b818060028193019560018060a01b039586885416908390610683575bf1156106785760207feac97bc1917fcedc984e3d0671d4e83b359890323d5d1c2de32b28d17c356ced91859354169354604051908152a338808084816105ed565b6040513d86823e3d90fd5b506108fc610637565b6040516327a1146d60e11b815260048101859052602490fd5b6005915014386105cb565b6084826040519063a82512e760e01b8252600482015260406024820152600f60448201526e139bdd08195e1c1a5c9959081e595d608a1b6064820152fd5b50346101f557806003193601126101f55760206040517fe1b23bc24a44d8782bc5d47eb614ee4dcfc802ecc25a23f2f3b6eadcc66d63ad8152f35b50346101f55760203660031901126101f55760043580825260046020526040822054156101dd5760408260079260209452600484522001544211604051908152f35b50346101f55760403660031901126101f5576040610787612959565b91600435815280602052209060018060a01b0316600052602052602060ff604060002054166040519015158152f35b50346101f557806003193601126101f5576107cf6129cf565b6107d7612e27565b600160ff1960025416176002557f62e78cea01bee320cd4e420270b5ea74000d11b0c9f74754ebdbfc544b05a2586020604051338152a180f35b50346101f55760203660031901126101f55760043580825260046020526040822054156101dd57610859906108446129cf565b61084c612e6b565b610854612e27565b612f15565b6001805580f35b50346101f55760403660031901126101f55761087a61296f565b6001600160a01b03168152600660205260408120805460243592908310156101f55760206108a884846129b7565b90546040519160031b1c8152f35b50346101f55760203660031901126101f55760ff60406020926004358152600784522054166040519015158152f35b50346101f55760203660031901126101f55760043590806101c060405161090b8161277e565b8281528260208201528260408201528260608201528260808201528260a08201528260c08201528260e0820152826101008201528261012082015282610140820152826101608201526060610180820152826101a082015201528181526004602052604081205415610b485760409181526004602052206040519061098f8261277e565b805482526001810154602083015260028101546001600160a01b0390811660408401526003820154811660608401526004820154166080830152600581015460a0830152600681015460c0830152600781015460e0830152600881015460ff906109ff8183166101008601612de1565b818160081c161515610120850152818160101c16151561014085015260181c161515610160830152610a33600982016127f2565b610180830152600a8101546101a0830152600b60018060a01b03910154166101c0820152604051809160208252805160208301526020810151604083015260018060a01b03604082015116606083015260018060a01b03606082015116608083015260018060a01b0360808201511660a083015260a081015160c083015260c081015160e083015260e0810151610100830152610ada610100820151610120840190612898565b610120810151151561014083015261014081015115156101608301526101608101511515610180830152610180810151610b236101e091826101a08601526102008501906128de565b6101a08301516101c085810191909152909201516001600160a01b0316908301520390f35b6040516305b3479760e11b815260048101839052602490fd5b50346101f55760203660031901126101f55760043580825260046020526040822054156101dd57808252600460205260076040832001548042116104f05750610ba8612e27565b80825260046020526040822060038101546001600160a01b031633036104cd57600801805460ff81166008811015610c5757600103610c1b5761ffff19166101021790556103799033817f4ef54cbd667f295bc31c2849a62104aff22e1d66bb64edc0e628cfc92f7e56c18580a3612ec1565b6040805163a82512e760e01b8152600481018590526024810191909152600a604482015269139bdd08199d5b99195960b21b6064820152608490fd5b634e487b7160e01b85526021600452602485fd5b50346101f557602080600319360112610d19576001600160a01b03610c8e61296f565b168252600681526040822060405192838383549182815201908193835284832090835b818110610d055750505084610cc79103856127d1565b60405193838594850191818652518092526040850193925b828110610cee57505050500390f35b835185528695509381019392810192600101610cdf565b825484529286019260019283019201610cb1565b5080fd5b50346101f557806003193601126101f557602060ff600254166040519015158152f35b50346101f557610d4f36612985565b9080835260046020526040832054156101dd5780835260046020526040832060405190610d7b8261277e565b805482526001810154602083015260028101546001600160a01b03908116604084019081526003830154821660608501908152600484015490921660808501908152600584015460a0860152600684015460c0860152600784015460e0860152600884015492949093919290916101c09160ff90610dff8183166101008701612de1565b818160081c161515610120860152818160101c16151561014086015260181c161515610160840152610e33600982016127f2565b610180840152600a8101546101a0840152600b01546001600160a01b03908116919092015290511633141591826112f2575b50816112dd575b50806112bb575b61129b57610e7f612e27565b808352600760205260ff60408420541661125657808352600460205260086040842001600660ff19825416179055808352600760205260408320600160ff19825416179055604051610ed08161279a565b8181523360208201528260408201524260608201528360808201528360a08201528360c08201526040518060208101106001600160401b03602083011117611240576020810160405284815260e0820152818452600560205260408420815181556001810160018060a01b036020840151166001600160601b0360a01b82541617905560408201518051906001600160401b03821161122c57610f766002840154612744565b601f81116111e7575b50602090601f831160011461117557918060e094926006948a9261116a575b50508160011b916000199060031b1c19161760028201555b60608401516003820155608084015160048201805460a0870151610100600160a81b0360089190911b1692151560ff166001600160a81b03199091161791909117905560c08401516005820155019101518051906001600160401b0382116111565781906110248454612744565b601f8111611105575b50602090601f83116001146110a1578792611096575b50508160011b916000199060031b1c19161790555b7f1b84372106d77c6daea0dda35bbc0229d10a83f58ec8990928849251936823416040516020815280611090339560208301906128de565b0390a380f35b015190503880611043565b848852602088209250601f198416885b8181106110ed57509084600195949392106110d4575b505050811b019055611058565b015160001960f88460031b161c191690553880806110c7565b929360206001819287860151815501950193016110b1565b90915083875260208720601f840160051c8101916020851061114c575b90601f859493920160051c01905b81811061113d575061102d565b60008155849350600101611130565b9091508190611122565b634e487b7160e01b86526041600452602486fd5b015190503880610f9e565b906002840188526020882091885b601f19851681106111cf57509260e0949260019260069583601f198116106111b6575b505050811b016002820155610fb6565b015160001960f88460031b161c191690553880806111a6565b91926020600181928685015181550194019201611183565b60028401885260208820601f840160051c810160208510611225575b601f830160051c82018110611219575050610f7f565b60008155600101611203565b5080611203565b634e487b7160e01b87526041600452602487fd5b634e487b7160e01b600052604160045260246000fd5b6084906040519063a82512e760e01b825260048201526040602482015260166044820152754469737075746520616c72656164792065786973747360501b6064820152fd5b60405163ed68897560e01b81523360048201526024810191909152604490fd5b5082805282602052604083203360005260205260ff6040600020541615610e73565b516001600160a01b0316331415905038610e6c565b516001600160a01b0316331415915038610e65565b50346101f55760203660031901126101f5576004358152600560205260409020805460018201546001600160a01b0390811692610338919061134b600282016127f2565b90600381015492600482015461138a61136b6006600586015495016127f2565b94604051998a998a5260208a01526101008060408b01528901906128de565b94606088015260ff81161515608088015260081c1660a086015260c085015283820360e08501526128de565b50346101f55760203660031901126101f5576004356113d36129cf565b6113db612e6b565b808252600460205260408220906008820180549260ff841660088110156104b95760071480156114c3575b1561147f57600291600580830195878754975560ff19161790550160018060a01b0390848080808786865416828215611476575bf115610678577feac97bc1917fcedc984e3d0671d4e83b359890323d5d1c2de32b28d17c356ced91602091541693604051908152a36001805580f35b506108fc61143a565b606460405162461bcd60e51b815260206004820152602060248201527f456d657267656e6379207769746864726177616c206e6f7420616c6c6f7765646044820152fd5b5060078101546276a70081018091116114dd574211611406565b634e487b7160e01b86526011600452602486fd5b50346101f557602090816003193601126101f5576004359182825260048152604082205415611805577fe4547c2a6ce65edbaa7a9ca02c49e60b200048a9eaa0e0bb40308c4bdef41e6f8060005260008252604060002033600052825260ff60406000205416156116635750828252600481526007604083200154804211611645575060049061157f612e27565b838352526040812060048101546001600160a01b03163303611626576008019182549260ff8416936008851015611612578415610c1b57600261037994956201000062ff0000198416178455146115fe575b505033817f6234341514575ff980f8f2f7024301dc53d04fe837904e623950e8eafc4c13878580a3612ec1565b62ff00ff19166201000317905538806115d1565b634e487b7160e01b84526021600452602484fd5b60405163ed68897560e01b815233600482015260248101849052604490fd5b8360449160405191636a3492c360e01b835260048301526024820152fd5b9061166d33612d17565b9160405161167a816127b6565b604281528281019160603684378151156117ef576030835381516001908110156117ef57607860218401536041905b80821161179557505061175257611722936117319260489260405196879376020b1b1b2b9b9a1b7b73a3937b61d1030b1b1b7bab73a1604d1b888601526116f9815180928a6037890191016128bb565b8401917001034b99036b4b9b9b4b733903937b6329607d1b6037840152518093868401906128bb565b010360288101855201836127d1565b6104ec60405192839262461bcd60e51b8452600484015260248301906128de565b6064836040519062461bcd60e51b825280600483015260248201527f537472696e67733a20686578206c656e67746820696e73756666696369656e746044820152fd5b9091600f811660108110156117ef576f181899199a1a9b1b9c1cb0b131b232b360811b901a6117c48486612d06565b5360041c9180156117d95760001901906116a9565b634e487b7160e01b600052601160045260246000fd5b634e487b7160e01b600052603260045260246000fd5b6040516305b3479760e11b815260048101849052602490fd5b50346101f557806003193601126101f557602060405162093a808152f35b50346101f55761184b36612985565b50808252602090600482526040832054156101dd57611868612e6b565b611870612e27565b8083526004825260408320918380528381526040842033600052815260ff60406000205416801561198f575b8015611982575b156104cd57600883019283549360ff8516600881101561196e5760048114908115611963575b5061068c57906002916005808301549660ff191617905542600a820155600b8101336001600160601b0360a01b825416179055019060018060a01b0385808080888588541682821561195a575bf11561194f577feac97bc1917fcedc984e3d0671d4e83b359890323d5d1c2de32b28d17c356ced92541693604051908152a36001805580f35b6040513d87823e3d90fd5b506108fc611916565b6005915014386118c9565b634e487b7160e01b87526021600452602487fd5b50600783015442116118a3565b5060048301546001600160a01b03163314801561189c57507fe4547c2a6ce65edbaa7a9ca02c49e60b200048a9eaa0e0bb40308c4bdef41e6f84528381526040842033600052815260ff6040600020541661189c565b50346101f557806003193601126101f5576020600354604051908152f35b50346101f557806003193601126101f557611a1c6129cf565b60025460ff811615611a5c5760ff19166002557f5db9ee0a495bf2e6ff9c91a7834c1ba4fdd244a5e8aa4e537bd38aeae4b073aa6020604051338152a180f35b60405162461bcd60e51b815260206004820152601460248201527314185d5cd8589b194e881b9bdd081c185d5cd95960621b6044820152606490fd5b50346101f55760403660031901126101f557611ab2612959565b336001600160a01b03821603611ace5761037990600435612c92565b60405162461bcd60e51b815260206004820152602f60248201527f416363657373436f6e74726f6c3a2063616e206f6e6c792072656e6f756e636560448201526e103937b632b9903337b91039b2b63360891b6064820152608490fd5b50346101f55760203660031901126101f55760043580825260046020526040822054156101dd57600860408360ff93602095526004855220015416611b736040518092612898565bf35b50346101f557806003193601126101f557602060405162278d008152f35b50346101f55760403660031901126101f557600435611bb0612959565b81835282602052611bc76001604085200154612b88565b81835282602052604083209060018060a01b0316908160005260205260ff6040600020541615611bf5578280f35b8183528260205260408320816000526020526040600020600160ff1982541617905533917f2f8788117e7eff1d82e926ec794901d17c78024a50270940304540a733656f0d8480a438808280f35b50346101f55760a03660031901126101f557611c5d612959565b6044356001600160a01b038116810361226657606435916001600160a01b0383168303612266576084356001600160401b03811161226257611ca3903690600401612903565b3360009081527f0b5e3074591783de38c98fe48d714c80b30e57fd82429182fb900be7ba1589fb60205260409020549094907fe1b23bc24a44d8782bc5d47eb614ee4dcfc802ecc25a23f2f3b6eadcc66d63ad9060ff16156121105750611d08612e27565b6001600160a01b0382161580156120ff575b80156120ee575b6120d657600160035401938460035562278d00420142116120c25760405195611d498761277e565b858752600435602088015260018060a01b038416604088015260018060a01b038516606088015260018060a01b03821660808801528260a08801524260c088015262278d00420160e088015282610100880152826101208801528261014088015282610160880152610180870152816101a0870152816101c087015284825260046020526040822095805187556020810151600188015560018060a01b036040820151166001600160601b0360a01b6002890154161760028801556003870160018060a01b036060830151166001600160601b0360a01b8254161790556004870160018060a01b036080830151166001600160601b0360a01b82541617905560a0810151600588015560c0810151600688015560e08101516007880155600887016101008201516008811015610c5757815461ff00610120850151151560081b1662ff0000610140860151151560101b169160ff63ff000000610160880151151560181b1694169063ffffffff19161717171790556101808101519687516001600160401b0381116120ae57611ee26009830154612744565b98601f8a11612069575b602099508990601f8311600114611ffb57600b939291879183611ff0575b50508160011b916000199060031b1c19161760098201555b6101a0830151600a8201556101c090920151910180546001600160a01b0319166001600160a01b03928316179055831682526006865260408220611f67908690612ded565b6001600160a01b03841682526006865260408220611f86908690612ded565b6001600160a01b031681526006855260408120611fa4908590612ded565b6040519260018060a01b031683528483015260018060a01b031690827fa96863da5e2cb895c2d739ef4b0a2bf93464d7bb3a3bf098c0af12c1b404c43a604060043593a4604051908152f35b015190503880611f0a565b906009840187528a872091875b601f19851681106120525750918391600193600b9695601f19811610612039575b505050811b016009820155611f22565b015160001960f88460031b161c19169055388080612029565b91928c600181928685015181550194019201612008565b60098301865260208620601f830160051c8101602084106120a7575b601f8c0160051c8201811061209b575050611eec565b60008155600101612085565b5080612085565b634e487b7160e01b85526041600452602485fd5b634e487b7160e01b82526011600452602482fd5b60249060405190631629eb8160e11b82526004820152fd5b506001600160a01b03841615611d21565b506001600160a01b03831615611d1a565b61211933612d17565b60405191612126836127b6565b60428352602083019060603683378351156117ef576030825383516001908110156117ef57607860218601536041905b80821161221e5750506121da5760486121ab926121ba926104ec9560405195869376020b1b1b2b9b9a1b7b73a3937b61d1030b1b1b7bab73a1604d1b60208601526116f98151809260206037890191016128bb565b010360288101845201826127d1565b60405162461bcd60e51b81526020600482015291829160248301906128de565b606460405162461bcd60e51b815260206004820152602060248201527f537472696e67733a20686578206c656e67746820696e73756666696369656e746044820152fd5b9091600f811660108110156117ef576f181899199a1a9b1b9c1cb0b131b232b360811b901a61224d8488612d06565b5360041c9180156117d9576000190190612156565b8480fd5b600080fd5b50346101f55760603660031901126101f55760043560249081359182151583036125bd576001600160401b036044358181116124a2576122af903690600401612903565b91838652602094600486526040872054156125a6576122cc6129cf565b6122d4612e27565b8487526007865260ff604088205416156125685784875260058652604087206004810180546001600160a81b0319163360081b610100600160a81b03161760019081179091559060069042600582015501908551858111612555576123398354612744565b601f811161250f575b5088601f82116001146124b157819282918c936124a6575b501b916000199060031b1c19161790555b156123b35750506110907f7b71d2e00379bd165b2750d54298da2414376699827edca2bce2a096c491d2e9916123a084612f15565b60405191829186835233968301906128de565b303b156124a257604051916310ba7f6f60e21b8352846004840152604082840152602260448401527f44697370757465207265736f6c76656420696e206661766f72206f662062757960648401526132b960f11b6084840152868360a48183305af180156124975761244d575b5050506110907f7b71d2e00379bd165b2750d54298da2414376699827edca2bce2a096c491d2e9916123a0565b82969396116124855750604052926110907f7b71d2e00379bd165b2750d54298da2414376699827edca2bce2a096c491d2e938612420565b634e487b7160e01b8352604160045282fd5b6040513d89823e3d90fd5b8580fd5b89015192503861235a565b838b52898b209082601f1981168d5b8d878d8484106124f95750505050106124e0575b5050811b01905561236b565b88015160001960f88460031b161c1916905538806124d4565b86015187559095019493840193869350016124c0565b838b52898b20601f830160051c8101918b841061254b575b601f0160051c019083905b828110612540575050612342565b8c8155018390612532565b9091508190612527565b634e487b7160e01b8a526041600452848afd5b60848560408481519263a82512e760e01b8452600484015282015260116044820152704e6f20646973707574652065786973747360781b6064820152fd5b506040516305b3479760e11b815260048101859052fd5b8380fd5b50346101f55760203660031901126101f557600160406020926004358152808452200154604051908152f35b50346101f55760203660031901126101f55760043563ffffffff60e01b8116809103610d1957602090637965db0b60e01b8114908115612633575b506040519015158152f35b6301ffc9a760e01b14905082612628565b50346101f55760203660031901126101f55760406020916004358152600483522080549060018101546127338260ff60018060a01b03806002840154168160038501541682600486015416600586015490600687015492600788015494600889015496600b600a6126b760098d016127f2565b9b01549d0154169a6040519e8f9e8f908152015260408d015260608c015260808b015260a08a015260c089015260e08801526126f96101008801838316612898565b818160081c161515610120880152818160101c16151561014088015260181c1615156101608601526101e0806101808701528501906128de565b916101a08401526101c08301520390f35b90600182811c92168015612774575b602083101461275e57565b634e487b7160e01b600052602260045260246000fd5b91607f1691612753565b6101e081019081106001600160401b0382111761124057604052565b61010081019081106001600160401b0382111761124057604052565b608081019081106001600160401b0382111761124057604052565b90601f801991011681019081106001600160401b0382111761124057604052565b906040519182600082549261280684612744565b9081845260019485811690816000146128755750600114612832575b5050612830925003836127d1565b565b9093915060005260209081600020936000915b81831061285d57505061283093508201013880612822565b85548884018501529485019487945091830191612845565b91505061283094506020925060ff191682840152151560051b8201013880612822565b9060088210156128a55752565b634e487b7160e01b600052602160045260246000fd5b60005b8381106128ce5750506000910152565b81810151838201526020016128be565b906020916128f7815180928185528580860191016128bb565b601f01601f1916010190565b81601f82011215612266578035906001600160401b0382116112405760405192612937601f8401601f1916602001856127d1565b8284526020838301011161226657816000926020809301838601378301015290565b602435906001600160a01b038216820361226657565b600435906001600160a01b038216820361226657565b9060406003198301126122665760043591602435906001600160401b038211612266576129b491600401612903565b90565b80548210156117ef5760005260206000200190600090565b3360009081527fad3228b676f7d3cd4284a5443f17f1962b36e491b30a40b2405849e597ba5fb5602090815260408083205490929060ff1615612a1157505050565b612a1a33612d17565b9080845190612a28826127b6565b60428252848201926060368537825115612b745760308453825190600191821015612b745790607860218501536041915b818311612b1a57505050612ad85760486104ec938693612abc93612aad985198899376020b1b1b2b9b9a1b7b73a3937b61d1030b1b1b7bab73a1604d1b8a8601526116f9815180928c6037890191016128bb565b010360288101875201856127d1565b5192839262461bcd60e51b8452600484015260248301906128de565b60648486519062461bcd60e51b825280600483015260248201527f537472696e67733a20686578206c656e67746820696e73756666696369656e746044820152fd5b909192600f81166010811015612b60576f181899199a1a9b1b9c1cb0b131b232b360811b901a612b4a8587612d06565b5360041c9280156120c257600019019190612a59565b634e487b7160e01b83526032600452602483fd5b634e487b7160e01b81526032600452602490fd5b600090808252602090828252604092838120338252835260ff848220541615612bb15750505050565b612bba33612d17565b91845190612bc7826127b6565b60428252848201926060368537825115612b745760308453825190600191821015612b745790607860218501536041915b818311612c4c57505050612ad85760486104ec938693612abc93612aad985198899376020b1b1b2b9b9a1b7b73a3937b61d1030b1b1b7bab73a1604d1b8a8601526116f9815180928c6037890191016128bb565b909192600f81166010811015612b60576f181899199a1a9b1b9c1cb0b131b232b360811b901a612c7c8587612d06565b5360041c9280156120c257600019019190612bf8565b9060009180835282602052604083209160018060a01b03169182845260205260ff604084205416612cc257505050565b80835282602052604083208284526020526040832060ff1981541690557ff6391f5c32d9c69d2a47ea670b442974b53935d1edc7fd64eb21e047a839171b339380a4565b9081518110156117ef570160200190565b60405190606082018281106001600160401b0382111761124057604052602a82526020820160403682378251156117ef576030905381516001908110156117ef57607860218401536029905b808211612d735750506121da5790565b9091600f81166010811015612dcc576f181899199a1a9b1b9c1cb0b131b232b360811b901a612da28486612d06565b5360041c918015612db7576000190190612d63565b60246000634e487b7160e01b81526011600452fd5b60246000634e487b7160e01b81526032600452fd5b60088210156128a55752565b80546801000000000000000081101561124057612e0f916001820181556129b7565b819291549060031b91821b91600019901b1916179055565b60ff60025416612e3357565b60405162461bcd60e51b815260206004820152601060248201526f14185d5cd8589b194e881c185d5cd95960821b6044820152606490fd5b600260015414612e7c576002600155565b60405162461bcd60e51b815260206004820152601f60248201527f5265656e7472616e637947756172643a207265656e7472616e742063616c6c006044820152606490fd5b80600052600460205260086040600020015460ff8160081c169081612f06575b81612ef8575b50612eef5750565b61283090612f15565b60ff915060181c1638612ee7565b905060ff8160101c1690612ee1565b6000818152600460205260408120600881019081549160ff83166008811015610c575760048114908115612ff9575b50612fe057600582015460ff19909316600417905542600a820155600b810180546001600160a01b031916331790556003015490929190819081908190819087906001600160a01b0316828215612fd7575bf115612fcb57506040519182527f6244ed823ca6be0f11bc890c3fafcf3c29cb23420c14243642e930b5e07e6d0a60203393a3565b604051903d90823e3d90fd5b506108fc612f96565b6040516327a1146d60e11b815260048101869052602490fd5b600591501438612f4456fea2646970667358221220dd7eb88f62d9222b8b3a690af4b7cdd8d9f71f6d3be537522a609f4660b8395f64736f6c634300081300332f8788117e7eff1d82e926ec794901d17c78024a50270940304540a733656f0d",
  "immutableReferences": {},
  "source": "// SPDX-License-Identifier: MIT\r\npragma solidity ^0.8.19;\r\n\r\nimport \"@openzeppelin/contracts/access/AccessControl.sol\";\r\nimport \"@openzeppelin/contracts/security/ReentrancyGuard.sol\";\r\nimport \"@openzeppelin/contracts/security/Pausable.sol\";\r\nimport \"@openzeppelin/contracts/utils/Counters.sol\";\r\n\r\n/**\r\n * @title EscrowManager\r\n * @dev Advanced escrow system for secure property transactions\r\n * @notice Handles multi-party escrow with automatic release mechanisms\r\n */\r\ncontract EscrowManager is AccessControl, ReentrancyGuard, Pausable {\r\n    using Counters for Counters.Counter;\r\n\r\n    bytes32 public constant LAND_INSPECTOR_ROLE = keccak256(\"LAND_INSPECTOR_ROLE\");\r\n    bytes32 public constant ESCROW_AGENT_ROLE = keccak256(\"ESCROW_AGENT_ROLE\");\r\n\r\n    Counters.Counter private _escrowIds;\r\n\r\n    // Custom errors\r\n    error EscrowNotFound(uint256 escrowId);\r\n    error UnauthorizedEscrowAccess(address caller, uint256 escrowId);\r\n    error InvalidEscrowStatus(uint256 escrowId, string currentStatus);\r\n    error InsufficientEscrowAmount(uint256 escrowId, uint256 required, uint256 available);\r\n    error EscrowExpired(uint256 escrowId, uint256 expiredAt);\r\n    error InvalidParticipant(address participant);\r\n    error EscrowAlreadyResolved(uint256 escrowId);\r\n\r\n    enum EscrowStatus {\r\n        Created,\r\n        Funded,\r\n        SellerApproved,\r\n        InspectorApproved,\r\n        Released,\r\n        Refunded,\r\n        Disputed,\r\n        Expired\r\n    }\r\n\r\n    struct Escrow {\r\n        uint256 id;\r\n        uint256 propertyId;\r\n        address buyer;\r\n        address seller;\r\n        address inspector;\r\n        uint256 amount;\r\n        uint256 createdAt;\r\n        uint256 expiresAt;\r\n        EscrowStatus status;\r\n        bool sellerApproval;\r\n        bool inspectorApproval;\r\n        bool buyerConfirmation;\r\n        string terms;\r\n        uint256 releasedAt;\r\n        address releasedBy;\r\n    }\r\n\r\n    struct DisputeInfo {\r\n        uint256 escrowId;\r\n        address initiator;\r\n        string reason;\r\n        uint256 createdAt;\r\n        bool resolved;\r\n        address resolver;\r\n        uint256 resolvedAt;\r\n        string resolution;\r\n    }\r\n\r\n    // Mappings\r\n    mapping(uint256 => Escrow) public escrows;\r\n    mapping(uint256 => DisputeInfo) public disputes;\r\n    mapping(address => uint256[]) public userEscrows;\r\n    mapping(uint256 => bool) public hasDispute;\r\n\r\n    // Constants\r\n    uint256 public constant ESCROW_TIMEOUT = 30 days;\r\n    uint256 public constant DISPUTE_TIMEOUT = 7 days;\r\n\r\n    // Events\r\n    event EscrowCreated(\r\n        uint256 indexed escrowId,\r\n        uint256 indexed propertyId,\r\n        address indexed buyer,\r\n        address seller,\r\n        uint256 amount\r\n    );\r\n    event EscrowFunded(uint256 indexed escrowId, address indexed buyer, uint256 amount);\r\n    event SellerApprovalGiven(uint256 indexed escrowId, address indexed seller);\r\n    event InspectorApprovalGiven(uint256 indexed escrowId, address indexed inspector);\r\n    event EscrowReleased(uint256 indexed escrowId, address indexed releasedBy, uint256 amount);\r\n    event EscrowRefunded(uint256 indexed escrowId, address indexed buyer, uint256 amount);\r\n    event DisputeRaised(uint256 indexed escrowId, address indexed initiator, string reason);\r\n    event DisputeResolved(uint256 indexed escrowId, address indexed resolver, string resolution);\r\n    event EscrowExpiredEvent(uint256 indexed escrowId, uint256 expiredAt);\r\n\r\n    constructor() {\r\n        _grantRole(DEFAULT_ADMIN_ROLE, msg.sender);\r\n        _grantRole(LAND_INSPECTOR_ROLE, msg.sender);\r\n        _grantRole(ESCROW_AGENT_ROLE, msg.sender);\r\n    }\r\n\r\n    modifier escrowExists(uint256 escrowId) {\r\n        if (escrows[escrowId].id == 0) {\r\n            revert EscrowNotFound(escrowId);\r\n        }\r\n        _;\r\n    }\r\n\r\n    modifier onlyEscrowParticipant(uint256 escrowId) {\r\n        Escrow memory escrow = escrows[escrowId];\r\n        if (msg.sender != escrow.buyer && \r\n            msg.sender != escrow.seller && \r\n            msg.sender != escrow.inspector &&\r\n            !hasRole(DEFAULT_ADMIN_ROLE, msg.sender)) {\r\n            revert UnauthorizedEscrowAccess(msg.sender, escrowId);\r\n        }\r\n        _;\r\n    }\r\n\r\n    modifier notExpired(uint256 escrowId) {\r\n        if (block.timestamp > escrows[escrowId].expiresAt) {\r\n            revert EscrowExpired(escrowId, escrows[escrowId].expiresAt);\r\n        }\r\n        _;\r\n    }\r\n\r\n    /**\r\n     * @dev Create a new escrow for property transaction\r\n     */\r\n    function createEscrow(\r\n        uint256 _propertyId,\r\n        address _buyer,\r\n        address _seller,\r\n        address _inspector,\r\n        string memory _terms\r\n    ) external onlyRole(ESCROW_AGENT_ROLE) whenNotPaused returns (uint256) {\r\n        if (_buyer == address(0) || _seller == address(0) || _inspector == address(0)) {\r\n            revert InvalidParticipant(address(0));\r\n        }\r\n\r\n        _escrowIds.increment();\r\n        uint256 newEscrowId = _escrowIds.current();\r\n\r\n        escrows[newEscrowId] = Escrow({\r\n            id: newEscrowId,\r\n            propertyId: _propertyId,\r\n            buyer: _buyer,\r\n            seller: _seller,\r\n            inspector: _inspector,\r\n            amount: 0,\r\n            createdAt: block.timestamp,\r\n            expiresAt: block.timestamp + ESCROW_TIMEOUT,\r\n            status: EscrowStatus.Created,\r\n            sellerApproval: false,\r\n            inspectorApproval: false,\r\n            buyerConfirmation: false,\r\n            terms: _terms,\r\n            releasedAt: 0,\r\n            releasedBy: address(0)\r\n        });\r\n\r\n        // Track escrows for each participant\r\n        userEscrows[_buyer].push(newEscrowId);\r\n        userEscrows[_seller].push(newEscrowId);\r\n        userEscrows[_inspector].push(newEscrowId);\r\n\r\n        emit EscrowCreated(newEscrowId, _propertyId, _buyer, _seller, 0);\r\n        return newEscrowId;\r\n    }\r\n\r\n    /**\r\n     * @dev Fund the escrow with payment\r\n     */\r\n    function fundEscrow(uint256 escrowId) \r\n        external \r\n        payable \r\n        escrowExists(escrowId) \r\n        nonReentrant \r\n        notExpired(escrowId)\r\n        whenNotPaused \r\n    {\r\n        Escrow storage escrow = escrows[escrowId];\r\n        \r\n        if (msg.sender != escrow.buyer) {\r\n            revert UnauthorizedEscrowAccess(msg.sender, escrowId);\r\n        }\r\n        if (escrow.status != EscrowStatus.Created) {\r\n            revert InvalidEscrowStatus(escrowId, \"Not in Created status\");\r\n        }\r\n        if (msg.value == 0) {\r\n            revert InsufficientEscrowAmount(escrowId, 1, 0);\r\n        }\r\n\r\n        escrow.amount = msg.value;\r\n        escrow.status = EscrowStatus.Funded;\r\n        escrow.buyerConfirmation = true;\r\n\r\n        emit EscrowFunded(escrowId, msg.sender, msg.value);\r\n    }\r\n\r\n    /**\r\n     * @dev Seller approves the transaction\r\n     */\r\n    function approveAsSeller(uint256 escrowId) \r\n        external \r\n        escrowExists(escrowId) \r\n        notExpired(escrowId)\r\n        whenNotPaused \r\n    {\r\n        Escrow storage escrow = escrows[escrowId];\r\n        \r\n        if (msg.sender != escrow.seller) {\r\n            revert UnauthorizedEscrowAccess(msg.sender, escrowId);\r\n        }\r\n        if (escrow.status != EscrowStatus.Funded) {\r\n            revert InvalidEscrowStatus(escrowId, \"Not funded\");\r\n        }\r\n\r\n        escrow.sellerApproval = true;\r\n        escrow.status = EscrowStatus.SellerApproved;\r\n\r\n        emit SellerApprovalGiven(escrowId, msg.sender);\r\n\r\n        // Check if ready for release\r\n        _checkAndRelease(escrowId);\r\n    }\r\n\r\n    /**\r\n     * @dev Inspector approves the transaction\r\n     */\r\n    function approveAsInspector(uint256 escrowId) \r\n        external \r\n        escrowExists(escrowId) \r\n        onlyRole(LAND_INSPECTOR_ROLE)\r\n        notExpired(escrowId)\r\n        whenNotPaused \r\n    {\r\n        Escrow storage escrow = escrows[escrowId];\r\n        \r\n        if (msg.sender != escrow.inspector) {\r\n            revert UnauthorizedEscrowAccess(msg.sender, escrowId);\r\n        }\r\n        if (escrow.status == EscrowStatus.Created) {\r\n            revert InvalidEscrowStatus(escrowId, \"Not funded\");\r\n        }\r\n\r\n        escrow.inspectorApproval = true;\r\n        if (escrow.status == EscrowStatus.SellerApproved) {\r\n            escrow.status = EscrowStatus.InspectorApproved;\r\n        }\r\n\r\n        emit InspectorApprovalGiven(escrowId, msg.sender);\r\n\r\n        // Check if ready for release\r\n        _checkAndRelease(escrowId);\r\n    }\r\n\r\n    /**\r\n     * @dev Internal function to check if escrow can be released\r\n     */\r\n    function _checkAndRelease(uint256 escrowId) internal {\r\n        Escrow storage escrow = escrows[escrowId];\r\n        \r\n        if (escrow.sellerApproval && escrow.inspectorApproval && escrow.buyerConfirmation) {\r\n            _releaseEscrow(escrowId);\r\n        }\r\n    }\r\n\r\n    /**\r\n     * @dev Release escrow funds to seller\r\n     */\r\n    function _releaseEscrow(uint256 escrowId) internal {\r\n        Escrow storage escrow = escrows[escrowId];\r\n        \r\n        if (escrow.status == EscrowStatus.Released || escrow.status == EscrowStatus.Refunded) {\r\n            revert EscrowAlreadyResolved(escrowId);\r\n        }\r\n\r\n        uint256 amount = escrow.amount;\r\n        escrow.status = EscrowStatus.Released;\r\n        escrow.releasedAt = block.timestamp;\r\n        escrow.releasedBy = msg.sender;\r\n\r\n        // Transfer funds to seller\r\n        payable(escrow.seller).transfer(amount);\r\n\r\n        emit EscrowReleased(escrowId, msg.sender, amount);\r\n    }\r\n\r\n    /**\r\n     * @dev Manually release escrow (admin only)\r\n     */\r\n    function manualRelease(uint256 escrowId) \r\n        external \r\n        escrowExists(escrowId) \r\n        onlyRole(DEFAULT_ADMIN_ROLE)\r\n        nonReentrant \r\n        whenNotPaused \r\n    {\r\n        _releaseEscrow(escrowId);\r\n    }\r\n\r\n    /**\r\n     * @dev Refund escrow to buyer\r\n     */\r\n    function refundEscrow(uint256 escrowId, string memory reason) \r\n        external \r\n        escrowExists(escrowId) \r\n        nonReentrant \r\n        whenNotPaused \r\n    {\r\n        Escrow storage escrow = escrows[escrowId];\r\n        \r\n        // Only admin, inspector, or if expired\r\n        bool canRefund = hasRole(DEFAULT_ADMIN_ROLE, msg.sender) ||\r\n                        (msg.sender == escrow.inspector && hasRole(LAND_INSPECTOR_ROLE, msg.sender)) ||\r\n                        block.timestamp > escrow.expiresAt;\r\n        \r\n        if (!canRefund) {\r\n            revert UnauthorizedEscrowAccess(msg.sender, escrowId);\r\n        }\r\n        \r\n        if (escrow.status == EscrowStatus.Released || escrow.status == EscrowStatus.Refunded) {\r\n            revert EscrowAlreadyResolved(escrowId);\r\n        }\r\n\r\n        uint256 amount = escrow.amount;\r\n        escrow.status = EscrowStatus.Refunded;\r\n        escrow.releasedAt = block.timestamp;\r\n        escrow.releasedBy = msg.sender;\r\n\r\n        // Transfer funds back to buyer\r\n        payable(escrow.buyer).transfer(amount);\r\n\r\n        emit EscrowRefunded(escrowId, escrow.buyer, amount);\r\n    }\r\n\r\n    /**\r\n     * @dev Raise a dispute\r\n     */\r\n    function raiseDispute(uint256 escrowId, string memory reason) \r\n        external \r\n        escrowExists(escrowId) \r\n        onlyEscrowParticipant(escrowId)\r\n        whenNotPaused \r\n    {\r\n        if (hasDispute[escrowId]) {\r\n            revert InvalidEscrowStatus(escrowId, \"Dispute already exists\");\r\n        }\r\n\r\n        Escrow storage escrow = escrows[escrowId];\r\n        escrow.status = EscrowStatus.Disputed;\r\n        hasDispute[escrowId] = true;\r\n\r\n        disputes[escrowId] = DisputeInfo({\r\n            escrowId: escrowId,\r\n            initiator: msg.sender,\r\n            reason: reason,\r\n            createdAt: block.timestamp,\r\n            resolved: false,\r\n            resolver: address(0),\r\n            resolvedAt: 0,\r\n            resolution: \"\"\r\n        });\r\n\r\n        emit DisputeRaised(escrowId, msg.sender, reason);\r\n    }\r\n\r\n    /**\r\n     * @dev Resolve a dispute\r\n     */\r\n    function resolveDispute(\r\n        uint256 escrowId, \r\n        bool releaseToSeller, \r\n        string memory resolution\r\n    ) external escrowExists(escrowId) onlyRole(DEFAULT_ADMIN_ROLE) whenNotPaused {\r\n        if (!hasDispute[escrowId]) {\r\n            revert InvalidEscrowStatus(escrowId, \"No dispute exists\");\r\n        }\r\n\r\n        DisputeInfo storage dispute = disputes[escrowId];\r\n        dispute.resolved = true;\r\n        dispute.resolver = msg.sender;\r\n        dispute.resolvedAt = block.timestamp;\r\n        dispute.resolution = resolution;\r\n\r\n        if (releaseToSeller) {\r\n            _releaseEscrow(escrowId);\r\n        } else {\r\n            this.refundEscrow(escrowId, \"Dispute resolved in favor of buyer\");\r\n        }\r\n\r\n        emit DisputeResolved(escrowId, msg.sender, resolution);\r\n    }\r\n\r\n    /**\r\n     * @dev Handle expired escrows\r\n     */\r\n    function handleExpiredEscrow(uint256 escrowId) \r\n        external \r\n        escrowExists(escrowId) \r\n        whenNotPaused \r\n    {\r\n        Escrow storage escrow = escrows[escrowId];\r\n        \r\n        if (block.timestamp <= escrow.expiresAt) {\r\n            revert InvalidEscrowStatus(escrowId, \"Not expired yet\");\r\n        }\r\n        if (escrow.status == EscrowStatus.Released || escrow.status == EscrowStatus.Refunded) {\r\n            revert EscrowAlreadyResolved(escrowId);\r\n        }\r\n\r\n        escrow.status = EscrowStatus.Expired;\r\n        \r\n        // Auto-refund if funded\r\n        if (escrow.amount > 0) {\r\n            payable(escrow.buyer).transfer(escrow.amount);\r\n            emit EscrowRefunded(escrowId, escrow.buyer, escrow.amount);\r\n        }\r\n\r\n        emit EscrowExpiredEvent(escrowId, block.timestamp);\r\n    }\r\n\r\n    // View Functions\r\n    function getEscrow(uint256 escrowId) \r\n        external \r\n        view \r\n        escrowExists(escrowId) \r\n        returns (Escrow memory) \r\n    {\r\n        return escrows[escrowId];\r\n    }\r\n\r\n    function getDispute(uint256 escrowId) \r\n        external \r\n        view \r\n        returns (DisputeInfo memory) \r\n    {\r\n        return disputes[escrowId];\r\n    }\r\n\r\n    function getUserEscrows(address user) \r\n        external \r\n        view \r\n        returns (uint256[] memory) \r\n    {\r\n        return userEscrows[user];\r\n    }\r\n\r\n    function getEscrowStatus(uint256 escrowId) \r\n        external \r\n        view \r\n        escrowExists(escrowId) \r\n        returns (EscrowStatus) \r\n    {\r\n        return escrows[escrowId].status;\r\n    }\r\n\r\n    function getTotalEscrows() external view returns (uint256) {\r\n        return _escrowIds.current();\r\n    }\r\n\r\n    function isEscrowExpired(uint256 escrowId) \r\n        external \r\n        view \r\n        escrowExists(escrowId) \r\n        returns (bool) \r\n    {\r\n        return block.timestamp > escrows[escrowId].expiresAt;\r\n    }\r\n\r\n    function getEscrowBalance(uint256 escrowId) \r\n        external \r\n        view \r\n        escrowExists(escrowId) \r\n        returns (uint256) \r\n    {\r\n        return escrows[escrowId].amount;\r\n    }\r\n\r\n    // Emergency functions\r\n    function pause() external onlyRole(DEFAULT_ADMIN_ROLE) {\r\n        _pause();\r\n    }\r\n\r\n    function unpause() external onlyRole(DEFAULT_ADMIN_ROLE) {\r\n        _unpause();\r\n    }\r\n\r\n    // Emergency withdrawal (only for stuck funds)\r\n    function emergencyWithdraw(uint256 escrowId) \r\n        external \r\n        onlyRole(DEFAULT_ADMIN_ROLE) \r\n        nonReentrant \r\n    {\r\n        Escrow storage escrow = escrows[escrowId];\r\n        require(\r\n            escrow.status == EscrowStatus.Expired || \r\n            block.timestamp > escrow.expiresAt + 90 days,\r\n            \"Emergency withdrawal not allowed\"\r\n        );\r\n\r\n        uint256 amount = escrow.amount;\r\n        escrow.amount = 0;\r\n        escrow.status = EscrowStatus.Refunded;\r\n\r\n        payable(escrow.buyer).transfer(amount);\r\n        emit EscrowRefunded(escrowId, escrow.buyer, amount);\r\n    }\r\n}",
  "sourcePath": "C:\\Users\\jayan\\Desktop\\LandLedger\\LandLedger\\contracts\\EscrowManager.sol",
  "compiler": {
    "name": "solc",
    "version": "0.8.19+commit.7dd6d404.Emscripten.clang"
  },
  "schemaVersion": "3.4.16",
  "updatedAt": "2025-08-22T03:53:40.251Z",
  "devdoc": {
    "details": "Advanced escrow system for secure property transactions",
    "events": {
      "Paused(address)": {
        "details": "Emitted when the pause is triggered by `account`."
      },
      "RoleAdminChanged(bytes32,bytes32,bytes32)": {
        "details": "Emitted when `newAdminRole` is set as ``role``'s admin role, replacing `previousAdminRole` `DEFAULT_ADMIN_ROLE` is the starting admin for all roles, despite {RoleAdminChanged} not being emitted signaling this. _Available since v3.1._"
      },
      "RoleGranted(bytes32,address,address)": {
        "details": "Emitted when `account` is granted `role`. `sender` is the account that originated the contract call, an admin role bearer except when using {AccessControl-_setupRole}."
      },
      "RoleRevoked(bytes32,address,address)": {
        "details": "Emitted when `account` is revoked `role`. `sender` is the account that originated the contract call:   - if using `revokeRole`, it is the admin role bearer   - if using `renounceRole`, it is the role bearer (i.e. `account`)"
      },
      "Unpaused(address)": {
        "details": "Emitted when the pause is lifted by `account`."
      }
    },
    "kind": "dev",
    "methods": {
      "approveAsInspector(uint256)": {
        "details": "Inspector approves the transaction"
      },
      "approveAsSeller(uint256)": {
        "details": "Seller approves the transaction"
      },
      "createEscrow(uint256,address,address,address,string)": {
        "details": "Create a new escrow for property transaction"
      },
      "fundEscrow(uint256)": {
        "details": "Fund the escrow with payment"
      },
      "getRoleAdmin(bytes32)": {
        "details": "Returns the admin role that controls `role`. See {grantRole} and {revokeRole}. To change a role's admin, use {_setRoleAdmin}."
      },
      "grantRole(bytes32,address)": {
        "details": "Grants `role` to `account`. If `account` had not been already granted `role`, emits a {RoleGranted} event. Requirements: - the caller must have ``role``'s admin role. May emit a {RoleGranted} event."
      },
      "handleExpiredEscrow(uint256)": {
        "details": "Handle expired escrows"
      },
      "hasRole(bytes32,address)": {
        "details": "Returns `true` if `account` has been granted `role`."
      },
      "manualRelease(uint256)": {
        "details": "Manually release escrow (admin only)"
      },
      "paused()": {
        "details": "Returns true if the contract is paused, and false otherwise."
      },
      "raiseDispute(uint256,string)": {
        "details": "Raise a dispute"
      },
      "refundEscrow(uint256,string)": {
        "details": "Refund escrow to buyer"
      },
      "renounceRole(bytes32,address)": {
        "details": "Revokes `role` from the calling account. Roles are often managed via {grantRole} and {revokeRole}: this function's purpose is to provide a mechanism for accounts to lose their privileges if they are compromised (such as when a trusted device is misplaced). If the calling account had been revoked `role`, emits a {RoleRevoked} event. Requirements: - the caller must be `account`. May emit a {RoleRevoked} event."
      },
      "resolveDispute(uint256,bool,string)": {
        "details": "Resolve a dispute"
      },
      "revokeRole(bytes32,address)": {
        "details": "Revokes `role` from `account`. If `account` had been granted `role`, emits a {RoleRevoked} event. Requirements: - the caller must have ``role``'s admin role. May emit a {RoleRevoked} event."
      },
      "supportsInterface(bytes4)": {
        "details": "See {IERC165-supportsInterface}."
      }
    },
    "title": "EscrowManager",
    "version": 1
  },
  "userdoc": {
    "kind": "user",
    "methods": {},
    "notice": "Handles multi-party escrow with automatic release mechanisms",
    "version": 1
  }
}