{
  "contractName": "LandRegistry",
  "abi": [
    {
      "inputs": [],
      "stateMutability": "nonpayable",
      "type": "constructor"
    },
    {
      "inputs": [
        {
          "internalType": "address",
          "name": "user",
          "type": "address"
        }
      ],
      "name": "AlreadyRegistered",
      "type": "error"
    },
    {
      "inputs": [
        {
          "internalType": "uint256",
          "name": "required",
          "type": "uint256"
        },
        {
          "internalType": "uint256",
          "name": "provided",
          "type": "uint256"
        }
      ],
      "name": "InsufficientPayment",
      "type": "error"
    },
    {
      "inputs": [
        {
          "internalType": "string",
          "name": "ipfsHash",
          "type": "string"
        }
      ],
      "name": "InvalidDocumentHash",
      "type": "error"
    },
    {
      "inputs": [
        {
          "internalType": "uint256",
          "name": "propertyId",
          "type": "uint256"
        },
        {
          "internalType": "string",
          "name": "status",
          "type": "string"
        }
      ],
      "name": "InvalidPropertyStatus",
      "type": "error"
    },
    {
      "inputs": [
        {
          "internalType": "uint256",
          "name": "propertyId",
          "type": "uint256"
        }
      ],
      "name": "PropertyNotFound",
      "type": "error"
    },
    {
      "inputs": [
        {
          "internalType": "uint256",
          "name": "propertyId",
          "type": "uint256"
        }
      ],
      "name": "PropertyNotVerified",
      "type": "error"
    },
    {
      "inputs": [
        {
          "internalType": "uint256",
          "name": "requestId",
          "type": "uint256"
        }
      ],
      "name": "RequestNotFound",
      "type": "error"
    },
    {
      "inputs": [
        {
          "internalType": "uint256",
          "name": "propertyId",
          "type": "uint256"
        },
        {
          "internalType": "address",
          "name": "caller",
          "type": "address"
        }
      ],
      "name": "TransferNotAuthorized",
      "type": "error"
    },
    {
      "inputs": [
        {
          "internalType": "address",
          "name": "caller",
          "type": "address"
        },
        {
          "internalType": "string",
          "name": "requiredRole",
          "type": "string"
        }
      ],
      "name": "UnauthorizedAccess",
      "type": "error"
    },
    {
      "inputs": [
        {
          "internalType": "address",
          "name": "user",
          "type": "address"
        }
      ],
      "name": "UserNotVerified",
      "type": "error"
    },
    {
      "anonymous": false,
      "inputs": [
        {
          "indexed": true,
          "internalType": "address",
          "name": "admin",
          "type": "address"
        },
        {
          "indexed": false,
          "internalType": "string",
          "name": "reason",
          "type": "string"
        }
      ],
      "name": "EmergencyPause",
      "type": "event"
    },
    {
      "anonymous": false,
      "inputs": [
        {
          "indexed": true,
          "internalType": "address",
          "name": "admin",
          "type": "address"
        }
      ],
      "name": "EmergencyUnpause",
      "type": "event"
    },
    {
      "anonymous": false,
      "inputs": [
        {
          "indexed": true,
          "internalType": "uint256",
          "name": "inspectorId",
          "type": "uint256"
        },
        {
          "indexed": true,
          "internalType": "address",
          "name": "inspector",
          "type": "address"
        },
        {
          "indexed": false,
          "internalType": "string",
          "name": "name",
          "type": "string"
        }
      ],
      "name": "InspectorAppointed",
      "type": "event"
    },
    {
      "anonymous": false,
      "inputs": [
        {
          "indexed": true,
          "internalType": "uint256",
          "name": "propertyId",
          "type": "uint256"
        },
        {
          "indexed": true,
          "internalType": "address",
          "name": "from",
          "type": "address"
        },
        {
          "indexed": true,
          "internalType": "address",
          "name": "to",
          "type": "address"
        }
      ],
      "name": "OwnershipTransferred",
      "type": "event"
    },
    {
      "anonymous": false,
      "inputs": [
        {
          "indexed": false,
          "internalType": "address",
          "name": "account",
          "type": "address"
        }
      ],
      "name": "Paused",
      "type": "event"
    },
    {
      "anonymous": false,
      "inputs": [
        {
          "indexed": true,
          "internalType": "uint256",
          "name": "requestId",
          "type": "uint256"
        },
        {
          "indexed": false,
          "internalType": "uint256",
          "name": "amount",
          "type": "uint256"
        },
        {
          "indexed": true,
          "internalType": "address",
          "name": "buyer",
          "type": "address"
        }
      ],
      "name": "PaymentReceived",
      "type": "event"
    },
    {
      "anonymous": false,
      "inputs": [
        {
          "indexed": true,
          "internalType": "uint256",
          "name": "propertyId",
          "type": "uint256"
        },
        {
          "indexed": true,
          "internalType": "address",
          "name": "owner",
          "type": "address"
        },
        {
          "indexed": false,
          "internalType": "string",
          "name": "ulpin",
          "type": "string"
        }
      ],
      "name": "PropertyListed",
      "type": "event"
    },
    {
      "anonymous": false,
      "inputs": [
        {
          "indexed": true,
          "internalType": "uint256",
          "name": "propertyId",
          "type": "uint256"
        },
        {
          "indexed": true,
          "internalType": "address",
          "name": "verifier",
          "type": "address"
        },
        {
          "indexed": false,
          "internalType": "enum LandRegistry.PropertyStatus",
          "name": "status",
          "type": "uint8"
        }
      ],
      "name": "PropertyVerified",
      "type": "event"
    },
    {
      "anonymous": false,
      "inputs": [
        {
          "indexed": true,
          "internalType": "uint256",
          "name": "requestId",
          "type": "uint256"
        },
        {
          "indexed": true,
          "internalType": "address",
          "name": "seller",
          "type": "address"
        }
      ],
      "name": "PurchaseApproved",
      "type": "event"
    },
    {
      "anonymous": false,
      "inputs": [
        {
          "indexed": true,
          "internalType": "uint256",
          "name": "requestId",
          "type": "uint256"
        },
        {
          "indexed": true,
          "internalType": "uint256",
          "name": "propertyId",
          "type": "uint256"
        },
        {
          "indexed": true,
          "internalType": "address",
          "name": "buyer",
          "type": "address"
        }
      ],
      "name": "PurchaseRequested",
      "type": "event"
    },
    {
      "anonymous": false,
      "inputs": [
        {
          "indexed": true,
          "internalType": "bytes32",
          "name": "role",
          "type": "bytes32"
        },
        {
          "indexed": true,
          "internalType": "bytes32",
          "name": "previousAdminRole",
          "type": "bytes32"
        },
        {
          "indexed": true,
          "internalType": "bytes32",
          "name": "newAdminRole",
          "type": "bytes32"
        }
      ],
      "name": "RoleAdminChanged",
      "type": "event"
    },
    {
      "anonymous": false,
      "inputs": [
        {
          "indexed": true,
          "internalType": "bytes32",
          "name": "role",
          "type": "bytes32"
        },
        {
          "indexed": true,
          "internalType": "address",
          "name": "account",
          "type": "address"
        },
        {
          "indexed": true,
          "internalType": "address",
          "name": "sender",
          "type": "address"
        }
      ],
      "name": "RoleGranted",
      "type": "event"
    },
    {
      "anonymous": false,
      "inputs": [
        {
          "indexed": true,
          "internalType": "bytes32",
          "name": "role",
          "type": "bytes32"
        },
        {
          "indexed": true,
          "internalType": "address",
          "name": "account",
          "type": "address"
        },
        {
          "indexed": true,
          "internalType": "address",
          "name": "sender",
          "type": "address"
        }
      ],
      "name": "RoleRevoked",
      "type": "event"
    },
    {
      "anonymous": false,
      "inputs": [
        {
          "indexed": false,
          "internalType": "address",
          "name": "account",
          "type": "address"
        }
      ],
      "name": "Unpaused",
      "type": "event"
    },
    {
      "anonymous": false,
      "inputs": [
        {
          "indexed": true,
          "internalType": "address",
          "name": "user",
          "type": "address"
        },
        {
          "indexed": false,
          "internalType": "string",
          "name": "role",
          "type": "string"
        },
        {
          "indexed": false,
          "internalType": "uint256",
          "name": "timestamp",
          "type": "uint256"
        }
      ],
      "name": "UserRegistered",
      "type": "event"
    },
    {
      "anonymous": false,
      "inputs": [
        {
          "indexed": true,
          "internalType": "address",
          "name": "user",
          "type": "address"
        },
        {
          "indexed": true,
          "internalType": "address",
          "name": "verifier",
          "type": "address"
        },
        {
          "indexed": false,
          "internalType": "enum LandRegistry.UserStatus",
          "name": "status",
          "type": "uint8"
        }
      ],
      "name": "UserVerified",
      "type": "event"
    },
    {
      "inputs": [],
      "name": "BUYER_ROLE",
      "outputs": [
        {
          "internalType": "bytes32",
          "name": "",
          "type": "bytes32"
        }
      ],
      "stateMutability": "view",
      "type": "function"
    },
    {
      "inputs": [],
      "name": "DEFAULT_ADMIN_ROLE",
      "outputs": [
        {
          "internalType": "bytes32",
          "name": "",
          "type": "bytes32"
        }
      ],
      "stateMutability": "view",
      "type": "function"
    },
    {
      "inputs": [],
      "name": "LAND_INSPECTOR_ROLE",
      "outputs": [
        {
          "internalType": "bytes32",
          "name": "",
          "type": "bytes32"
        }
      ],
      "stateMutability": "view",
      "type": "function"
    },
    {
      "inputs": [],
      "name": "SELLER_ROLE",
      "outputs": [
        {
          "internalType": "bytes32",
          "name": "",
          "type": "bytes32"
        }
      ],
      "stateMutability": "view",
      "type": "function"
    },
    {
      "inputs": [
        {
          "internalType": "address",
          "name": "",
          "type": "address"
        }
      ],
      "name": "buyers",
      "outputs": [
        {
          "internalType": "address",
          "name": "id",
          "type": "address"
        },
        {
          "internalType": "string",
          "name": "name",
          "type": "string"
        },
        {
          "internalType": "uint256",
          "name": "age",
          "type": "uint256"
        },
        {
          "internalType": "string",
          "name": "city",
          "type": "string"
        },
        {
          "internalType": "string",
          "name": "aadharNumber",
          "type": "string"
        },
        {
          "internalType": "string",
          "name": "panNumber",
          "type": "string"
        },
        {
          "internalType": "string",
          "name": "email",
          "type": "string"
        },
        {
          "internalType": "string",
          "name": "documentHash",
          "type": "string"
        },
        {
          "internalType": "enum LandRegistry.UserStatus",
          "name": "status",
          "type": "uint8"
        },
        {
          "internalType": "uint256",
          "name": "registeredAt",
          "type": "uint256"
        },
        {
          "internalType": "uint256",
          "name": "verifiedAt",
          "type": "uint256"
        },
        {
          "internalType": "address",
          "name": "verifiedBy",
          "type": "address"
        }
      ],
      "stateMutability": "view",
      "type": "function"
    },
    {
      "inputs": [
        {
          "internalType": "uint256",
          "name": "",
          "type": "uint256"
        }
      ],
      "name": "buyersList",
      "outputs": [
        {
          "internalType": "address",
          "name": "",
          "type": "address"
        }
      ],
      "stateMutability": "view",
      "type": "function"
    },
    {
      "inputs": [
        {
          "internalType": "bytes32",
          "name": "role",
          "type": "bytes32"
        }
      ],
      "name": "getRoleAdmin",
      "outputs": [
        {
          "internalType": "bytes32",
          "name": "",
          "type": "bytes32"
        }
      ],
      "stateMutability": "view",
      "type": "function"
    },
    {
      "inputs": [
        {
          "internalType": "bytes32",
          "name": "role",
          "type": "bytes32"
        },
        {
          "internalType": "address",
          "name": "account",
          "type": "address"
        }
      ],
      "name": "grantRole",
      "outputs": [],
      "stateMutability": "nonpayable",
      "type": "function"
    },
    {
      "inputs": [
        {
          "internalType": "bytes32",
          "name": "role",
          "type": "bytes32"
        },
        {
          "internalType": "address",
          "name": "account",
          "type": "address"
        }
      ],
      "name": "hasRole",
      "outputs": [
        {
          "internalType": "bool",
          "name": "",
          "type": "bool"
        }
      ],
      "stateMutability": "view",
      "type": "function"
    },
    {
      "inputs": [
        {
          "internalType": "uint256",
          "name": "",
          "type": "uint256"
        }
      ],
      "name": "inspectors",
      "outputs": [
        {
          "internalType": "uint256",
          "name": "id",
          "type": "uint256"
        },
        {
          "internalType": "address",
          "name": "inspector",
          "type": "address"
        },
        {
          "internalType": "string",
          "name": "name",
          "type": "string"
        },
        {
          "internalType": "uint256",
          "name": "age",
          "type": "uint256"
        },
        {
          "internalType": "string",
          "name": "designation",
          "type": "string"
        },
        {
          "internalType": "string",
          "name": "jurisdiction",
          "type": "string"
        },
        {
          "internalType": "bool",
          "name": "isActive",
          "type": "bool"
        },
        {
          "internalType": "uint256",
          "name": "appointedAt",
          "type": "uint256"
        }
      ],
      "stateMutability": "view",
      "type": "function"
    },
    {
      "inputs": [
        {
          "internalType": "address",
          "name": "",
          "type": "address"
        }
      ],
      "name": "isRegisteredBuyer",
      "outputs": [
        {
          "internalType": "bool",
          "name": "",
          "type": "bool"
        }
      ],
      "stateMutability": "view",
      "type": "function"
    },
    {
      "inputs": [
        {
          "internalType": "address",
          "name": "",
          "type": "address"
        }
      ],
      "name": "isRegisteredSeller",
      "outputs": [
        {
          "internalType": "bool",
          "name": "",
          "type": "bool"
        }
      ],
      "stateMutability": "view",
      "type": "function"
    },
    {
      "inputs": [],
      "name": "paused",
      "outputs": [
        {
          "internalType": "bool",
          "name": "",
          "type": "bool"
        }
      ],
      "stateMutability": "view",
      "type": "function"
    },
    {
      "inputs": [
        {
          "internalType": "uint256",
          "name": "",
          "type": "uint256"
        }
      ],
      "name": "properties",
      "outputs": [
        {
          "internalType": "uint256",
          "name": "id",
          "type": "uint256"
        },
        {
          "internalType": "address",
          "name": "owner",
          "type": "address"
        },
        {
          "internalType": "uint256",
          "name": "area",
          "type": "uint256"
        },
        {
          "internalType": "string",
          "name": "city",
          "type": "string"
        },
        {
          "internalType": "string",
          "name": "state",
          "type": "string"
        },
        {
          "internalType": "uint256",
          "name": "price",
          "type": "uint256"
        },
        {
          "internalType": "string",
          "name": "ulpin",
          "type": "string"
        },
        {
          "internalType": "uint256",
          "name": "surveyNumber",
          "type": "uint256"
        },
        {
          "internalType": "string",
          "name": "ipfsHash",
          "type": "string"
        },
        {
          "internalType": "string",
          "name": "documentHash",
          "type": "string"
        },
        {
          "internalType": "enum LandRegistry.PropertyStatus",
          "name": "status",
          "type": "uint8"
        },
        {
          "internalType": "uint256",
          "name": "createdAt",
          "type": "uint256"
        },
        {
          "internalType": "uint256",
          "name": "verifiedAt",
          "type": "uint256"
        },
        {
          "internalType": "address",
          "name": "verifiedBy",
          "type": "address"
        }
      ],
      "stateMutability": "view",
      "type": "function"
    },
    {
      "inputs": [
        {
          "internalType": "uint256",
          "name": "",
          "type": "uint256"
        }
      ],
      "name": "propertiesList",
      "outputs": [
        {
          "internalType": "uint256",
          "name": "",
          "type": "uint256"
        }
      ],
      "stateMutability": "view",
      "type": "function"
    },
    {
      "inputs": [
        {
          "internalType": "uint256",
          "name": "",
          "type": "uint256"
        }
      ],
      "name": "propertyOwner",
      "outputs": [
        {
          "internalType": "address",
          "name": "",
          "type": "address"
        }
      ],
      "stateMutability": "view",
      "type": "function"
    },
    {
      "inputs": [
        {
          "internalType": "uint256",
          "name": "",
          "type": "uint256"
        }
      ],
      "name": "purchaseRequests",
      "outputs": [
        {
          "internalType": "uint256",
          "name": "id",
          "type": "uint256"
        },
        {
          "internalType": "uint256",
          "name": "propertyId",
          "type": "uint256"
        },
        {
          "internalType": "address",
          "name": "seller",
          "type": "address"
        },
        {
          "internalType": "address",
          "name": "buyer",
          "type": "address"
        },
        {
          "internalType": "uint256",
          "name": "offerPrice",
          "type": "uint256"
        },
        {
          "internalType": "enum LandRegistry.RequestStatus",
          "name": "status",
          "type": "uint8"
        },
        {
          "internalType": "uint256",
          "name": "createdAt",
          "type": "uint256"
        },
        {
          "internalType": "uint256",
          "name": "approvedAt",
          "type": "uint256"
        },
        {
          "internalType": "bool",
          "name": "paymentReceived",
          "type": "bool"
        },
        {
          "internalType": "uint256",
          "name": "escrowAmount",
          "type": "uint256"
        }
      ],
      "stateMutability": "view",
      "type": "function"
    },
    {
      "inputs": [
        {
          "internalType": "bytes32",
          "name": "role",
          "type": "bytes32"
        },
        {
          "internalType": "address",
          "name": "account",
          "type": "address"
        }
      ],
      "name": "renounceRole",
      "outputs": [],
      "stateMutability": "nonpayable",
      "type": "function"
    },
    {
      "inputs": [
        {
          "internalType": "bytes32",
          "name": "role",
          "type": "bytes32"
        },
        {
          "internalType": "address",
          "name": "account",
          "type": "address"
        }
      ],
      "name": "revokeRole",
      "outputs": [],
      "stateMutability": "nonpayable",
      "type": "function"
    },
    {
      "inputs": [
        {
          "internalType": "address",
          "name": "",
          "type": "address"
        }
      ],
      "name": "sellers",
      "outputs": [
        {
          "internalType": "address",
          "name": "id",
          "type": "address"
        },
        {
          "internalType": "string",
          "name": "name",
          "type": "string"
        },
        {
          "internalType": "uint256",
          "name": "age",
          "type": "uint256"
        },
        {
          "internalType": "string",
          "name": "city",
          "type": "string"
        },
        {
          "internalType": "string",
          "name": "aadharNumber",
          "type": "string"
        },
        {
          "internalType": "string",
          "name": "panNumber",
          "type": "string"
        },
        {
          "internalType": "string",
          "name": "email",
          "type": "string"
        },
        {
          "internalType": "string",
          "name": "documentHash",
          "type": "string"
        },
        {
          "internalType": "enum LandRegistry.UserStatus",
          "name": "status",
          "type": "uint8"
        },
        {
          "internalType": "uint256",
          "name": "registeredAt",
          "type": "uint256"
        },
        {
          "internalType": "uint256",
          "name": "verifiedAt",
          "type": "uint256"
        },
        {
          "internalType": "address",
          "name": "verifiedBy",
          "type": "address"
        }
      ],
      "stateMutability": "view",
      "type": "function"
    },
    {
      "inputs": [
        {
          "internalType": "uint256",
          "name": "",
          "type": "uint256"
        }
      ],
      "name": "sellersList",
      "outputs": [
        {
          "internalType": "address",
          "name": "",
          "type": "address"
        }
      ],
      "stateMutability": "view",
      "type": "function"
    },
    {
      "inputs": [
        {
          "internalType": "bytes4",
          "name": "interfaceId",
          "type": "bytes4"
        }
      ],
      "name": "supportsInterface",
      "outputs": [
        {
          "internalType": "bool",
          "name": "",
          "type": "bool"
        }
      ],
      "stateMutability": "view",
      "type": "function"
    },
    {
      "inputs": [
        {
          "internalType": "string",
          "name": "",
          "type": "string"
        }
      ],
      "name": "usedAadharNumbers",
      "outputs": [
        {
          "internalType": "bool",
          "name": "",
          "type": "bool"
        }
      ],
      "stateMutability": "view",
      "type": "function"
    },
    {
      "inputs": [
        {
          "internalType": "string",
          "name": "",
          "type": "string"
        }
      ],
      "name": "usedPANNumbers",
      "outputs": [
        {
          "internalType": "bool",
          "name": "",
          "type": "bool"
        }
      ],
      "stateMutability": "view",
      "type": "function"
    },
    {
      "inputs": [
        {
          "internalType": "string",
          "name": "",
          "type": "string"
        }
      ],
      "name": "usedULPINs",
      "outputs": [
        {
          "internalType": "bool",
          "name": "",
          "type": "bool"
        }
      ],
      "stateMutability": "view",
      "type": "function"
    },
    {
      "inputs": [
        {
          "internalType": "string",
          "name": "_name",
          "type": "string"
        },
        {
          "internalType": "uint256",
          "name": "_age",
          "type": "uint256"
        },
        {
          "internalType": "string",
          "name": "_city",
          "type": "string"
        },
        {
          "internalType": "string",
          "name": "_aadharNumber",
          "type": "string"
        },
        {
          "internalType": "string",
          "name": "_panNumber",
          "type": "string"
        },
        {
          "internalType": "string",
          "name": "_email",
          "type": "string"
        },
        {
          "internalType": "string",
          "name": "_documentHash",
          "type": "string"
        }
      ],
      "name": "registerSeller",
      "outputs": [],
      "stateMutability": "nonpayable",
      "type": "function"
    },
    {
      "inputs": [
        {
          "internalType": "string",
          "name": "_name",
          "type": "string"
        },
        {
          "internalType": "uint256",
          "name": "_age",
          "type": "uint256"
        },
        {
          "internalType": "string",
          "name": "_city",
          "type": "string"
        },
        {
          "internalType": "string",
          "name": "_aadharNumber",
          "type": "string"
        },
        {
          "internalType": "string",
          "name": "_panNumber",
          "type": "string"
        },
        {
          "internalType": "string",
          "name": "_email",
          "type": "string"
        },
        {
          "internalType": "string",
          "name": "_documentHash",
          "type": "string"
        }
      ],
      "name": "registerBuyer",
      "outputs": [],
      "stateMutability": "nonpayable",
      "type": "function"
    },
    {
      "inputs": [
        {
          "internalType": "address",
          "name": "_seller",
          "type": "address"
        },
        {
          "internalType": "bool",
          "name": "_approve",
          "type": "bool"
        }
      ],
      "name": "verifySeller",
      "outputs": [],
      "stateMutability": "nonpayable",
      "type": "function"
    },
    {
      "inputs": [
        {
          "internalType": "address",
          "name": "_buyer",
          "type": "address"
        },
        {
          "internalType": "bool",
          "name": "_approve",
          "type": "bool"
        }
      ],
      "name": "verifyBuyer",
      "outputs": [],
      "stateMutability": "nonpayable",
      "type": "function"
    },
    {
      "inputs": [
        {
          "internalType": "uint256",
          "name": "_area",
          "type": "uint256"
        },
        {
          "internalType": "string",
          "name": "_city",
          "type": "string"
        },
        {
          "internalType": "string",
          "name": "_state",
          "type": "string"
        },
        {
          "internalType": "uint256",
          "name": "_price",
          "type": "uint256"
        },
        {
          "internalType": "string",
          "name": "_ulpin",
          "type": "string"
        },
        {
          "internalType": "uint256",
          "name": "_surveyNumber",
          "type": "uint256"
        },
        {
          "internalType": "string",
          "name": "_ipfsHash",
          "type": "string"
        },
        {
          "internalType": "string",
          "name": "_documentHash",
          "type": "string"
        }
      ],
      "name": "listProperty",
      "outputs": [
        {
          "internalType": "uint256",
          "name": "",
          "type": "uint256"
        }
      ],
      "stateMutability": "nonpayable",
      "type": "function"
    },
    {
      "inputs": [
        {
          "internalType": "uint256",
          "name": "_propertyId",
          "type": "uint256"
        },
        {
          "internalType": "bool",
          "name": "_approve",
          "type": "bool"
        }
      ],
      "name": "verifyProperty",
      "outputs": [],
      "stateMutability": "nonpayable",
      "type": "function"
    },
    {
      "inputs": [
        {
          "internalType": "uint256",
          "name": "_propertyId",
          "type": "uint256"
        },
        {
          "internalType": "uint256",
          "name": "_offerPrice",
          "type": "uint256"
        }
      ],
      "name": "requestPurchase",
      "outputs": [
        {
          "internalType": "uint256",
          "name": "",
          "type": "uint256"
        }
      ],
      "stateMutability": "nonpayable",
      "type": "function"
    },
    {
      "inputs": [
        {
          "internalType": "uint256",
          "name": "_requestId",
          "type": "uint256"
        }
      ],
      "name": "approvePurchaseRequest",
      "outputs": [],
      "stateMutability": "nonpayable",
      "type": "function"
    },
    {
      "inputs": [
        {
          "internalType": "uint256",
          "name": "_requestId",
          "type": "uint256"
        }
      ],
      "name": "makePayment",
      "outputs": [],
      "stateMutability": "payable",
      "type": "function"
    },
    {
      "inputs": [
        {
          "internalType": "uint256",
          "name": "_requestId",
          "type": "uint256"
        }
      ],
      "name": "approveOwnershipTransfer",
      "outputs": [],
      "stateMutability": "nonpayable",
      "type": "function"
    },
    {
      "inputs": [
        {
          "internalType": "address",
          "name": "_inspector",
          "type": "address"
        },
        {
          "internalType": "string",
          "name": "_name",
          "type": "string"
        },
        {
          "internalType": "uint256",
          "name": "_age",
          "type": "uint256"
        },
        {
          "internalType": "string",
          "name": "_designation",
          "type": "string"
        },
        {
          "internalType": "string",
          "name": "_jurisdiction",
          "type": "string"
        }
      ],
      "name": "addLandInspector",
      "outputs": [],
      "stateMutability": "nonpayable",
      "type": "function"
    },
    {
      "inputs": [
        {
          "internalType": "string",
          "name": "reason",
          "type": "string"
        }
      ],
      "name": "pause",
      "outputs": [],
      "stateMutability": "nonpayable",
      "type": "function"
    },
    {
      "inputs": [],
      "name": "unpause",
      "outputs": [],
      "stateMutability": "nonpayable",
      "type": "function"
    },
    {
      "inputs": [
        {
          "internalType": "uint256",
          "name": "_propertyId",
          "type": "uint256"
        }
      ],
      "name": "getProperty",
      "outputs": [
        {
          "components": [
            {
              "internalType": "uint256",
              "name": "id",
              "type": "uint256"
            },
            {
              "internalType": "address",
              "name": "owner",
              "type": "address"
            },
            {
              "internalType": "uint256",
              "name": "area",
              "type": "uint256"
            },
            {
              "internalType": "string",
              "name": "city",
              "type": "string"
            },
            {
              "internalType": "string",
              "name": "state",
              "type": "string"
            },
            {
              "internalType": "uint256",
              "name": "price",
              "type": "uint256"
            },
            {
              "internalType": "string",
              "name": "ulpin",
              "type": "string"
            },
            {
              "internalType": "uint256",
              "name": "surveyNumber",
              "type": "uint256"
            },
            {
              "internalType": "string",
              "name": "ipfsHash",
              "type": "string"
            },
            {
              "internalType": "string",
              "name": "documentHash",
              "type": "string"
            },
            {
              "internalType": "enum LandRegistry.PropertyStatus",
              "name": "status",
              "type": "uint8"
            },
            {
              "internalType": "uint256",
              "name": "createdAt",
              "type": "uint256"
            },
            {
              "internalType": "uint256",
              "name": "verifiedAt",
              "type": "uint256"
            },
            {
              "internalType": "address",
              "name": "verifiedBy",
              "type": "address"
            }
          ],
          "internalType": "struct LandRegistry.Property",
          "name": "",
          "type": "tuple"
        }
      ],
      "stateMutability": "view",
      "type": "function"
    },
    {
      "inputs": [
        {
          "internalType": "uint256",
          "name": "_requestId",
          "type": "uint256"
        }
      ],
      "name": "getPurchaseRequest",
      "outputs": [
        {
          "components": [
            {
              "internalType": "uint256",
              "name": "id",
              "type": "uint256"
            },
            {
              "internalType": "uint256",
              "name": "propertyId",
              "type": "uint256"
            },
            {
              "internalType": "address",
              "name": "seller",
              "type": "address"
            },
            {
              "internalType": "address",
              "name": "buyer",
              "type": "address"
            },
            {
              "internalType": "uint256",
              "name": "offerPrice",
              "type": "uint256"
            },
            {
              "internalType": "enum LandRegistry.RequestStatus",
              "name": "status",
              "type": "uint8"
            },
            {
              "internalType": "uint256",
              "name": "createdAt",
              "type": "uint256"
            },
            {
              "internalType": "uint256",
              "name": "approvedAt",
              "type": "uint256"
            },
            {
              "internalType": "bool",
              "name": "paymentReceived",
              "type": "bool"
            },
            {
              "internalType": "uint256",
              "name": "escrowAmount",
              "type": "uint256"
            }
          ],
          "internalType": "struct LandRegistry.PurchaseRequest",
          "name": "",
          "type": "tuple"
        }
      ],
      "stateMutability": "view",
      "type": "function"
    },
    {
      "inputs": [
        {
          "internalType": "address",
          "name": "_seller",
          "type": "address"
        }
      ],
      "name": "getSellerDetails",
      "outputs": [
        {
          "components": [
            {
              "internalType": "address",
              "name": "id",
              "type": "address"
            },
            {
              "internalType": "string",
              "name": "name",
              "type": "string"
            },
            {
              "internalType": "uint256",
              "name": "age",
              "type": "uint256"
            },
            {
              "internalType": "string",
              "name": "city",
              "type": "string"
            },
            {
              "internalType": "string",
              "name": "aadharNumber",
              "type": "string"
            },
            {
              "internalType": "string",
              "name": "panNumber",
              "type": "string"
            },
            {
              "internalType": "string",
              "name": "email",
              "type": "string"
            },
            {
              "internalType": "string",
              "name": "documentHash",
              "type": "string"
            },
            {
              "internalType": "enum LandRegistry.UserStatus",
              "name": "status",
              "type": "uint8"
            },
            {
              "internalType": "uint256",
              "name": "registeredAt",
              "type": "uint256"
            },
            {
              "internalType": "uint256",
              "name": "verifiedAt",
              "type": "uint256"
            },
            {
              "internalType": "address",
              "name": "verifiedBy",
              "type": "address"
            }
          ],
          "internalType": "struct LandRegistry.User",
          "name": "",
          "type": "tuple"
        }
      ],
      "stateMutability": "view",
      "type": "function"
    },
    {
      "inputs": [
        {
          "internalType": "address",
          "name": "_buyer",
          "type": "address"
        }
      ],
      "name": "getBuyerDetails",
      "outputs": [
        {
          "components": [
            {
              "internalType": "address",
              "name": "id",
              "type": "address"
            },
            {
              "internalType": "string",
              "name": "name",
              "type": "string"
            },
            {
              "internalType": "uint256",
              "name": "age",
              "type": "uint256"
            },
            {
              "internalType": "string",
              "name": "city",
              "type": "string"
            },
            {
              "internalType": "string",
              "name": "aadharNumber",
              "type": "string"
            },
            {
              "internalType": "string",
              "name": "panNumber",
              "type": "string"
            },
            {
              "internalType": "string",
              "name": "email",
              "type": "string"
            },
            {
              "internalType": "string",
              "name": "documentHash",
              "type": "string"
            },
            {
              "internalType": "enum LandRegistry.UserStatus",
              "name": "status",
              "type": "uint8"
            },
            {
              "internalType": "uint256",
              "name": "registeredAt",
              "type": "uint256"
            },
            {
              "internalType": "uint256",
              "name": "verifiedAt",
              "type": "uint256"
            },
            {
              "internalType": "address",
              "name": "verifiedBy",
              "type": "address"
            }
          ],
          "internalType": "struct LandRegistry.User",
          "name": "",
          "type": "tuple"
        }
      ],
      "stateMutability": "view",
      "type": "function"
    },
    {
      "inputs": [],
      "name": "getAllProperties",
      "outputs": [
        {
          "internalType": "uint256[]",
          "name": "",
          "type": "uint256[]"
        }
      ],
      "stateMutability": "view",
      "type": "function"
    },
    {
      "inputs": [],
      "name": "getAllSellers",
      "outputs": [
        {
          "internalType": "address[]",
          "name": "",
          "type": "address[]"
        }
      ],
      "stateMutability": "view",
      "type": "function"
    },
    {
      "inputs": [],
      "name": "getAllBuyers",
      "outputs": [
        {
          "internalType": "address[]",
          "name": "",
          "type": "address[]"
        }
      ],
      "stateMutability": "view",
      "type": "function"
    },
    {
      "inputs": [],
      "name": "getTotalProperties",
      "outputs": [
        {
          "internalType": "uint256",
          "name": "",
          "type": "uint256"
        }
      ],
      "stateMutability": "view",
      "type": "function"
    },
    {
      "inputs": [],
      "name": "getTotalRequests",
      "outputs": [
        {
          "internalType": "uint256",
          "name": "",
          "type": "uint256"
        }
      ],
      "stateMutability": "view",
      "type": "function"
    },
    {
      "inputs": [],
      "name": "getTotalInspectors",
      "outputs": [
        {
          "internalType": "uint256",
          "name": "",
          "type": "uint256"
        }
      ],
      "stateMutability": "view",
      "type": "function"
    },
    {
      "inputs": [
        {
          "internalType": "uint256",
          "name": "_propertyId",
          "type": "uint256"
        }
      ],
      "name": "isPropertyVerified",
      "outputs": [
        {
          "internalType": "bool",
          "name": "",
          "type": "bool"
        }
      ],
      "stateMutability": "view",
      "type": "function"
    },
    {
      "inputs": [
        {
          "internalType": "address",
          "name": "_user",
          "type": "address"
        }
      ],
      "name": "isUserVerified",
      "outputs": [
        {
          "internalType": "bool",
          "name": "",
          "type": "bool"
        }
      ],
      "stateMutability": "view",
      "type": "function"
    },
    {
      "inputs": [
        {
          "internalType": "uint256",
          "name": "_propertyId",
          "type": "uint256"
        }
      ],
      "name": "getPropertyOwner",
      "outputs": [
        {
          "internalType": "address",
          "name": "",
          "type": "address"
        }
      ],
      "stateMutability": "view",
      "type": "function"
    }
  ],
  "bytecode": "0x6040608081523462000668576001805560ff1960025416600255600080526000602052806000203360005260205260ff8160002054161562000628575b62000047336200068d565b620000516200066d565b601481527f4368696566204c616e6420496e73706563746f720000000000000000000000006020820152620000856200066d565b60128152712234b9ba3934b1ba1021b7b63632b1ba37b960711b6020820152620000ae6200066d565b600d81526c416c6c2044697374726963747360981b602082015260058054600101908190558451909261010082016001600160401b0381118382101762000446578652838252602082019233845286830191868352602d6060850152608084015260a0830152600160c08301524260e0830152836000526009602052856000209282518455600184019060018060a01b0390511660018060a01b03198254161790555180519060018060401b03821162000446576002840154908160011c9160018116156200061d575b6001166020831014620004255781601f849311620005c5575b50602090601f83116001146200054e5760009262000542575b50508160011b916000199060031b1c19161760028301555b6060810151600383015560808101518051906001600160401b0382116200044657600484015490600182811c9216801562000537575b6020831014620004255781601f849311620004df575b50602090601f831160011462000468576000926200045c575b50508160011b916000199060031b1c19161760048301555b60a0810151805160058401916001600160401b03821162000446578254600181811c911680156200043b575b60208210146200042557601f8111620003d8575b50602090601f83116001146200036557918060e094926007969460009262000359575b50508160011b916000199060031b1c19161790555b6006840160c0820151151560ff801983541691161790550151910155620002de336200068d565b82516020815282519283602083015260005b8481106200034357505080600085857fbbd8a75f1fbaec13354cc10a2461302f8853ee06139186b553270015835bc55d9401015284813395601f80199101168101030190a351614fb590816200072e8239f35b80602080928401015187828601015201620002f0565b015190503880620002a2565b90601f198316918460005260206000209260005b818110620003bf57509260019285926007989660e0989610620003a5575b505050811b019055620002b7565b015160001960f88460031b161c1916905538808062000397565b9293602060018192878601518155019501930162000379565b836000526020600020601f840160051c810191602085106200041a575b601f0160051c01905b8181106200040d57506200027f565b60008155600101620003fe565b9091508190620003f5565b634e487b7160e01b600052602260045260246000fd5b90607f16906200026b565b634e487b7160e01b600052604160045260246000fd5b01519050388062000227565b9250600485016000526020600020906000935b601f1984168510620004c3576001945083601f19811610620004a9575b505050811b0160048301556200023f565b015160001960f88460031b161c1916905538808062000498565b818101518355602094850194600190930192909101906200047b565b909150600485016000526020600020601f840160051c8101602085106200052f575b90849392915b601f830160051c820181106200051f5750506200020e565b6000815585945060010162000507565b508062000501565b91607f1691620001f8565b015190503880620001aa565b9250600285016000526020600020906000935b601f1984168510620005a9576001945083601f198116106200058f575b505050811b016002830155620001c2565b015160001960f88460031b161c191690553880806200057e565b8181015183556020948501946001909301929091019062000561565b909150600285016000526020600020601f840160051c81016020851062000615575b90849392915b601f830160051c820181106200060557505062000191565b60008155859450600101620005ed565b5080620005e7565b91607f169162000178565b600080526000602052806000203360005260205280600020600160ff1982541617905533336000600080516020620056e38339815191528180a46200003c565b600080fd5b60408051919082016001600160401b038111838210176200044657604052565b6001600160a01b031660008181527ff0c24398a9475f65edda75ee463aa6a9b85b15457f36e081a58d2766a7d54e6f60205260408120549091907fe4547c2a6ce65edbaa7a9ca02c49e60b200048a9eaa0e0bb40308c4bdef41e6f9060ff1615620006f757505050565b808352826020526040832082845260205260408320600160ff19825416179055600080516020620056e3833981519152339380a456fe608080604052600436101561001357600080fd5b60003560e01c90816301ffc9a7146141f85750806307192622146141a657806309811df11461415857806317aaf5ed1461413a578063225e69b414613745578063248a9ca3146137165780632577233e146135985780632d3075cb1461354a5780632f2ff15d146134a9578063322bb116146133c557806332665ffb14613148578063364f71b91461312a57806336568abe146130985780633b13616b14612fd35780633d51402c14612f1d5780633eb5578314612ebc5780633f4ba83a14612e02578063439930b614612dcb5780634e2cba09146123745780634e5cc5bc146123355780635114cb52146121d65780635b76fe451461211e5780635c975abb146120fb57806364fc0ff614611eda57806368cfe6ee14611e595780636d47ab7214611e145780636da6635514611d6057806372e43e0314611bbe57806378e96fb514611b7f5780637a01a1da14611b4457806386cba22b14611ac0578063887e740114611a1457806391d14854146119c757806397a993aa146119165780639b269b8f14611886578063a217fddf1461186a578063abc7192214610ee4578063ace417e014610eb7578063b2b073f214610e7c578063b3c8fe8514610d41578063be630bd214610c6d578063c24f156b14610b6d578063c6dcdc3714610577578063c7d6a1371461051c578063c8542c41146104c1578063d1fedbc21461048d578063d547741f1461044c578063dbe4613d14610411578063e34fc531146103b1578063f0e22d52146103935763f7b108081461025057600080fd5b3461038e57602036600319011261038e5760043560009081526006602052604090208054600182015460028301546001600160a01b03918216936102966003820161449d565b926102a36004830161449d565b60058301546102b46006850161449d565b6007850154906102c66008870161449d565b926102d36009880161449d565b94600a88015460ff1699600b89015497600c8a015499600d015416996040519d8e809e81526020015260408d01528b6101c06060819201528c0161031691614434565b8b810360808d015261032791614434565b9060a08b015289810360c08b015261033e91614434565b9060e089015287810361010089015261035691614434565b86810361012088015261036891614434565b9361037281614459565b6101408601526101608501526101808401526101a08301520390f35b600080fd5b3461038e57600036600319011261038e576020600454604051908152f35b3461038e57602036600319011261038e57600435806000526006602052604060002054156103f957600052600d602052602060018060a01b0360406000205416604051908152f35b60249060405190632d84847b60e01b82526004820152fd5b3461038e57600036600319011261038e5760206040517f43f25613eb2f15fb17222a5d424ca2655743e71265d98e4b93c05e5fb589ecde8152f35b3461038e57604036600319011261038e5761048b60043561046b6143f9565b90806000526000602052610486600160406000200154614aa2565b614bac565b005b3461038e57602036600319011261038e57600435600052600d602052602060018060a01b0360406000205416604051908152f35b3461038e57602036600319011261038e5760043560125481101561038e5760126000527fbb8a6a4669ba250d26cd7a459eca9d215f8307e33aebe50379bc5a3617ec344401546040516001600160a01b039091168152602090f35b3461038e57602036600319011261038e5760043560115481101561038e5760116000527f31ecc21a745e3968a04e9570e4425bc18fa8019c68028196b546d1669c200c6801546040516001600160a01b039091168152602090f35b3461038e5760a036600319011261038e5761059061440f565b6024356001600160401b03811161038e576105af9036906004016142db565b906064356001600160401b03811161038e576105cf9036906004016142db565b906084356001600160401b03811161038e576105ef9036906004016142db565b6105f761497e565b60016005540192836005556040519061010082018281106001600160401b038211176109b757604052848252602082019260018060a01b038516845260408301918783526044356060850152608084015260a0830152600160c08301524260e083015284600052600960205260406000209282518455600184019060018060a01b039051166001600160601b0360a01b825416179055518051906001600160401b0382116109b75781906106ae6002860154614463565b601f8111610b1a575b50602090601f8311600114610aa857600092610a9d575b50508160011b916000199060031b1c19161760028301555b6060810151600383015560808101518051906001600160401b0382116109b75781906107156004860154614463565b601f8111610a4a575b50602090601f83116001146109d8576000926109cd575b50508160011b916000199060031b1c19161760048301555b60a08101518051906001600160401b0382116109b7576107706005850154614463565b601f811161096c575b50602090601f83116001146108d3577fbbd8a75f1fbaec13354cc10a2461302f8853ee06139186b553270015835bc55d95938361087c969460079460e0946000926108c8575b50508160011b916000199060031b1c19161760058501555b6107f660c08201511515600686019060ff801983541691151516179055565b01519101556001600160a01b03811660009081527ff0c24398a9475f65edda75ee463aa6a9b85b15457f36e081a58d2766a7d54e6f60205260409020547fe4547c2a6ce65edbaa7a9ca02c49e60b200048a9eaa0e0bb40308c4bdef41e6f9060ff1615610881575b506040519182916020835260018060a01b0316956020830190614434565b0390a3005b6000818152602081815260408083206001600160a01b03861680855292528220805460ff1916600117905533929091600080516020614f608339815191529080a48561085e565b015190508b806107bf565b90601f198316916005860160005260206000209260005b81811061095457508460079460e0947fbbd8a75f1fbaec13354cc10a2461302f8853ee06139186b553270015835bc55d9a989461087c9a986001951061093b575b505050811b0160058501556107d7565b015160001960f88460031b161c191690558b808061092b565b929360206001819287860151815501950193016108ea565b600585016000526020600020601f840160051c810191602085106109ad575b601f0160051c01905b8181106109a15750610779565b60008155600101610994565b909150819061098b565b634e487b7160e01b600052604160045260246000fd5b015190508780610735565b9250600485016000526020600020906000935b601f1984168510610a2f576001945083601f19811610610a16575b505050811b01600483015561074d565b015160001960f88460031b161c19169055878080610a06565b818101518355602094850194600190930192909101906109eb565b909150600485016000526020600020601f840160051c810160208510610a96575b90849392915b601f830160051c82018110610a8757505061071e565b60008155859450600101610a71565b5080610a6b565b0151905087806106ce565b9250600285016000526020600020906000935b601f1984168510610aff576001945083601f19811610610ae6575b505050811b0160028301556106e6565b015160001960f88460031b161c19169055878080610ad6565b81810151835560209485019460019093019290910190610abb565b909150600285016000526020600020601f840160051c810160208510610b66575b90849392915b601f830160051c82018110610b575750506106b7565b60008155859450600101610b41565b5080610b3b565b3461038e57604036600319011261038e57610b8661440f565b610b8e614425565b610b96614767565b610b9e614d63565b6001600160a01b0382166000818152600c602052604090205490929060ff1615610c4c575015610c44576001905b806000526008602052610be6826008604060002001614d4b565b806000526008602052600b604060002042600a82015501336001600160601b0360a01b825416179055610c1c604051809361457a565b7f6d09e76e997cc0978f336a2b5dfd69897f4638bdaeecff38d109544c5499dc5f60203393a3005b600290610bcc565b6040516337b13c2960e01b8152908190610c699060048301614dd8565b0390fd5b3461038e57604036600319011261038e57610c8661440f565b610c8e614425565b610c96614767565b610c9e614d63565b6001600160a01b0382166000818152600b602052604090205490929060ff1615610d24575015610d1c576001905b806000526007602052610ce6826008604060002001614d4b565b806000526007602052600b604060002042600a82015501336001600160601b0360a01b825416179055610c1c604051809361457a565b600290610ccc565b6040516337b13c2960e01b8152908190610c699060048301614da7565b3461038e57602036600319011261038e57610d5a61440f565b610d62614e76565b506001600160a01b038181166000818152600b602052604090205460ff1615610e6157610e5d92506000526007602052604060002090600b60405192610da78461424b565b828154168452610db96001820161449d565b602085015260028101546040850152610dd46003820161449d565b6060850152610de56004820161449d565b6080850152610df66005820161449d565b60a0850152610e076006820161449d565b60c0850152610e186007820161449d565b60e0850152610e3260ff6008830154166101008601614d3f565b6009810154610120850152600a81015461014085015201541661016082015260405191829182614587565b0390f35b6040516337b13c2960e01b815280610c698560048301614da7565b3461038e57600036600319011261038e5760206040517fe4547c2a6ce65edbaa7a9ca02c49e60b200048a9eaa0e0bb40308c4bdef41e6f8152f35b3461038e57602036600319011261038e576020610eda610ed561440f565b614ed0565b6040519015158152f35b3461038e5761010036600319011261038e576024356001600160401b03811161038e57610f159036906004016142db565b6044356001600160401b03811161038e57610f349036906004016142db565b6084356001600160401b03811161038e57610f539036906004016142db565b9160c4356001600160401b03811161038e57610f739036906004016142db565b60e4356001600160401b03811161038e57610f929036906004016142db565b9033600052600b60205260ff60406000205416158015611830575b61181857610fb9614d63565b60ff6040516020818851610fd08183858d01614331565b8101600e81520301902054166117d55780511580156117cc575b6117a75760016003540193846003556040519361100685614267565b85855233602086015260043560408601526060850152608084015260643560a08401528460c084015260a43560e0840152610100830152610120820152600061014082015242610160820152600061018082015260006101a082015281600052600660205260406000208151815560018060a01b036020830151166001600160601b0360a01b6001830154161760018201556040820151600282015560608201518051906001600160401b0382116109b75781906110c76003850154614463565b601f8111611754575b50602090601f83116001146116e2576000926116d7575b50508160011b916000199060031b1c19161760038201555b60808201518051906001600160401b0382116109b75781906111246004850154614463565b601f8111611684575b50602090601f831160011461161257600092611607575b50508160011b916000199060031b1c19161760048201555b60a0820151600582015560c08201518051906001600160401b0382116109b757819061118b6006850154614463565b601f81116115b4575b50602090601f831160011461154257600092611537575b50508160011b916000199060031b1c19161760068201555b60e082015160078201556101008201518051906001600160401b0382116109b75781906111f36008850154614463565b601f81116114e4575b50602090601f831160011461147257600092611467575b50508160011b916000199060031b1c19161760088201555b6101208201518051906001600160401b0382116109b75761124f6009840154614463565b601f8111611420575b50602090601f83116001146113ad57600d939291600091836113a2575b50508160011b916000199060031b1c19161760098201555b6112a861014084015161129f81614459565b600a8301614e08565b610160830151600b820155610180830151600c82015501906101a060018060a01b03910151166001600160601b0360a01b82541617905580600052600d6020526040600020336001600160601b0360a01b82541617905560405160208184516113148183858901614331565b8101600e815203019020600160ff1982541617905560135491600160401b8310156109b75761134b83600160209501601355614543565b81549060031b9084821b91600019901b1916179055817f61e22366f1dd402972b7fac9c9b73534fc1a7a60eb41141b60d9f2109495758360405185815280611397339588830190614434565b0390a3604051908152f35b015190508780611275565b906009840160005260206000209160005b601f19851681106114085750918391600193600d9695601f198116106113ef575b505050811b01600982015561128d565b015160001960f88460031b161c191690558780806113df565b919260206001819286850151815501940192016113be565b600984016000526020600020601f840160051c810160208510611460575b601f830160051c82018110611454575050611258565b6000815560010161143e565b508061143e565b015190508680611213565b9250600884016000526020600020906000935b601f19841685106114c9576001945083601f198116106114b0575b505050811b01600882015561122b565b015160001960f88460031b161c191690558680806114a0565b81810151835560209485019460019093019290910190611485565b909150600884016000526020600020601f840160051c810160208510611530575b90849392915b601f830160051c820181106115215750506111fc565b6000815585945060010161150b565b5080611505565b0151905086806111ab565b9250600684016000526020600020906000935b601f1984168510611599576001945083601f19811610611580575b505050811b0160068201556111c3565b015160001960f88460031b161c19169055868080611570565b81810151835560209485019460019093019290910190611555565b909150600684016000526020600020601f840160051c810160208510611600575b90849392915b601f830160051c820181106115f1575050611194565b600081558594506001016115db565b50806115d5565b015190508680611144565b9250600484016000526020600020906000935b601f1984168510611669576001945083601f19811610611650575b505050811b01600482015561115c565b015160001960f88460031b161c19169055868080611640565b81810151835560209485019460019093019290910190611625565b909150600484016000526020600020601f840160051c8101602085106116d0575b90849392915b601f830160051c820181106116c157505061112d565b600081558594506001016116ab565b50806116a5565b0151905086806110e7565b9250600384016000526020600020906000935b601f1984168510611739576001945083601f19811610611720575b505050811b0160038201556110ff565b015160001960f88460031b161c19169055868080611710565b818101518355602094850194600190930192909101906116f5565b909150600384016000526020600020601f840160051c8101602085106117a0575b90849392915b601f830160051c820181106117915750506110d0565b6000815585945060010161177b565b5080611775565b6040516301843b5360e71b815260206004820152908190610c69906024830190614434565b50815115610fea565b6084604051637a38456b60e01b815260006004820152604060248201526014604482015273554c50494e20616c72656164792065786973747360601b6064820152fd5b6040516351049a4360e11b8152336004820152602490fd5b50600760205260ff6008604060002001541660038110156118545760011415610fad565b634e487b7160e01b600052602160045260246000fd5b3461038e57600036600319011261038e57602060405160008152f35b3461038e57600036600319011261038e57604051806011549182815260208091019260116000527f31ecc21a745e3968a04e9570e4425bc18fa8019c68028196b546d1669c200c68916000905b8282106118f657610e5d856118ea818903826142ba565b60405191829182614723565b83546001600160a01b0316865294850194600193840193909101906118d3565b3461038e57602036600319011261038e576001600160a01b038061193861440f565b166000526008602052604060002090610e5d818354169161195b6001850161449d565b9360028101549161196e6003830161449d565b61197a6004840161449d565b6119866005850161449d565b6119926006860161449d565b9061199f6007870161449d565b9260ff60088801541694600988015496600b600a8a015499015416986040519c8d9c8d614672565b3461038e57604036600319011261038e576119e06143f9565b600435600052600060205260406000209060018060a01b0316600052602052602060ff604060002054166040519015158152f35b3461038e57602036600319011261038e57600435600052600a602052610140604060002080549060018101549060018060a01b038060028301541690600383015416600483015460ff60058501541690600685015492600786015494600960ff60088901541697015497604051998a5260208a0152604089015260608801526080870152611aa181614459565b60a086015260c085015260e08401521515610100830152610120820152f35b3461038e57600036600319011261038e57604051806012549182815260208091019260126000527fbb8a6a4669ba250d26cd7a459eca9d215f8307e33aebe50379bc5a3617ec3444916000905b828210611b2457610e5d856118ea818903826142ba565b83546001600160a01b031686529485019460019384019390910190611b0d565b3461038e57600036600319011261038e5760206040517ff8cd32ed93fc2f9fc78152a14807c9609af3d99c5fe4dc6b106a801aaddfe90e8152f35b3461038e57602036600319011261038e576001600160a01b03611ba061440f565b16600052600b602052602060ff604060002054166040519015158152f35b3461038e57602036600319011261038e576004356000610120604051611be381614283565b8281528260208201528260408201528260608201528260808201528260a08201528260c08201528260e082015282610100820152015280600052600a60205260406000205415611d4857600052600a6020526101406040600020600960405191611c4c83614283565b805483526001810154602084015260028101546001600160a01b039081166040850152600382015416606084015260048101546080840152600581015460ff16611c9581614459565b60a0840152600681015460c0840152600781015460e084015260ff6008820154161515610100840152015461012082015261012060405191805183526020810151602084015260018060a01b03604082015116604084015260018060a01b0360608201511660608401526080810151608084015260a0810151611d1781614459565b60a084015260c081015160c084015260e081015160e084015261010081015115156101008401520151610120820152f35b60249060405190634ec726c760e01b82526004820152fd5b3461038e57602036600319011261038e576004356001600160401b03811161038e57611d909036906004016142db565b611d9861497e565b611da0614d63565b600160ff1960025416176002557f62e78cea01bee320cd4e420270b5ea74000d11b0c9f74754ebdbfc544b05a2586020604051338152a17fc50068396f19981cb0435611d2c97dde7b6882fdc3185a9fb8080fa756b3974d6040516020815280611e0f33946020830190614434565b0390a2005b3461038e57602036600319011261038e576001600160a01b0380611e3661440f565b166000526007602052604060002090610e5d818354169161195b6001850161449d565b3461038e57602036600319011261038e57611e7261440f565b611e7a614e76565b506001600160a01b038181166000818152600c602052604090205460ff1615611ebf57610e5d92506000526008602052604060002090600b60405192610da78461424b565b6040516337b13c2960e01b815280610c698560048301614dd8565b3461038e57604036600319011261038e5760043533600052602090600c825260ff604060002054161580156120d8575b611818578060005260068252604060002054156103f957611f29614d63565b8060005260068252600160ff600a6040600020015416611f4881614459565b036120c0576000818152600d835260409020546001600160a01b0390811633146120a157600454600101908160045582600052600d8452806040600020541660405191611f9483614283565b83835285830191858352604084019081526060840133815260808501602435815260a08601906000825260c087019242845260e088019460008652610100890196600088526101208a019860008a528d8c600052600a905260406000209a518b555160018b01558060028b01925116916001600160601b0360a01b928382541617905560038a01925116908254161790555160048701555161203581614459565b6120429060058701614e08565b516006850155516007840155511515600883019061206b919060ff801983541691151516179055565b519060090155604051913390827f0bda9ccc9e71eeae6119ee4e4c7d3d283e80542196bab201e1935ebdf7725c92600080a48152f35b604051630a9409a560e21b815260048101839052336024820152604490fd5b6024906040519063046c458d60e51b82526004820152fd5b506008825260ff6008604060002001541660038110156118545760011415611f0a565b3461038e57600036600319011261038e57602060ff600254166040519015158152f35b3461038e57602036600319011261038e5760043561213a614d63565b80600052600a60205260406000205415611d48576000818152600a60205260409020600201546001600160a01b031633036121bb5780600052600a602052604060002060058101600160ff1982541617905560074291015533907fb66fc171a7d61ff7284f70eea0b8dc8bfc9976840d9b021ad04fd7dbf6c32ba2600080a3005b6040516337b13c2960e01b815280610c693360048301614da7565b60208060031936011261038e576004356121ee614e20565b6121f6614d63565b80600052600a825260406000205415611d48576000818152600a835260409020600301546001600160a01b0316330361231a5780600052600a8252600160ff6005604060002001541661224881614459565b036122d75780600052600a82526004604060002001548034106122b9575080600052600a8252604060002060088101600160ff198254161790556009349101557f8db3d67d15226c7fabf0f5b1361ff19460fd64e7cd6a8c108b9661febde96590604051923484523393a360018055005b6044906040519063b99e2ab760e01b82526004820152346024820152fd5b60849060405190637a38456b60e01b8252600482015260406024820152601460448201527314995c5d595cdd081b9bdd08185c1c1c9bdd995960621b6064820152fd5b6040516337b13c2960e01b815280610c693360048301614dd8565b3461038e57602036600319011261038e576001600160a01b0361235661440f565b16600052600c602052602060ff604060002054166040519015158152f35b3461038e5761238236614354565b9192959361238e614d63565b33600052600c60205260ff60406000205416612d8a5760ff604051602081816123bd8c83815193849201614331565b8101600f81520301902054168015612da2575b612d8a57604051956123e18761424b565b33875260208701958652604087015260608601528560808601528260a086015260c085015260e08401526000610100840152426101208401526000610140840152600061016084015233600052600860205260406000209160018060a01b038451166001600160601b0360a01b845416178355518051906001600160401b0382116109b75781906124756001860154614463565b601f8111612d37575b50602090601f8311600114612cc557600092612cba575b50508160011b916000199060031b1c19161760018301555b6040830151600283015560608301518051906001600160401b0382116109b75781906124dc6003860154614463565b601f8111612c67575b50602090601f8311600114612bf557600092612bea575b50508160011b916000199060031b1c19161760038301555b60808301518051906001600160401b0382116109b75781906125396004860154614463565b601f8111612b97575b50602090601f8311600114612b2557600092612b1a575b50508160011b916000199060031b1c19161760048301555b60a08301518051906001600160401b0382116109b75781906125966005860154614463565b601f8111612ac7575b50602090601f8311600114612a5557600092612a4a575b50508160011b916000199060031b1c19161760058301555b60c08301518051906001600160401b0382116109b75781906125f36006860154614463565b601f81116129f7575b50602090601f83116001146129855760009261297a575b50508160011b916000199060031b1c19161760068301555b60e08301518051906001600160401b0382116109b75781906126506007860154614463565b601f8111612927575b50602090601f83116001146128b5576000926128aa575b50508160011b916000199060031b1c19161760078301555b61010083015192600384101561185457600b836126ad61273c96600860209701614d4b565b6101208301516009820155610140830151600a820155019061016060018060a01b03910151166001600160601b0360a01b82541617905533600052600c82526127168260406000209560ff19966001888254161790558160405193828580945193849201614331565b8101600f8152030190206001858254161790558160405193828580945193849201614331565b81016010815203019020600182825416179055601254600160401b8110156109b7576001810180601255811015612894577fbb8a6a4669ba250d26cd7a459eca9d215f8307e33aebe50379bc5a3617ec34440180546001600160a01b0319163390811790915560009081527ff3fa603c74bfe2a4719960e47343678c3dc690d2b27a2295acc6fc430833aaf960205260409020547ff8cd32ed93fc2f9fc78152a14807c9609af3d99c5fe4dc6b106a801aaddfe90e919060ff1615612853575b604051604081527f89105a1c6a3c2fbd471255c66a31ccab604af5697f67d7e2e9a0028c5e4dbd91612844604083016040906005815264212aaca2a960d91b60208201520190565b914260208201528033930390a2005b816000526000602052604060002033600052602052600160406000209182541617905533903390600080516020614f60833981519152600080a480806127fc565b634e487b7160e01b600052603260045260246000fd5b015190508680612670565b9250600785016000526020600020906000935b601f198416851061290c576001945083601f198116106128f3575b505050811b016007830155612688565b015160001960f88460031b161c191690558680806128e3565b818101518355602094850194600190930192909101906128c8565b909150600785016000526020600020601f840160051c810160208510612973575b90849392915b601f830160051c82018110612964575050612659565b6000815585945060010161294e565b5080612948565b015190508680612613565b9250600685016000526020600020906000935b601f19841685106129dc576001945083601f198116106129c3575b505050811b01600683015561262b565b015160001960f88460031b161c191690558680806129b3565b81810151835560209485019460019093019290910190612998565b909150600685016000526020600020601f840160051c810160208510612a43575b90849392915b601f830160051c82018110612a345750506125fc565b60008155859450600101612a1e565b5080612a18565b0151905086806125b6565b9250600585016000526020600020906000935b601f1984168510612aac576001945083601f19811610612a93575b505050811b0160058301556125ce565b015160001960f88460031b161c19169055868080612a83565b81810151835560209485019460019093019290910190612a68565b909150600585016000526020600020601f840160051c810160208510612b13575b90849392915b601f830160051c82018110612b0457505061259f565b60008155859450600101612aee565b5080612ae8565b015190508680612559565b9250600485016000526020600020906000935b601f1984168510612b7c576001945083601f19811610612b63575b505050811b016004830155612571565b015160001960f88460031b161c19169055868080612b53565b81810151835560209485019460019093019290910190612b38565b909150600485016000526020600020601f840160051c810160208510612be3575b90849392915b601f830160051c82018110612bd4575050612542565b60008155859450600101612bbe565b5080612bb8565b0151905086806124fc565b9250600385016000526020600020906000935b601f1984168510612c4c576001945083601f19811610612c33575b505050811b016003830155612514565b015160001960f88460031b161c19169055868080612c23565b81810151835560209485019460019093019290910190612c08565b909150600385016000526020600020601f840160051c810160208510612cb3575b90849392915b601f830160051c82018110612ca45750506124e5565b60008155859450600101612c8e565b5080612c88565b015190508680612495565b9250600185016000526020600020906000935b601f1984168510612d1c576001945083601f19811610612d03575b505050811b0160018301556124ad565b015160001960f88460031b161c19169055868080612cf3565b81810151835560209485019460019093019290910190612cd8565b909150600185016000526020600020601f840160051c810160208510612d83575b90849392915b601f830160051c82018110612d7457505061247e565b60008155859450600101612d5e565b5080612d58565b6040516345ed80e960e01b8152336004820152602490fd5b5060ff6040516020818751612dba8183858c01614331565b8101601081520301902054166123d0565b3461038e57602036600319011261038e5760043560135481101561038e57612df4602091614543565b90546040519160031b1c8152f35b3461038e57600036600319011261038e57612e1b61497e565b60025460ff811615612e805760ff19166002557f5db9ee0a495bf2e6ff9c91a7834c1ba4fdd244a5e8aa4e537bd38aeae4b073aa6020604051338152a1337f306ca22c455fe433ebbf0542bbf947ea6a725495f9e1043db2a47e3c57940385600080a2005b60405162461bcd60e51b815260206004820152601460248201527314185d5cd8589b194e881b9bdd081c185d5cd95960621b6044820152606490fd5b3461038e57602036600319011261038e576004356001600160401b03811161038e5760ff612f076020612ef4819436906004016142db565b8160405193828580945193849201614331565b8101601081520301902054166040519015158152f35b3461038e57600036600319011261038e57604051806013548083526020809301809160136000527f66de8ffda797e3de9c05e8fc57b3bf0ec28a930d40b0d285d93c06501cf6a0909060005b86828210612fbf578686612f7f828803836142ba565b604051928392818401908285525180915260408401929160005b828110612fa857505050500390f35b835185528695509381019392810192600101612f99565b835485529093019260019283019201612f69565b3461038e57602036600319011261038e576004356000908152600960205260409020805460018201546001600160a01b0316916130126002820161449d565b61308760038301546130796130296004860161449d565b916130366005870161449d565b92613066600760ff60068a015416980154966040519a8b9a8b5260208b01526101008060408c01528a0190614434565b9160608901528782036080890152614434565b9085820360a0870152614434565b91151560c084015260e08301520390f35b3461038e57604036600319011261038e576130b16143f9565b336001600160a01b038216036130cd5761048b90600435614bac565b60405162461bcd60e51b815260206004820152602f60248201527f416363657373436f6e74726f6c3a2063616e206f6e6c792072656e6f756e636560448201526e103937b632b9903337b91039b2b63360891b6064820152608490fd5b3461038e57600036600319011261038e576020600554604051908152f35b3461038e57602036600319011261038e5760043560006101a060405161316d81614267565b828152826020820152826040820152606080820152606060808201528260a0820152606060c08201528260e0820152606061010082015260606101208201528261014082015282610160820152826101808201520152806000526006602052604060002054156103f95760005260066020526040600020604051906131f182614267565b8054825260018101546001600160a01b031660208301526002810154604083015261321e6003820161449d565b606083015261322f6004820161449d565b6080830152600581015460a083015261324a6006820161449d565b60c0830152600781015460e08301526132656008820161449d565b6101008301526132776009820161449d565b61012083015260ff600a8201541661328e81614459565b610140830152600b810154610160830152600c810154610180830152600d60018060a01b03910154166101a08201526040518091602082528051602083015260018060a01b0360208201511660408301526040810151606083015261337f61330760608301516101c060808601526101e0850190614434565b613368613347613329608086015193601f1994858983030160a08a0152614434565b60a086015160c088015260c0860151848883030160e0890152614434565b60e08501516101008701526101008501518387830301610120880152614434565b906101208401519085830301610140860152614434565b9061014081015161338f81614459565b6101608401526101608101516101808401526101808101516101a08401526101a060018060a01b03910151166101c08301520390f35b3461038e57604036600319011261038e576004356133e1614425565b6133e9614767565b8160005260066020526040600020541561349057613405614d63565b15613488576001905b80600052600660205261342882600a604060002001614e08565b806000526006602052600d604060002042600c82015501336001600160601b0360a01b8254161790556040519161345e81614459565b82527fa27ad863d5351c43d63a0539323a4df0563559faeb779bdf092ff587f3aa0d2d60203393a3005b60029061340e565b604051632d84847b60e01b815260048101839052602490fd5b3461038e57604036600319011261038e576004356134c56143f9565b8160005260006020526134df600160406000200154614aa2565b81600052600060205260406000209060018060a01b0316908160005260205260ff604060002054161561350e57005b8160005260006020526040600020816000526020526040600020600160ff198254161790553391600080516020614f60833981519152600080a4005b3461038e57602036600319011261038e576004356001600160401b03811161038e5760ff6135826020612ef4819436906004016142db565b8101600e81520301902054166040519015158152f35b3461038e5760208060031936011261038e576004356135b5614767565b6135bd614e20565b6135c5614d63565b80600052600a825260406000205415611d485780600052600a825260ff60086040600020015416156136d357600052600a815260406000209060018201549081600052600d81526040600020906000808080855497600a60038201968a60018060a01b03998a8a54166001600160601b0360a01b80931617905560068a8a54169252604085209160018301918254161790550160ff199060038282541617905560036005830191825416179055600987600283015416910154908282156136ca575bf1156136be575481169216907f16b85f49bf01212961345d3016c9a531894accf62eb7680f2045d79185cc0ec0600080a460018055005b6040513d6000823e3d90fd5b506108fc613687565b60849060405190637a38456b60e01b8252600482015260406024820152601460448201527314185e5b595b9d081b9bdd081c9958d95a5d995960621b6064820152fd5b3461038e57602036600319011261038e5760043560005260006020526020600160406000200154604051908152f35b3461038e5761375336614354565b9192959361375f614d63565b33600052600b60205260ff60406000205416612d8a5760ff6040516020818161378e8c83815193849201614331565b8101600f81520301902054168015614111575b612d8a57604051956137b28761424b565b33875260208701958652604087015260608601528560808601528260a086015260c085015260e08401526000610100840152426101208401526000610140840152600061016084015233600052600760205260406000209160018060a01b038451166001600160601b0360a01b845416178355518051906001600160401b0382116109b75781906138466001860154614463565b601f81116140be575b50602090601f831160011461404c57600092614041575b50508160011b916000199060031b1c19161760018301555b6040830151600283015560608301518051906001600160401b0382116109b75781906138ad6003860154614463565b601f8111613fee575b50602090601f8311600114613f7c57600092613f71575b50508160011b916000199060031b1c19161760038301555b60808301518051906001600160401b0382116109b757819061390a6004860154614463565b601f8111613f1e575b50602090601f8311600114613eac57600092613ea1575b50508160011b916000199060031b1c19161760048301555b60a08301518051906001600160401b0382116109b75781906139676005860154614463565b601f8111613e4e575b50602090601f8311600114613ddc57600092613dd1575b50508160011b916000199060031b1c19161760058301555b60c08301518051906001600160401b0382116109b75781906139c46006860154614463565b601f8111613d7e575b50602090601f8311600114613d0c57600092613d01575b50508160011b916000199060031b1c19161760068301555b60e08301518051906001600160401b0382116109b7578190613a216007860154614463565b601f8111613cae575b50602090601f8311600114613c3c57600092613c31575b50508160011b916000199060031b1c19161760078301555b61010083015192600384101561185457600b83613a7e613ae796600860209701614d4b565b6101208301516009820155610140830151600a820155019061016060018060a01b03910151166001600160601b0360a01b82541617905533600052600b82526127168260406000209560ff19966001888254161790558160405193828580945193849201614331565b81016010815203019020600182825416179055601154600160401b8110156109b7576001810180601155811015612894577f31ecc21a745e3968a04e9570e4425bc18fa8019c68028196b546d1669c200c680180546001600160a01b0319163390811790915560009081527f76a187d6a2b709324658910cc6e93f7bc2a670e53959e6ecbfa9a8f2b634cf9260205260409020547f43f25613eb2f15fb17222a5d424ca2655743e71265d98e4b93c05e5fb589ecde919060ff1615613bf0575b604051604081527f89105a1c6a3c2fbd471255c66a31ccab604af5697f67d7e2e9a0028c5e4dbd9161284460408301604090600681526529a2a62622a960d11b60208201520190565b816000526000602052604060002033600052602052600160406000209182541617905533903390600080516020614f60833981519152600080a48080613ba7565b015190508680613a41565b9250600785016000526020600020906000935b601f1984168510613c93576001945083601f19811610613c7a575b505050811b016007830155613a59565b015160001960f88460031b161c19169055868080613c6a565b81810151835560209485019460019093019290910190613c4f565b909150600785016000526020600020601f840160051c810160208510613cfa575b90849392915b601f830160051c82018110613ceb575050613a2a565b60008155859450600101613cd5565b5080613ccf565b0151905086806139e4565b9250600685016000526020600020906000935b601f1984168510613d63576001945083601f19811610613d4a575b505050811b0160068301556139fc565b015160001960f88460031b161c19169055868080613d3a565b81810151835560209485019460019093019290910190613d1f565b909150600685016000526020600020601f840160051c810160208510613dca575b90849392915b601f830160051c82018110613dbb5750506139cd565b60008155859450600101613da5565b5080613d9f565b015190508680613987565b9250600585016000526020600020906000935b601f1984168510613e33576001945083601f19811610613e1a575b505050811b01600583015561399f565b015160001960f88460031b161c19169055868080613e0a565b81810151835560209485019460019093019290910190613def565b909150600585016000526020600020601f840160051c810160208510613e9a575b90849392915b601f830160051c82018110613e8b575050613970565b60008155859450600101613e75565b5080613e6f565b01519050868061392a565b9250600485016000526020600020906000935b601f1984168510613f03576001945083601f19811610613eea575b505050811b016004830155613942565b015160001960f88460031b161c19169055868080613eda565b81810151835560209485019460019093019290910190613ebf565b909150600485016000526020600020601f840160051c810160208510613f6a575b90849392915b601f830160051c82018110613f5b575050613913565b60008155859450600101613f45565b5080613f3f565b0151905086806138cd565b9250600385016000526020600020906000935b601f1984168510613fd3576001945083601f19811610613fba575b505050811b0160038301556138e5565b015160001960f88460031b161c19169055868080613faa565b81810151835560209485019460019093019290910190613f8f565b909150600385016000526020600020601f840160051c81016020851061403a575b90849392915b601f830160051c8201811061402b5750506138b6565b60008155859450600101614015565b508061400f565b015190508680613866565b9250600185016000526020600020906000935b601f19841685106140a3576001945083601f1981161061408a575b505050811b01600183015561387e565b015160001960f88460031b161c1916905586808061407a565b8181015183556020948501946001909301929091019061405f565b909150600185016000526020600020601f840160051c81016020851061410a575b90849392915b601f830160051c820181106140fb57505061384f565b600081558594506001016140e5565b50806140df565b5060ff60405160208187516141298183858c01614331565b8101601081520301902054166137a1565b3461038e57600036600319011261038e576020600354604051908152f35b3461038e57602036600319011261038e576004356001600160401b03811161038e5760ff6141906020612ef4819436906004016142db565b8101600f81520301902054166040519015158152f35b3461038e57602036600319011261038e57600435806000526006602052604060002054156103f9576000526006602052602060ff600a60406000200154166141ed81614459565b600160405191148152f35b3461038e57602036600319011261038e576004359063ffffffff60e01b821680920361038e57602091637965db0b60e01b811490811561423a575b5015158152f35b6301ffc9a760e01b14905083614233565b61018081019081106001600160401b038211176109b757604052565b6101c081019081106001600160401b038211176109b757604052565b61014081019081106001600160401b038211176109b757604052565b608081019081106001600160401b038211176109b757604052565b90601f801991011681019081106001600160401b038211176109b757604052565b81601f8201121561038e578035906001600160401b0382116109b7576040519261430f601f8401601f1916602001856142ba565b8284526020838301011161038e57816000926020809301838601378301015290565b60005b8381106143445750506000910152565b8181015183820152602001614334565b9060e060031983011261038e576001600160401b03906004803583811161038e57846143819183016142db565b936024359360443581811161038e578261439c9185016142db565b9360643582811161038e57836143b39186016142db565b9360843583811161038e57846143ca9183016142db565b9360a43584811161038e57816143e19184016142db565b9360c43590811161038e576143f692016142db565b90565b602435906001600160a01b038216820361038e57565b600435906001600160a01b038216820361038e57565b60243590811515820361038e57565b9060209161444d81518092818552858086019101614331565b601f01601f1916010190565b6004111561185457565b90600182811c92168015614493575b602083101461447d57565b634e487b7160e01b600052602260045260246000fd5b91607f1691614472565b90604051918260008254926144b184614463565b90818452600194858116908160001461452057506001146144dd575b50506144db925003836142ba565b565b9093915060005260209081600020936000915b8183106145085750506144db935082010138806144cd565b855488840185015294850194879450918301916144f0565b9150506144db94506020925060ff191682840152151560051b82010138806144cd565b6013548110156128945760136000527f66de8ffda797e3de9c05e8fc57b3bf0ec28a930d40b0d285d93c06501cf6a0900190600090565b9060038210156118545752565b6020815260018060a01b038083511660208301526020830151906145b9610180928360408601526101a0850190614434565b936040810151606085015261463e6146286146146146006145ec606086015199601f199a8b8b83030160808c0152614434565b60808601518a8a83030160a08b0152614434565b60a0850151898983030160c08a0152614434565b60c0840151888883030160e0890152614434565b60e0830151610100978783030188880152614434565b94810151614652610120918287019061457a565b810151610140908186015281015190610160918286015201511691015290565b9a979593919c9b989c999694929099600160a01b60019003809b168c528b6101806020819201528c016146a491614434565b9060408c01528a810360608c01526146bb91614434565b89810360808b01526146cc91614434565b88810360a08a01526146dd91614434565b87810360c08901526146ee91614434565b86810360e08801526146ff91614434565b96610100860161470e9161457a565b61012085015261014084015216906101600152565b6020908160408183019282815285518094520193019160005b82811061474a575050505090565b83516001600160a01b03168552938101939281019260010161473c565b3360009081527ff0c24398a9475f65edda75ee463aa6a9b85b15457f36e081a58d2766a7d54e6f602090815260408083205490927fe4547c2a6ce65edbaa7a9ca02c49e60b200048a9eaa0e0bb40308c4bdef41e6f9160ff16156147cb5750505050565b6147d433614c31565b918451906147e18261429f565b6042825284820192606036853782511561496a576030845382519060019182101561496a5790607860218501536041915b8183116148fc575050506148ba576048610c6993869361489e9361488f985198899376020b1b1b2b9b9a1b7b73a3937b61d1030b1b1b7bab73a1604d1b8a860152614866815180928c603789019101614331565b8401917001034b99036b4b9b9b4b733903937b6329607d1b603784015251809386840190614331565b010360288101875201856142ba565b5192839262461bcd60e51b845260048401526024830190614434565b60648486519062461bcd60e51b825280600483015260248201527f537472696e67733a20686578206c656e67746820696e73756666696369656e746044820152fd5b909192600f81166010811015614956576f181899199a1a9b1b9c1cb0b131b232b360811b901a61492c8587614c20565b5360041c92801561494257600019019190614812565b634e487b7160e01b82526011600452602482fd5b634e487b7160e01b83526032600452602483fd5b634e487b7160e01b81526032600452602490fd5b3360009081527fad3228b676f7d3cd4284a5443f17f1962b36e491b30a40b2405849e597ba5fb5602090815260408083205490929060ff16156149c057505050565b6149c933614c31565b90808451906149d78261429f565b6042825284820192606036853782511561496a576030845382519060019182101561496a5790607860218501536041915b818311614a5c575050506148ba576048610c6993869361489e9361488f985198899376020b1b1b2b9b9a1b7b73a3937b61d1030b1b1b7bab73a1604d1b8a860152614866815180928c603789019101614331565b909192600f81166010811015614956576f181899199a1a9b1b9c1cb0b131b232b360811b901a614a8c8587614c20565b5360041c92801561494257600019019190614a08565b600090808252602090828252604092838120338252835260ff848220541615614acb5750505050565b614ad433614c31565b91845190614ae18261429f565b6042825284820192606036853782511561496a576030845382519060019182101561496a5790607860218501536041915b818311614b66575050506148ba576048610c6993869361489e9361488f985198899376020b1b1b2b9b9a1b7b73a3937b61d1030b1b1b7bab73a1604d1b8a860152614866815180928c603789019101614331565b909192600f81166010811015614956576f181899199a1a9b1b9c1cb0b131b232b360811b901a614b968587614c20565b5360041c92801561494257600019019190614b12565b9060009180835282602052604083209160018060a01b03169182845260205260ff604084205416614bdc57505050565b80835282602052604083208284526020526040832060ff1981541690557ff6391f5c32d9c69d2a47ea670b442974b53935d1edc7fd64eb21e047a839171b339380a4565b908151811015612894570160200190565b60405190606082018281106001600160401b038211176109b757604052602a82526020820160403682378251156128945760309053815160019081101561289457607860218401536029905b808211614cd1575050614c8d5790565b606460405162461bcd60e51b815260206004820152602060248201527f537472696e67733a20686578206c656e67746820696e73756666696369656e746044820152fd5b9091600f81166010811015614d2a576f181899199a1a9b1b9c1cb0b131b232b360811b901a614d008486614c20565b5360041c918015614d15576000190190614c7d565b60246000634e487b7160e01b81526011600452fd5b60246000634e487b7160e01b81526032600452fd5b60038210156118545752565b9060038110156118545760ff80198354169116179055565b60ff60025416614d6f57565b60405162461bcd60e51b815260206004820152601060248201526f14185d5cd8589b194e881c185d5cd95960821b6044820152606490fd5b6001600160a01b0390911681526040602082018190526006908201526529a2a62622a960d11b606082015260800190565b6001600160a01b03909116815260406020820181905260059082015264212aaca2a960d91b606082015260800190565b90614e1281614459565b60ff80198354169116179055565b600260015414614e31576002600155565b60405162461bcd60e51b815260206004820152601f60248201527f5265656e7472616e637947756172643a207265656e7472616e742063616c6c006044820152606490fd5b60405190614e838261424b565b81610160600091828152606080602083015283604083015280808301528060808301528060a08301528060c083015260e08201528261010082015282610120820152826101408201520152565b6001600160a01b03166000818152600b602052604081205490919060ff16614f3d578152600c60205260ff604082205416614f085790565b600860205260ff600860408320015416906003821015614f29575060011490565b634e487b7160e01b81526021600452602490fd5b50600760205260ff600860408320015416906003821015614f2957506001149056fe2f8788117e7eff1d82e926ec794901d17c78024a50270940304540a733656f0da2646970667358221220ea49ad955a636a15146e0d2e7cab6325b6577b2c27529bcdad7c1aad30c928db64736f6c634300081300332f8788117e7eff1d82e926ec794901d17c78024a50270940304540a733656f0d",
  "immutableReferences": {},
  "source": "// SPDX-License-Identifier: MIT\r\npragma solidity ^0.8.19;\r\n\r\nimport \"@openzeppelin/contracts/access/AccessControl.sol\";\r\nimport \"@openzeppelin/contracts/security/ReentrancyGuard.sol\";\r\nimport \"@openzeppelin/contracts/security/Pausable.sol\";\r\nimport \"@openzeppelin/contracts/utils/Counters.sol\";\r\n\r\n/**\r\n * @title LandRegistry\r\n * @dev Advanced blockchain-based land registry system for India\r\n * @notice This contract manages property registration, verification, and ownership transfers\r\n */\r\ncontract LandRegistry is AccessControl, ReentrancyGuard, Pausable {\r\n    using Counters for Counters.Counter;\r\n\r\n    // Role definitions\r\n    bytes32 public constant LAND_INSPECTOR_ROLE = keccak256(\"LAND_INSPECTOR_ROLE\");\r\n    bytes32 public constant SELLER_ROLE = keccak256(\"SELLER_ROLE\");\r\n    bytes32 public constant BUYER_ROLE = keccak256(\"BUYER_ROLE\");\r\n\r\n    // Counters for IDs\r\n    Counters.Counter private _propertyIds;\r\n    Counters.Counter private _requestIds;\r\n    Counters.Counter private _inspectorIds;\r\n\r\n    // Custom errors for gas efficiency\r\n    error UnauthorizedAccess(address caller, string requiredRole);\r\n    error PropertyNotFound(uint256 propertyId);\r\n    error UserNotVerified(address user);\r\n    error PropertyNotVerified(uint256 propertyId);\r\n    error InsufficientPayment(uint256 required, uint256 provided);\r\n    error InvalidPropertyStatus(uint256 propertyId, string status);\r\n    error RequestNotFound(uint256 requestId);\r\n    error AlreadyRegistered(address user);\r\n    error InvalidDocumentHash(string ipfsHash);\r\n    error TransferNotAuthorized(uint256 propertyId, address caller);\r\n\r\n    // Enums for better state management\r\n    enum UserStatus { Pending, Verified, Rejected }\r\n    enum PropertyStatus { Pending, Verified, Rejected, Sold }\r\n    enum RequestStatus { Pending, Approved, Rejected, Completed }\r\n\r\n    // Structs\r\n    struct Property {\r\n        uint256 id;\r\n        address owner;\r\n        uint256 area;\r\n        string city;\r\n        string state;\r\n        uint256 price;\r\n        string ulpin; // Unique Land Parcel Identification Number (India)\r\n        uint256 surveyNumber;\r\n        string ipfsHash;\r\n        string documentHash;\r\n        PropertyStatus status;\r\n        uint256 createdAt;\r\n        uint256 verifiedAt;\r\n        address verifiedBy;\r\n    }\r\n\r\n    struct User {\r\n        address id;\r\n        string name;\r\n        uint256 age;\r\n        string city;\r\n        string aadharNumber;\r\n        string panNumber;\r\n        string email;\r\n        string documentHash;\r\n        UserStatus status;\r\n        uint256 registeredAt;\r\n        uint256 verifiedAt;\r\n        address verifiedBy;\r\n    }\r\n\r\n    struct LandInspector {\r\n        uint256 id;\r\n        address inspector;\r\n        string name;\r\n        uint256 age;\r\n        string designation;\r\n        string jurisdiction;\r\n        bool isActive;\r\n        uint256 appointedAt;\r\n    }\r\n\r\n    struct PurchaseRequest {\r\n        uint256 id;\r\n        uint256 propertyId;\r\n        address seller;\r\n        address buyer;\r\n        uint256 offerPrice;\r\n        RequestStatus status;\r\n        uint256 createdAt;\r\n        uint256 approvedAt;\r\n        bool paymentReceived;\r\n        uint256 escrowAmount;\r\n    }\r\n\r\n    // Mappings\r\n    mapping(uint256 => Property) public properties;\r\n    mapping(address => User) public sellers;\r\n    mapping(address => User) public buyers;\r\n    mapping(uint256 => LandInspector) public inspectors;\r\n    mapping(uint256 => PurchaseRequest) public purchaseRequests;\r\n    \r\n    // Status mappings\r\n    mapping(address => bool) public isRegisteredSeller;\r\n    mapping(address => bool) public isRegisteredBuyer;\r\n    mapping(uint256 => address) public propertyOwner;\r\n    mapping(string => bool) public usedULPINs;\r\n    mapping(string => bool) public usedAadharNumbers;\r\n    mapping(string => bool) public usedPANNumbers;\r\n\r\n    // Arrays for enumeration\r\n    address[] public sellersList;\r\n    address[] public buyersList;\r\n    uint256[] public propertiesList;\r\n\r\n    // Events\r\n    event UserRegistered(address indexed user, string role, uint256 timestamp);\r\n    event UserVerified(address indexed user, address indexed verifier, UserStatus status);\r\n    event PropertyListed(uint256 indexed propertyId, address indexed owner, string ulpin);\r\n    event PropertyVerified(uint256 indexed propertyId, address indexed verifier, PropertyStatus status);\r\n    event PurchaseRequested(uint256 indexed requestId, uint256 indexed propertyId, address indexed buyer);\r\n    event PurchaseApproved(uint256 indexed requestId, address indexed seller);\r\n    event PaymentReceived(uint256 indexed requestId, uint256 amount, address indexed buyer);\r\n    event OwnershipTransferred(uint256 indexed propertyId, address indexed from, address indexed to);\r\n    event InspectorAppointed(uint256 indexed inspectorId, address indexed inspector, string name);\r\n    event EmergencyPause(address indexed admin, string reason);\r\n    event EmergencyUnpause(address indexed admin);\r\n\r\n    constructor() {\r\n        _grantRole(DEFAULT_ADMIN_ROLE, msg.sender);\r\n        _grantRole(LAND_INSPECTOR_ROLE, msg.sender);\r\n        \r\n        // Add initial inspector\r\n        _addLandInspector(msg.sender, \"Chief Land Inspector\", 45, \"District Collector\", \"All Districts\");\r\n    }\r\n\r\n    // Modifiers\r\n    modifier onlyVerifiedSeller() {\r\n        if (!isRegisteredSeller[msg.sender] || sellers[msg.sender].status != UserStatus.Verified) {\r\n            revert UserNotVerified(msg.sender);\r\n        }\r\n        _;\r\n    }\r\n\r\n    modifier onlyVerifiedBuyer() {\r\n        if (!isRegisteredBuyer[msg.sender] || buyers[msg.sender].status != UserStatus.Verified) {\r\n            revert UserNotVerified(msg.sender);\r\n        }\r\n        _;\r\n    }\r\n\r\n    modifier propertyExists(uint256 propertyId) {\r\n        if (properties[propertyId].id == 0) {\r\n            revert PropertyNotFound(propertyId);\r\n        }\r\n        _;\r\n    }\r\n\r\n    modifier onlyPropertyOwner(uint256 propertyId) {\r\n        if (propertyOwner[propertyId] != msg.sender) {\r\n            revert TransferNotAuthorized(propertyId, msg.sender);\r\n        }\r\n        _;\r\n    }\r\n\r\n    // User Registration Functions\r\n    function registerSeller(\r\n        string memory _name,\r\n        uint256 _age,\r\n        string memory _city,\r\n        string memory _aadharNumber,\r\n        string memory _panNumber,\r\n        string memory _email,\r\n        string memory _documentHash\r\n    ) external whenNotPaused {\r\n        if (isRegisteredSeller[msg.sender]) {\r\n            revert AlreadyRegistered(msg.sender);\r\n        }\r\n        if (usedAadharNumbers[_aadharNumber] || usedPANNumbers[_panNumber]) {\r\n            revert AlreadyRegistered(msg.sender);\r\n        }\r\n\r\n        sellers[msg.sender] = User({\r\n            id: msg.sender,\r\n            name: _name,\r\n            age: _age,\r\n            city: _city,\r\n            aadharNumber: _aadharNumber,\r\n            panNumber: _panNumber,\r\n            email: _email,\r\n            documentHash: _documentHash,\r\n            status: UserStatus.Pending,\r\n            registeredAt: block.timestamp,\r\n            verifiedAt: 0,\r\n            verifiedBy: address(0)\r\n        });\r\n\r\n        isRegisteredSeller[msg.sender] = true;\r\n        usedAadharNumbers[_aadharNumber] = true;\r\n        usedPANNumbers[_panNumber] = true;\r\n        sellersList.push(msg.sender);\r\n\r\n        _grantRole(SELLER_ROLE, msg.sender);\r\n\r\n        emit UserRegistered(msg.sender, \"SELLER\", block.timestamp);\r\n    }\r\n\r\n    function registerBuyer(\r\n        string memory _name,\r\n        uint256 _age,\r\n        string memory _city,\r\n        string memory _aadharNumber,\r\n        string memory _panNumber,\r\n        string memory _email,\r\n        string memory _documentHash\r\n    ) external whenNotPaused {\r\n        if (isRegisteredBuyer[msg.sender]) {\r\n            revert AlreadyRegistered(msg.sender);\r\n        }\r\n        if (usedAadharNumbers[_aadharNumber] || usedPANNumbers[_panNumber]) {\r\n            revert AlreadyRegistered(msg.sender);\r\n        }\r\n\r\n        buyers[msg.sender] = User({\r\n            id: msg.sender,\r\n            name: _name,\r\n            age: _age,\r\n            city: _city,\r\n            aadharNumber: _aadharNumber,\r\n            panNumber: _panNumber,\r\n            email: _email,\r\n            documentHash: _documentHash,\r\n            status: UserStatus.Pending,\r\n            registeredAt: block.timestamp,\r\n            verifiedAt: 0,\r\n            verifiedBy: address(0)\r\n        });\r\n\r\n        isRegisteredBuyer[msg.sender] = true;\r\n        usedAadharNumbers[_aadharNumber] = true;\r\n        usedPANNumbers[_panNumber] = true;\r\n        buyersList.push(msg.sender);\r\n\r\n        _grantRole(BUYER_ROLE, msg.sender);\r\n\r\n        emit UserRegistered(msg.sender, \"BUYER\", block.timestamp);\r\n    }\r\n\r\n    // Verification Functions\r\n    function verifySeller(address _seller, bool _approve) \r\n        external \r\n        onlyRole(LAND_INSPECTOR_ROLE) \r\n        whenNotPaused \r\n    {\r\n        if (!isRegisteredSeller[_seller]) {\r\n            revert UnauthorizedAccess(_seller, \"SELLER\");\r\n        }\r\n\r\n        UserStatus newStatus = _approve ? UserStatus.Verified : UserStatus.Rejected;\r\n        sellers[_seller].status = newStatus;\r\n        sellers[_seller].verifiedAt = block.timestamp;\r\n        sellers[_seller].verifiedBy = msg.sender;\r\n\r\n        emit UserVerified(_seller, msg.sender, newStatus);\r\n    }\r\n\r\n    function verifyBuyer(address _buyer, bool _approve) \r\n        external \r\n        onlyRole(LAND_INSPECTOR_ROLE) \r\n        whenNotPaused \r\n    {\r\n        if (!isRegisteredBuyer[_buyer]) {\r\n            revert UnauthorizedAccess(_buyer, \"BUYER\");\r\n        }\r\n\r\n        UserStatus newStatus = _approve ? UserStatus.Verified : UserStatus.Rejected;\r\n        buyers[_buyer].status = newStatus;\r\n        buyers[_buyer].verifiedAt = block.timestamp;\r\n        buyers[_buyer].verifiedBy = msg.sender;\r\n\r\n        emit UserVerified(_buyer, msg.sender, newStatus);\r\n    }\r\n\r\n    // Property Management Functions\r\n    function listProperty(\r\n        uint256 _area,\r\n        string memory _city,\r\n        string memory _state,\r\n        uint256 _price,\r\n        string memory _ulpin,\r\n        uint256 _surveyNumber,\r\n        string memory _ipfsHash,\r\n        string memory _documentHash\r\n    ) external onlyVerifiedSeller whenNotPaused returns (uint256) {\r\n        if (usedULPINs[_ulpin]) {\r\n            revert InvalidPropertyStatus(0, \"ULPIN already exists\");\r\n        }\r\n        if (bytes(_ipfsHash).length == 0 || bytes(_documentHash).length == 0) {\r\n            revert InvalidDocumentHash(_ipfsHash);\r\n        }\r\n\r\n        _propertyIds.increment();\r\n        uint256 newPropertyId = _propertyIds.current();\r\n\r\n        properties[newPropertyId] = Property({\r\n            id: newPropertyId,\r\n            owner: msg.sender,\r\n            area: _area,\r\n            city: _city,\r\n            state: _state,\r\n            price: _price,\r\n            ulpin: _ulpin,\r\n            surveyNumber: _surveyNumber,\r\n            ipfsHash: _ipfsHash,\r\n            documentHash: _documentHash,\r\n            status: PropertyStatus.Pending,\r\n            createdAt: block.timestamp,\r\n            verifiedAt: 0,\r\n            verifiedBy: address(0)\r\n        });\r\n\r\n        propertyOwner[newPropertyId] = msg.sender;\r\n        usedULPINs[_ulpin] = true;\r\n        propertiesList.push(newPropertyId);\r\n\r\n        emit PropertyListed(newPropertyId, msg.sender, _ulpin);\r\n        return newPropertyId;\r\n    }\r\n\r\n    function verifyProperty(uint256 _propertyId, bool _approve) \r\n        external \r\n        onlyRole(LAND_INSPECTOR_ROLE) \r\n        propertyExists(_propertyId) \r\n        whenNotPaused \r\n    {\r\n        PropertyStatus newStatus = _approve ? PropertyStatus.Verified : PropertyStatus.Rejected;\r\n        properties[_propertyId].status = newStatus;\r\n        properties[_propertyId].verifiedAt = block.timestamp;\r\n        properties[_propertyId].verifiedBy = msg.sender;\r\n\r\n        emit PropertyVerified(_propertyId, msg.sender, newStatus);\r\n    }\r\n\r\n    // Purchase Request Functions\r\n    function requestPurchase(uint256 _propertyId, uint256 _offerPrice) \r\n        external \r\n        onlyVerifiedBuyer \r\n        propertyExists(_propertyId) \r\n        whenNotPaused \r\n        returns (uint256) \r\n    {\r\n        if (properties[_propertyId].status != PropertyStatus.Verified) {\r\n            revert PropertyNotVerified(_propertyId);\r\n        }\r\n        if (propertyOwner[_propertyId] == msg.sender) {\r\n            revert TransferNotAuthorized(_propertyId, msg.sender);\r\n        }\r\n\r\n        _requestIds.increment();\r\n        uint256 newRequestId = _requestIds.current();\r\n\r\n        purchaseRequests[newRequestId] = PurchaseRequest({\r\n            id: newRequestId,\r\n            propertyId: _propertyId,\r\n            seller: propertyOwner[_propertyId],\r\n            buyer: msg.sender,\r\n            offerPrice: _offerPrice,\r\n            status: RequestStatus.Pending,\r\n            createdAt: block.timestamp,\r\n            approvedAt: 0,\r\n            paymentReceived: false,\r\n            escrowAmount: 0\r\n        });\r\n\r\n        emit PurchaseRequested(newRequestId, _propertyId, msg.sender);\r\n        return newRequestId;\r\n    }\r\n\r\n    function approvePurchaseRequest(uint256 _requestId) \r\n        external \r\n        whenNotPaused \r\n    {\r\n        if (purchaseRequests[_requestId].id == 0) {\r\n            revert RequestNotFound(_requestId);\r\n        }\r\n        if (purchaseRequests[_requestId].seller != msg.sender) {\r\n            revert UnauthorizedAccess(msg.sender, \"SELLER\");\r\n        }\r\n\r\n        purchaseRequests[_requestId].status = RequestStatus.Approved;\r\n        purchaseRequests[_requestId].approvedAt = block.timestamp;\r\n\r\n        emit PurchaseApproved(_requestId, msg.sender);\r\n    }\r\n\r\n    // Payment and Transfer Functions\r\n    function makePayment(uint256 _requestId) \r\n        external \r\n        payable \r\n        nonReentrant \r\n        whenNotPaused \r\n    {\r\n        if (purchaseRequests[_requestId].id == 0) {\r\n            revert RequestNotFound(_requestId);\r\n        }\r\n        if (purchaseRequests[_requestId].buyer != msg.sender) {\r\n            revert UnauthorizedAccess(msg.sender, \"BUYER\");\r\n        }\r\n        if (purchaseRequests[_requestId].status != RequestStatus.Approved) {\r\n            revert InvalidPropertyStatus(_requestId, \"Request not approved\");\r\n        }\r\n        if (msg.value < purchaseRequests[_requestId].offerPrice) {\r\n            revert InsufficientPayment(purchaseRequests[_requestId].offerPrice, msg.value);\r\n        }\r\n\r\n        purchaseRequests[_requestId].paymentReceived = true;\r\n        purchaseRequests[_requestId].escrowAmount = msg.value;\r\n\r\n        emit PaymentReceived(_requestId, msg.value, msg.sender);\r\n    }\r\n\r\n    function approveOwnershipTransfer(uint256 _requestId) \r\n        external \r\n        onlyRole(LAND_INSPECTOR_ROLE) \r\n        nonReentrant \r\n        whenNotPaused \r\n    {\r\n        if (purchaseRequests[_requestId].id == 0) {\r\n            revert RequestNotFound(_requestId);\r\n        }\r\n        if (!purchaseRequests[_requestId].paymentReceived) {\r\n            revert InvalidPropertyStatus(_requestId, \"Payment not received\");\r\n        }\r\n\r\n        PurchaseRequest storage request = purchaseRequests[_requestId];\r\n        uint256 propertyId = request.propertyId;\r\n        \r\n        // Transfer ownership\r\n        address previousOwner = propertyOwner[propertyId];\r\n        propertyOwner[propertyId] = request.buyer;\r\n        properties[propertyId].owner = request.buyer;\r\n        properties[propertyId].status = PropertyStatus.Sold;\r\n        \r\n        // Update request status\r\n        request.status = RequestStatus.Completed;\r\n        \r\n        // Transfer payment to seller\r\n        payable(request.seller).transfer(request.escrowAmount);\r\n\r\n        emit OwnershipTransferred(propertyId, previousOwner, request.buyer);\r\n    }\r\n\r\n    // Inspector Management\r\n    function addLandInspector(\r\n        address _inspector,\r\n        string memory _name,\r\n        uint256 _age,\r\n        string memory _designation,\r\n        string memory _jurisdiction\r\n    ) external onlyRole(DEFAULT_ADMIN_ROLE) {\r\n        _addLandInspector(_inspector, _name, _age, _designation, _jurisdiction);\r\n    }\r\n\r\n    function _addLandInspector(\r\n        address _inspector,\r\n        string memory _name,\r\n        uint256 _age,\r\n        string memory _designation,\r\n        string memory _jurisdiction\r\n    ) internal {\r\n        _inspectorIds.increment();\r\n        uint256 newInspectorId = _inspectorIds.current();\r\n\r\n        inspectors[newInspectorId] = LandInspector({\r\n            id: newInspectorId,\r\n            inspector: _inspector,\r\n            name: _name,\r\n            age: _age,\r\n            designation: _designation,\r\n            jurisdiction: _jurisdiction,\r\n            isActive: true,\r\n            appointedAt: block.timestamp\r\n        });\r\n\r\n        _grantRole(LAND_INSPECTOR_ROLE, _inspector);\r\n        emit InspectorAppointed(newInspectorId, _inspector, _name);\r\n    }\r\n\r\n    // Emergency Functions\r\n    function pause(string memory reason) external onlyRole(DEFAULT_ADMIN_ROLE) {\r\n        _pause();\r\n        emit EmergencyPause(msg.sender, reason);\r\n    }\r\n\r\n    function unpause() external onlyRole(DEFAULT_ADMIN_ROLE) {\r\n        _unpause();\r\n        emit EmergencyUnpause(msg.sender);\r\n    }\r\n\r\n    // View Functions\r\n    function getProperty(uint256 _propertyId) \r\n        external \r\n        view \r\n        propertyExists(_propertyId) \r\n        returns (Property memory) \r\n    {\r\n        return properties[_propertyId];\r\n    }\r\n\r\n    function getPurchaseRequest(uint256 _requestId) \r\n        external \r\n        view \r\n        returns (PurchaseRequest memory) \r\n    {\r\n        if (purchaseRequests[_requestId].id == 0) {\r\n            revert RequestNotFound(_requestId);\r\n        }\r\n        return purchaseRequests[_requestId];\r\n    }\r\n\r\n    function getSellerDetails(address _seller) \r\n        external \r\n        view \r\n        returns (User memory) \r\n    {\r\n        if (!isRegisteredSeller[_seller]) {\r\n            revert UnauthorizedAccess(_seller, \"SELLER\");\r\n        }\r\n        return sellers[_seller];\r\n    }\r\n\r\n    function getBuyerDetails(address _buyer) \r\n        external \r\n        view \r\n        returns (User memory) \r\n    {\r\n        if (!isRegisteredBuyer[_buyer]) {\r\n            revert UnauthorizedAccess(_buyer, \"BUYER\");\r\n        }\r\n        return buyers[_buyer];\r\n    }\r\n\r\n    function getAllProperties() external view returns (uint256[] memory) {\r\n        return propertiesList;\r\n    }\r\n\r\n    function getAllSellers() external view returns (address[] memory) {\r\n        return sellersList;\r\n    }\r\n\r\n    function getAllBuyers() external view returns (address[] memory) {\r\n        return buyersList;\r\n    }\r\n\r\n    function getTotalProperties() external view returns (uint256) {\r\n        return _propertyIds.current();\r\n    }\r\n\r\n    function getTotalRequests() external view returns (uint256) {\r\n        return _requestIds.current();\r\n    }\r\n\r\n    function getTotalInspectors() external view returns (uint256) {\r\n        return _inspectorIds.current();\r\n    }\r\n\r\n    // Utility Functions\r\n    function isPropertyVerified(uint256 _propertyId) \r\n        external \r\n        view \r\n        propertyExists(_propertyId) \r\n        returns (bool) \r\n    {\r\n        return properties[_propertyId].status == PropertyStatus.Verified;\r\n    }\r\n\r\n    function isUserVerified(address _user) external view returns (bool) {\r\n        if (isRegisteredSeller[_user]) {\r\n            return sellers[_user].status == UserStatus.Verified;\r\n        }\r\n        if (isRegisteredBuyer[_user]) {\r\n            return buyers[_user].status == UserStatus.Verified;\r\n        }\r\n        return false;\r\n    }\r\n\r\n    function getPropertyOwner(uint256 _propertyId) \r\n        external \r\n        view \r\n        propertyExists(_propertyId) \r\n        returns (address) \r\n    {\r\n        return propertyOwner[_propertyId];\r\n    }\r\n}",
  "sourcePath": "C:\\Users\\jayan\\Desktop\\LandLedger\\LandLedger\\contracts\\LandRegistry.sol",
  "compiler": {
    "name": "solc",
    "version": "0.8.19+commit.7dd6d404.Emscripten.clang"
  },
  "schemaVersion": "3.4.16",
  "updatedAt": "2025-08-22T03:53:40.255Z",
  "devdoc": {
    "details": "Advanced blockchain-based land registry system for India",
    "events": {
      "Paused(address)": {
        "details": "Emitted when the pause is triggered by `account`."
      },
      "RoleAdminChanged(bytes32,bytes32,bytes32)": {
        "details": "Emitted when `newAdminRole` is set as ``role``'s admin role, replacing `previousAdminRole` `DEFAULT_ADMIN_ROLE` is the starting admin for all roles, despite {RoleAdminChanged} not being emitted signaling this. _Available since v3.1._"
      },
      "RoleGranted(bytes32,address,address)": {
        "details": "Emitted when `account` is granted `role`. `sender` is the account that originated the contract call, an admin role bearer except when using {AccessControl-_setupRole}."
      },
      "RoleRevoked(bytes32,address,address)": {
        "details": "Emitted when `account` is revoked `role`. `sender` is the account that originated the contract call:   - if using `revokeRole`, it is the admin role bearer   - if using `renounceRole`, it is the role bearer (i.e. `account`)"
      },
      "Unpaused(address)": {
        "details": "Emitted when the pause is lifted by `account`."
      }
    },
    "kind": "dev",
    "methods": {
      "getRoleAdmin(bytes32)": {
        "details": "Returns the admin role that controls `role`. See {grantRole} and {revokeRole}. To change a role's admin, use {_setRoleAdmin}."
      },
      "grantRole(bytes32,address)": {
        "details": "Grants `role` to `account`. If `account` had not been already granted `role`, emits a {RoleGranted} event. Requirements: - the caller must have ``role``'s admin role. May emit a {RoleGranted} event."
      },
      "hasRole(bytes32,address)": {
        "details": "Returns `true` if `account` has been granted `role`."
      },
      "paused()": {
        "details": "Returns true if the contract is paused, and false otherwise."
      },
      "renounceRole(bytes32,address)": {
        "details": "Revokes `role` from the calling account. Roles are often managed via {grantRole} and {revokeRole}: this function's purpose is to provide a mechanism for accounts to lose their privileges if they are compromised (such as when a trusted device is misplaced). If the calling account had been revoked `role`, emits a {RoleRevoked} event. Requirements: - the caller must be `account`. May emit a {RoleRevoked} event."
      },
      "revokeRole(bytes32,address)": {
        "details": "Revokes `role` from `account`. If `account` had been granted `role`, emits a {RoleRevoked} event. Requirements: - the caller must have ``role``'s admin role. May emit a {RoleRevoked} event."
      },
      "supportsInterface(bytes4)": {
        "details": "See {IERC165-supportsInterface}."
      }
    },
    "title": "LandRegistry",
    "version": 1
  },
  "userdoc": {
    "kind": "user",
    "methods": {},
    "notice": "This contract manages property registration, verification, and ownership transfers",
    "version": 1
  }
}